{
  "_format": "hh-sol-artifact-1",
  "contractName": "Contract",
  "sourceName": "contracts/Contract.sol",
  "abi": [
    {
      "inputs": [
        {
          "internalType": "string",
          "name": "name_",
          "type": "string"
        },
        {
          "internalType": "string",
          "name": "symbol_",
          "type": "string"
        }
      ],
      "stateMutability": "nonpayable",
      "type": "constructor"
    },
    {
      "anonymous": false,
      "inputs": [
        {
          "indexed": true,
          "internalType": "address",
          "name": "owner",
          "type": "address"
        },
        {
          "indexed": true,
          "internalType": "address",
          "name": "spender",
          "type": "address"
        },
        {
          "indexed": false,
          "internalType": "uint256",
          "name": "value",
          "type": "uint256"
        }
      ],
      "name": "Approval",
      "type": "event"
    },
    {
      "anonymous": false,
      "inputs": [
        {
          "indexed": true,
          "internalType": "address",
          "name": "from",
          "type": "address"
        },
        {
          "indexed": true,
          "internalType": "address",
          "name": "to",
          "type": "address"
        },
        {
          "indexed": false,
          "internalType": "uint256",
          "name": "value",
          "type": "uint256"
        }
      ],
      "name": "Transfer",
      "type": "event"
    },
    {
      "inputs": [
        {
          "internalType": "address",
          "name": "owner",
          "type": "address"
        },
        {
          "internalType": "address",
          "name": "spender",
          "type": "address"
        }
      ],
      "name": "allowance",
      "outputs": [
        {
          "internalType": "uint256",
          "name": "",
          "type": "uint256"
        }
      ],
      "stateMutability": "view",
      "type": "function"
    },
    {
      "inputs": [
        {
          "internalType": "address",
          "name": "spender",
          "type": "address"
        },
        {
          "internalType": "uint256",
          "name": "amount",
          "type": "uint256"
        }
      ],
      "name": "approve",
      "outputs": [
        {
          "internalType": "bool",
          "name": "",
          "type": "bool"
        }
      ],
      "stateMutability": "nonpayable",
      "type": "function"
    },
    {
      "inputs": [
        {
          "internalType": "address",
          "name": "account",
          "type": "address"
        }
      ],
      "name": "balanceOf",
      "outputs": [
        {
          "internalType": "uint256",
          "name": "",
          "type": "uint256"
        }
      ],
      "stateMutability": "view",
      "type": "function"
    },
    {
      "inputs": [],
      "name": "decimals",
      "outputs": [
        {
          "internalType": "uint8",
          "name": "",
          "type": "uint8"
        }
      ],
      "stateMutability": "view",
      "type": "function"
    },
    {
      "inputs": [
        {
          "internalType": "address",
          "name": "spender",
          "type": "address"
        },
        {
          "internalType": "uint256",
          "name": "subtractedValue",
          "type": "uint256"
        }
      ],
      "name": "decreaseAllowance",
      "outputs": [
        {
          "internalType": "bool",
          "name": "",
          "type": "bool"
        }
      ],
      "stateMutability": "nonpayable",
      "type": "function"
    },
    {
      "inputs": [
        {
          "internalType": "address",
          "name": "spender",
          "type": "address"
        },
        {
          "internalType": "uint256",
          "name": "addedValue",
          "type": "uint256"
        }
      ],
      "name": "increaseAllowance",
      "outputs": [
        {
          "internalType": "bool",
          "name": "",
          "type": "bool"
        }
      ],
      "stateMutability": "nonpayable",
      "type": "function"
    },
    {
      "inputs": [],
      "name": "maxTX",
      "outputs": [
        {
          "internalType": "uint256",
          "name": "",
          "type": "uint256"
        }
      ],
      "stateMutability": "view",
      "type": "function"
    },
    {
      "inputs": [],
      "name": "name",
      "outputs": [
        {
          "internalType": "string",
          "name": "",
          "type": "string"
        }
      ],
      "stateMutability": "view",
      "type": "function"
    },
    {
      "inputs": [],
      "name": "symbol",
      "outputs": [
        {
          "internalType": "string",
          "name": "",
          "type": "string"
        }
      ],
      "stateMutability": "view",
      "type": "function"
    },
    {
      "inputs": [],
      "name": "totalSupply",
      "outputs": [
        {
          "internalType": "uint256",
          "name": "",
          "type": "uint256"
        }
      ],
      "stateMutability": "view",
      "type": "function"
    },
    {
      "inputs": [
        {
          "internalType": "address",
          "name": "recipient",
          "type": "address"
        },
        {
          "internalType": "uint256",
          "name": "amount",
          "type": "uint256"
        }
      ],
      "name": "transfer",
      "outputs": [
        {
          "internalType": "bool",
          "name": "",
          "type": "bool"
        }
      ],
      "stateMutability": "nonpayable",
      "type": "function"
    },
    {
      "inputs": [
        {
          "internalType": "address",
          "name": "sender",
          "type": "address"
        },
        {
          "internalType": "address",
          "name": "recipient",
          "type": "address"
        },
        {
          "internalType": "uint256",
          "name": "amount",
          "type": "uint256"
        }
      ],
      "name": "transferFrom",
      "outputs": [
        {
          "internalType": "bool",
          "name": "",
          "type": "bool"
        }
      ],
      "stateMutability": "nonpayable",
      "type": "function"
    }
  ],
  "bytecode": "0x608060405269021e19e0c9bab24000006003553480156200001f57600080fd5b506040516200182f3803806200182f8339818101604052810190620000459190620001a1565b81600490805190602001906200005d9291906200007f565b508060059080519060200190620000769291906200007f565b50505062000384565b8280546200008d90620002a9565b90600052602060002090601f016020900481019282620000b15760008555620000fd565b82601f10620000cc57805160ff1916838001178555620000fd565b82800160010185558215620000fd579182015b82811115620000fc578251825591602001919060010190620000df565b5b5090506200010c919062000110565b5090565b5b808211156200012b57600081600090555060010162000111565b5090565b60006200014662000140846200023d565b62000214565b9050828152602081018484840111156200015f57600080fd5b6200016c84828562000273565b509392505050565b600082601f8301126200018657600080fd5b8151620001988482602086016200012f565b91505092915050565b60008060408385031215620001b557600080fd5b600083015167ffffffffffffffff811115620001d057600080fd5b620001de8582860162000174565b925050602083015167ffffffffffffffff811115620001fc57600080fd5b6200020a8582860162000174565b9150509250929050565b60006200022062000233565b90506200022e8282620002df565b919050565b6000604051905090565b600067ffffffffffffffff8211156200025b576200025a62000344565b5b620002668262000373565b9050602081019050919050565b60005b838110156200029357808201518184015260208101905062000276565b83811115620002a3576000848401525b50505050565b60006002820490506001821680620002c257607f821691505b60208210811415620002d957620002d862000315565b5b50919050565b620002ea8262000373565b810181811067ffffffffffffffff821117156200030c576200030b62000344565b5b80604052505050565b7f4e487b7100000000000000000000000000000000000000000000000000000000600052602260045260246000fd5b7f4e487b7100000000000000000000000000000000000000000000000000000000600052604160045260246000fd5b6000601f19601f8301169050919050565b61149b80620003946000396000f3fe608060405234801561001057600080fd5b50600436106100b45760003560e01c806370a082311161007157806370a08231146101a357806395d89b41146101d3578063a457c2d7146101f1578063a9059cbb14610221578063dd62ed3e14610251578063ebae7c1c14610281576100b4565b806306fdde03146100b9578063095ea7b3146100d757806318160ddd1461010757806323b872dd14610125578063313ce567146101555780633950935114610173575b600080fd5b6100c161029f565b6040516100ce9190610ecc565b60405180910390f35b6100f160048036038101906100ec9190610cf7565b610331565b6040516100fe9190610eb1565b60405180910390f35b61010f61034f565b60405161011c9190610fee565b60405180910390f35b61013f600480360381019061013a9190610ca8565b610359565b60405161014c9190610eb1565b60405180910390f35b61015d610451565b60405161016a9190611009565b60405180910390f35b61018d60048036038101906101889190610cf7565b61045a565b60405161019a9190610eb1565b60405180910390f35b6101bd60048036038101906101b89190610c43565b610506565b6040516101ca9190610fee565b60405180910390f35b6101db61054e565b6040516101e89190610ecc565b60405180910390f35b61020b60048036038101906102069190610cf7565b6105e0565b6040516102189190610eb1565b60405180910390f35b61023b60048036038101906102369190610cf7565b6106cb565b6040516102489190610eb1565b60405180910390f35b61026b60048036038101906102669190610c6c565b6106e9565b6040516102789190610fee565b60405180910390f35b610289610770565b6040516102969190610fee565b60405180910390f35b6060600480546102ae9061111e565b80601f01602080910402602001604051908101604052809291908181526020018280546102da9061111e565b80156103275780601f106102fc57610100808354040283529160200191610327565b820191906000526020600020905b81548152906001019060200180831161030a57829003601f168201915b5050505050905090565b600061034561033e610776565b848461077e565b6001905092915050565b6000600254905090565b6000610366848484610949565b6000600160008673ffffffffffffffffffffffffffffffffffffffff1673ffffffffffffffffffffffffffffffffffffffff16815260200190815260200160002060006103b1610776565b73ffffffffffffffffffffffffffffffffffffffff1673ffffffffffffffffffffffffffffffffffffffff16815260200190815260200160002054905082811015610431576040517f08c379a000000000000000000000000000000000000000000000000000000000815260040161042890610f4e565b60405180910390fd5b6104458561043d610776565b85840361077e565b60019150509392505050565b60006012905090565b60006104fc610467610776565b848460016000610475610776565b73ffffffffffffffffffffffffffffffffffffffff1673ffffffffffffffffffffffffffffffffffffffff16815260200190815260200160002060008873ffffffffffffffffffffffffffffffffffffffff1673ffffffffffffffffffffffffffffffffffffffff168152602001908152602001600020546104f79190611040565b61077e565b6001905092915050565b60008060008373ffffffffffffffffffffffffffffffffffffffff1673ffffffffffffffffffffffffffffffffffffffff168152602001908152602001600020549050919050565b60606005805461055d9061111e565b80601f01602080910402602001604051908101604052809291908181526020018280546105899061111e565b80156105d65780601f106105ab576101008083540402835291602001916105d6565b820191906000526020600020905b8154815290600101906020018083116105b957829003601f168201915b5050505050905090565b600080600160006105ef610776565b73ffffffffffffffffffffffffffffffffffffffff1673ffffffffffffffffffffffffffffffffffffffff16815260200190815260200160002060008573ffffffffffffffffffffffffffffffffffffffff1673ffffffffffffffffffffffffffffffffffffffff168152602001908152602001600020549050828110156106ac576040517f08c379a00000000000000000000000000000000000000000000000000000000081526004016106a390610fce565b60405180910390fd5b6106c06106b7610776565b8585840361077e565b600191505092915050565b60006106df6106d8610776565b8484610949565b6001905092915050565b6000600160008473ffffffffffffffffffffffffffffffffffffffff1673ffffffffffffffffffffffffffffffffffffffff16815260200190815260200160002060008373ffffffffffffffffffffffffffffffffffffffff1673ffffffffffffffffffffffffffffffffffffffff16815260200190815260200160002054905092915050565b60035481565b600033905090565b600073ffffffffffffffffffffffffffffffffffffffff168373ffffffffffffffffffffffffffffffffffffffff1614156107ee576040517f08c379a00000000000000000000000000000000000000000000000000000000081526004016107e590610f8e565b60405180910390fd5b600073ffffffffffffffffffffffffffffffffffffffff168273ffffffffffffffffffffffffffffffffffffffff16141561085e576040517f08c379a000000000000000000000000000000000000000000000000000000000815260040161085590610f0e565b60405180910390fd5b80600160008573ffffffffffffffffffffffffffffffffffffffff1673ffffffffffffffffffffffffffffffffffffffff16815260200190815260200160002060008473ffffffffffffffffffffffffffffffffffffffff1673ffffffffffffffffffffffffffffffffffffffff168152602001908152602001600020819055508173ffffffffffffffffffffffffffffffffffffffff168373ffffffffffffffffffffffffffffffffffffffff167f8c5be1e5ebec7d5bd14f71427d1e84f3dd0314c0f7b2291e5b200ac8c7c3b9258360405161093c9190610fee565b60405180910390a3505050565b600073ffffffffffffffffffffffffffffffffffffffff168373ffffffffffffffffffffffffffffffffffffffff1614156109b9576040517f08c379a00000000000000000000000000000000000000000000000000000000081526004016109b090610f6e565b60405180910390fd5b600073ffffffffffffffffffffffffffffffffffffffff168273ffffffffffffffffffffffffffffffffffffffff161415610a29576040517f08c379a0000000000000000000000000000000000000000000000000000000008152600401610a2090610eee565b60405180910390fd5b600354811115610a6e576040517f08c379a0000000000000000000000000000000000000000000000000000000008152600401610a6590610fae565b60405180910390fd5b610a79838383610c0f565b60008060008573ffffffffffffffffffffffffffffffffffffffff1673ffffffffffffffffffffffffffffffffffffffff16815260200190815260200160002054905081811015610aff576040517f08c379a0000000000000000000000000000000000000000000000000000000008152600401610af690610f2e565b60405180910390fd5b8181036000808673ffffffffffffffffffffffffffffffffffffffff1673ffffffffffffffffffffffffffffffffffffffff16815260200190815260200160002081905550816000808573ffffffffffffffffffffffffffffffffffffffff1673ffffffffffffffffffffffffffffffffffffffff1681526020019081526020016000206000828254610b929190611040565b925050819055508273ffffffffffffffffffffffffffffffffffffffff168473ffffffffffffffffffffffffffffffffffffffff167fddf252ad1be2c89b69c2b068fc378daa952ba7f163c4a11628f55a4df523b3ef84604051610bf69190610fee565b60405180910390a3610c09848484610c14565b50505050565b505050565b505050565b600081359050610c2881611437565b92915050565b600081359050610c3d8161144e565b92915050565b600060208284031215610c5557600080fd5b6000610c6384828501610c19565b91505092915050565b60008060408385031215610c7f57600080fd5b6000610c8d85828601610c19565b9250506020610c9e85828601610c19565b9150509250929050565b600080600060608486031215610cbd57600080fd5b6000610ccb86828701610c19565b9350506020610cdc86828701610c19565b9250506040610ced86828701610c2e565b9150509250925092565b60008060408385031215610d0a57600080fd5b6000610d1885828601610c19565b9250506020610d2985828601610c2e565b9150509250929050565b610d3c816110a8565b82525050565b6000610d4d82611024565b610d57818561102f565b9350610d678185602086016110eb565b610d70816111ae565b840191505092915050565b6000610d8860238361102f565b9150610d93826111bf565b604082019050919050565b6000610dab60228361102f565b9150610db68261120e565b604082019050919050565b6000610dce60268361102f565b9150610dd98261125d565b604082019050919050565b6000610df160288361102f565b9150610dfc826112ac565b604082019050919050565b6000610e1460258361102f565b9150610e1f826112fb565b604082019050919050565b6000610e3760248361102f565b9150610e428261134a565b604082019050919050565b6000610e5a60258361102f565b9150610e6582611399565b604082019050919050565b6000610e7d60258361102f565b9150610e88826113e8565b604082019050919050565b610e9c816110d4565b82525050565b610eab816110de565b82525050565b6000602082019050610ec66000830184610d33565b92915050565b60006020820190508181036000830152610ee68184610d42565b905092915050565b60006020820190508181036000830152610f0781610d7b565b9050919050565b60006020820190508181036000830152610f2781610d9e565b9050919050565b60006020820190508181036000830152610f4781610dc1565b9050919050565b60006020820190508181036000830152610f6781610de4565b9050919050565b60006020820190508181036000830152610f8781610e07565b9050919050565b60006020820190508181036000830152610fa781610e2a565b9050919050565b60006020820190508181036000830152610fc781610e4d565b9050919050565b60006020820190508181036000830152610fe781610e70565b9050919050565b60006020820190506110036000830184610e93565b92915050565b600060208201905061101e6000830184610ea2565b92915050565b600081519050919050565b600082825260208201905092915050565b600061104b826110d4565b9150611056836110d4565b9250827fffffffffffffffffffffffffffffffffffffffffffffffffffffffffffffffff0382111561108b5761108a611150565b5b828201905092915050565b60006110a1826110b4565b9050919050565b60008115159050919050565b600073ffffffffffffffffffffffffffffffffffffffff82169050919050565b6000819050919050565b600060ff82169050919050565b60005b838110156111095780820151818401526020810190506110ee565b83811115611118576000848401525b50505050565b6000600282049050600182168061113657607f821691505b6020821081141561114a5761114961117f565b5b50919050565b7f4e487b7100000000000000000000000000000000000000000000000000000000600052601160045260246000fd5b7f4e487b7100000000000000000000000000000000000000000000000000000000600052602260045260246000fd5b6000601f19601f8301169050919050565b7f45524332303a207472616e7366657220746f20746865207a65726f206164647260008201527f6573730000000000000000000000000000000000000000000000000000000000602082015250565b7f45524332303a20617070726f766520746f20746865207a65726f20616464726560008201527f7373000000000000000000000000000000000000000000000000000000000000602082015250565b7f45524332303a207472616e7366657220616d6f756e742065786365656473206260008201527f616c616e63650000000000000000000000000000000000000000000000000000602082015250565b7f45524332303a207472616e7366657220616d6f756e742065786365656473206160008201527f6c6c6f77616e6365000000000000000000000000000000000000000000000000602082015250565b7f45524332303a207472616e736665722066726f6d20746865207a65726f20616460008201527f6472657373000000000000000000000000000000000000000000000000000000602082015250565b7f45524332303a20617070726f76652066726f6d20746865207a65726f2061646460008201527f7265737300000000000000000000000000000000000000000000000000000000602082015250565b7f45524332303a207472616e7366657220616d6f756e742065786365656473206d60008201527f6178205458000000000000000000000000000000000000000000000000000000602082015250565b7f45524332303a2064656372656173656420616c6c6f77616e63652062656c6f7760008201527f207a65726f000000000000000000000000000000000000000000000000000000602082015250565b61144081611096565b811461144b57600080fd5b50565b611457816110d4565b811461146257600080fd5b5056fea26469706673582212203199aa6b998c60f8635a73cd1964eefeba9af7ab83bd432026ca921e74a5e0fa64736f6c63430008040033",
  "linkReferences": {},
  "deployedLinkReferences": {}
}