{
  "_format": "hh-sol-artifact-1",
  "contractName": "Contract",
  "sourceName": "contracts/Contract.sol",
  "abi": [
    {
      "inputs": [],
      "stateMutability": "nonpayable",
      "type": "constructor"
    },
    {
      "anonymous": false,
      "inputs": [
        {
          "indexed": true,
          "internalType": "address",
          "name": "owner",
          "type": "address"
        },
        {
          "indexed": true,
          "internalType": "address",
          "name": "spender",
          "type": "address"
        },
        {
          "indexed": false,
          "internalType": "uint256",
          "name": "value",
          "type": "uint256"
        }
      ],
      "name": "Approval",
      "type": "event"
    },
    {
      "anonymous": false,
      "inputs": [
        {
          "indexed": true,
          "internalType": "address",
          "name": "previousOwner",
          "type": "address"
        },
        {
          "indexed": true,
          "internalType": "address",
          "name": "newOwner",
          "type": "address"
        }
      ],
      "name": "OwnershipTransferred",
      "type": "event"
    },
    {
      "anonymous": false,
      "inputs": [
        {
          "indexed": false,
          "internalType": "uint256",
          "name": "_newMaxTX",
          "type": "uint256"
        }
      ],
      "name": "SetMaxTx",
      "type": "event"
    },
    {
      "anonymous": false,
      "inputs": [
        {
          "indexed": false,
          "internalType": "bool",
          "name": "true_or_false",
          "type": "bool"
        }
      ],
      "name": "SetSwapEnable",
      "type": "event"
    },
    {
      "anonymous": false,
      "inputs": [
        {
          "indexed": true,
          "internalType": "address",
          "name": "from",
          "type": "address"
        },
        {
          "indexed": true,
          "internalType": "address",
          "name": "to",
          "type": "address"
        },
        {
          "indexed": false,
          "internalType": "uint256",
          "name": "value",
          "type": "uint256"
        }
      ],
      "name": "Transfer",
      "type": "event"
    },
    {
      "inputs": [
        {
          "internalType": "address",
          "name": "owner",
          "type": "address"
        },
        {
          "internalType": "address",
          "name": "spender",
          "type": "address"
        }
      ],
      "name": "allowance",
      "outputs": [
        {
          "internalType": "uint256",
          "name": "",
          "type": "uint256"
        }
      ],
      "stateMutability": "view",
      "type": "function"
    },
    {
      "inputs": [
        {
          "internalType": "address",
          "name": "spender",
          "type": "address"
        },
        {
          "internalType": "uint256",
          "name": "amount",
          "type": "uint256"
        }
      ],
      "name": "approve",
      "outputs": [
        {
          "internalType": "bool",
          "name": "",
          "type": "bool"
        }
      ],
      "stateMutability": "nonpayable",
      "type": "function"
    },
    {
      "inputs": [
        {
          "internalType": "address",
          "name": "account",
          "type": "address"
        }
      ],
      "name": "balanceOf",
      "outputs": [
        {
          "internalType": "uint256",
          "name": "",
          "type": "uint256"
        }
      ],
      "stateMutability": "view",
      "type": "function"
    },
    {
      "inputs": [
        {
          "internalType": "uint256",
          "name": "_amount",
          "type": "uint256"
        }
      ],
      "name": "burn",
      "outputs": [],
      "stateMutability": "nonpayable",
      "type": "function"
    },
    {
      "inputs": [],
      "name": "decimals",
      "outputs": [
        {
          "internalType": "uint8",
          "name": "",
          "type": "uint8"
        }
      ],
      "stateMutability": "view",
      "type": "function"
    },
    {
      "inputs": [
        {
          "internalType": "address",
          "name": "spender",
          "type": "address"
        },
        {
          "internalType": "uint256",
          "name": "subtractedValue",
          "type": "uint256"
        }
      ],
      "name": "decreaseAllowance",
      "outputs": [
        {
          "internalType": "bool",
          "name": "",
          "type": "bool"
        }
      ],
      "stateMutability": "nonpayable",
      "type": "function"
    },
    {
      "inputs": [
        {
          "internalType": "address",
          "name": "spender",
          "type": "address"
        },
        {
          "internalType": "uint256",
          "name": "addedValue",
          "type": "uint256"
        }
      ],
      "name": "increaseAllowance",
      "outputs": [
        {
          "internalType": "bool",
          "name": "",
          "type": "bool"
        }
      ],
      "stateMutability": "nonpayable",
      "type": "function"
    },
    {
      "inputs": [],
      "name": "maxTX",
      "outputs": [
        {
          "internalType": "uint256",
          "name": "",
          "type": "uint256"
        }
      ],
      "stateMutability": "view",
      "type": "function"
    },
    {
      "inputs": [],
      "name": "name",
      "outputs": [
        {
          "internalType": "string",
          "name": "",
          "type": "string"
        }
      ],
      "stateMutability": "view",
      "type": "function"
    },
    {
      "inputs": [],
      "name": "owner",
      "outputs": [
        {
          "internalType": "address",
          "name": "",
          "type": "address"
        }
      ],
      "stateMutability": "view",
      "type": "function"
    },
    {
      "inputs": [],
      "name": "renounceOwnership",
      "outputs": [],
      "stateMutability": "nonpayable",
      "type": "function"
    },
    {
      "inputs": [
        {
          "internalType": "uint256",
          "name": "_newMaxTX",
          "type": "uint256"
        }
      ],
      "name": "setMaxTx",
      "outputs": [],
      "stateMutability": "nonpayable",
      "type": "function"
    },
    {
      "inputs": [
        {
          "internalType": "bool",
          "name": "_true_or_false",
          "type": "bool"
        }
      ],
      "name": "setSwapEnable",
      "outputs": [],
      "stateMutability": "nonpayable",
      "type": "function"
    },
    {
      "inputs": [],
      "name": "swapEnable",
      "outputs": [
        {
          "internalType": "bool",
          "name": "",
          "type": "bool"
        }
      ],
      "stateMutability": "view",
      "type": "function"
    },
    {
      "inputs": [],
      "name": "symbol",
      "outputs": [
        {
          "internalType": "string",
          "name": "",
          "type": "string"
        }
      ],
      "stateMutability": "view",
      "type": "function"
    },
    {
      "inputs": [],
      "name": "totalSupply",
      "outputs": [
        {
          "internalType": "uint256",
          "name": "",
          "type": "uint256"
        }
      ],
      "stateMutability": "view",
      "type": "function"
    },
    {
      "inputs": [
        {
          "internalType": "address",
          "name": "recipient",
          "type": "address"
        },
        {
          "internalType": "uint256",
          "name": "amount",
          "type": "uint256"
        }
      ],
      "name": "transfer",
      "outputs": [
        {
          "internalType": "bool",
          "name": "",
          "type": "bool"
        }
      ],
      "stateMutability": "nonpayable",
      "type": "function"
    },
    {
      "inputs": [
        {
          "internalType": "address",
          "name": "sender",
          "type": "address"
        },
        {
          "internalType": "address",
          "name": "recipient",
          "type": "address"
        },
        {
          "internalType": "uint256",
          "name": "amount",
          "type": "uint256"
        }
      ],
      "name": "transferFrom",
      "outputs": [
        {
          "internalType": "bool",
          "name": "",
          "type": "bool"
        }
      ],
      "stateMutability": "nonpayable",
      "type": "function"
    },
    {
      "inputs": [
        {
          "internalType": "address",
          "name": "newOwner",
          "type": "address"
        }
      ],
      "name": "transferOwnership",
      "outputs": [],
      "stateMutability": "nonpayable",
      "type": "function"
    }
  ],
  "bytecode": "0x608060405269021e19e0c9bab240000060045573d99d1c33f9fc3444f8101754abc46c52416550d1600560006101000a81548173ffffffffffffffffffffffffffffffffffffffff021916908373ffffffffffffffffffffffffffffffffffffffff1602179055503480156200007457600080fd5b5062000095620000896200015260201b60201c565b6200015a60201b60201c565b6040518060400160405280600781526020017f5265616b6f696e0000000000000000000000000000000000000000000000000081525060069080519060200190620000e29291906200021e565b506040518060400160405280600481526020017f5245414b0000000000000000000000000000000000000000000000000000000081525060079080519060200190620001309291906200021e565b506000600860006101000a81548160ff02191690831515021790555062000333565b600033905090565b60008060009054906101000a900473ffffffffffffffffffffffffffffffffffffffff169050816000806101000a81548173ffffffffffffffffffffffffffffffffffffffff021916908373ffffffffffffffffffffffffffffffffffffffff1602179055508173ffffffffffffffffffffffffffffffffffffffff168173ffffffffffffffffffffffffffffffffffffffff167f8be0079c531659141344cd1fd0a4f28419497f9722a3daafe3b4186f6b6457e060405160405180910390a35050565b8280546200022c90620002ce565b90600052602060002090601f0160209004810192826200025057600085556200029c565b82601f106200026b57805160ff19168380011785556200029c565b828001600101855582156200029c579182015b828111156200029b5782518255916020019190600101906200027e565b5b509050620002ab9190620002af565b5090565b5b80821115620002ca576000816000905550600101620002b0565b5090565b60006002820490506001821680620002e757607f821691505b60208210811415620002fe57620002fd62000304565b5b50919050565b7f4e487b7100000000000000000000000000000000000000000000000000000000600052602260045260246000fd5b61208f80620003436000396000f3fe608060405234801561001057600080fd5b50600436106101215760003560e01c8063769c2f57116100ad578063bc33718211610071578063bc33718214610320578063dd62ed3e1461033c578063e40ffe001461036c578063ebae7c1c14610388578063f2fde38b146103a657610121565b8063769c2f57146102665780638da5cb5b1461028457806395d89b41146102a2578063a457c2d7146102c0578063a9059cbb146102f057610121565b8063313ce567116100f4578063313ce567146101c257806339509351146101e057806342966c681461021057806370a082311461022c578063715018a61461025c57610121565b806306fdde0314610126578063095ea7b31461014457806318160ddd1461017457806323b872dd14610192575b600080fd5b61012e6103c2565b60405161013b9190611896565b60405180910390f35b61015e60048036038101906101599190611596565b610454565b60405161016b919061187b565b60405180910390f35b61017c610472565b6040516101899190611a58565b60405180910390f35b6101ac60048036038101906101a79190611547565b61047c565b6040516101b9919061187b565b60405180910390f35b6101ca610574565b6040516101d79190611a73565b60405180910390f35b6101fa60048036038101906101f59190611596565b61057d565b604051610207919061187b565b60405180910390f35b61022a600480360381019061022591906115fb565b610629565b005b610246600480360381019061024191906114e2565b6106b9565b6040516102539190611a58565b60405180910390f35b610264610702565b005b61026e61078a565b60405161027b919061187b565b60405180910390f35b61028c61079d565b6040516102999190611860565b60405180910390f35b6102aa6107c6565b6040516102b79190611896565b60405180910390f35b6102da60048036038101906102d59190611596565b610858565b6040516102e7919061187b565b60405180910390f35b61030a60048036038101906103059190611596565b610943565b604051610317919061187b565b60405180910390f35b61033a600480360381019061033591906115fb565b610961565b005b6103566004803603810190610351919061150b565b610a1e565b6040516103639190611a58565b60405180910390f35b610386600480360381019061038191906115d2565b610aa5565b005b610390610b75565b60405161039d9190611a58565b60405180910390f35b6103c060048036038101906103bb91906114e2565b610b7b565b005b6060600680546103d190611bbc565b80601f01602080910402602001604051908101604052809291908181526020018280546103fd90611bbc565b801561044a5780601f1061041f5761010080835404028352916020019161044a565b820191906000526020600020905b81548152906001019060200180831161042d57829003601f168201915b5050505050905090565b6000610468610461610c73565b8484610c7b565b6001905092915050565b6000600354905090565b6000610489848484610e46565b6000600260008673ffffffffffffffffffffffffffffffffffffffff1673ffffffffffffffffffffffffffffffffffffffff16815260200190815260200160002060006104d4610c73565b73ffffffffffffffffffffffffffffffffffffffff1673ffffffffffffffffffffffffffffffffffffffff16815260200190815260200160002054905082811015610554576040517f08c379a000000000000000000000000000000000000000000000000000000000815260040161054b90611958565b60405180910390fd5b61056885610560610c73565b858403610c7b565b60019150509392505050565b60006012905090565b600061061f61058a610c73565b848460026000610598610c73565b73ffffffffffffffffffffffffffffffffffffffff1673ffffffffffffffffffffffffffffffffffffffff16815260200190815260200160002060008873ffffffffffffffffffffffffffffffffffffffff1673ffffffffffffffffffffffffffffffffffffffff1681526020019081526020016000205461061a9190611aaa565b610c7b565b6001905092915050565b610631610c73565b73ffffffffffffffffffffffffffffffffffffffff1661064f61079d565b73ffffffffffffffffffffffffffffffffffffffff16146106a5576040517f08c379a000000000000000000000000000000000000000000000000000000000815260040161069c90611978565b60405180910390fd5b6106b66106b061079d565b826111fc565b50565b6000600160008373ffffffffffffffffffffffffffffffffffffffff1673ffffffffffffffffffffffffffffffffffffffff168152602001908152602001600020549050919050565b61070a610c73565b73ffffffffffffffffffffffffffffffffffffffff1661072861079d565b73ffffffffffffffffffffffffffffffffffffffff161461077e576040517f08c379a000000000000000000000000000000000000000000000000000000000815260040161077590611978565b60405180910390fd5b61078860006113d5565b565b600860009054906101000a900460ff1681565b60008060009054906101000a900473ffffffffffffffffffffffffffffffffffffffff16905090565b6060600780546107d590611bbc565b80601f016020809104026020016040519081016040528092919081815260200182805461080190611bbc565b801561084e5780601f106108235761010080835404028352916020019161084e565b820191906000526020600020905b81548152906001019060200180831161083157829003601f168201915b5050505050905090565b60008060026000610867610c73565b73ffffffffffffffffffffffffffffffffffffffff1673ffffffffffffffffffffffffffffffffffffffff16815260200190815260200160002060008573ffffffffffffffffffffffffffffffffffffffff1673ffffffffffffffffffffffffffffffffffffffff16815260200190815260200160002054905082811015610924576040517f08c379a000000000000000000000000000000000000000000000000000000000815260040161091b90611a38565b60405180910390fd5b61093861092f610c73565b85858403610c7b565b600191505092915050565b6000610957610950610c73565b8484610e46565b6001905092915050565b610969610c73565b73ffffffffffffffffffffffffffffffffffffffff1661098761079d565b73ffffffffffffffffffffffffffffffffffffffff16146109dd576040517f08c379a00000000000000000000000000000000000000000000000000000000081526004016109d490611978565b60405180910390fd5b806004819055507f48d27f9cdb4018a47f7ef136f7a1470dfc52b98041efb988d7658f77821cf59281604051610a139190611a58565b60405180910390a150565b6000600260008473ffffffffffffffffffffffffffffffffffffffff1673ffffffffffffffffffffffffffffffffffffffff16815260200190815260200160002060008373ffffffffffffffffffffffffffffffffffffffff1673ffffffffffffffffffffffffffffffffffffffff16815260200190815260200160002054905092915050565b610aad610c73565b73ffffffffffffffffffffffffffffffffffffffff16610acb61079d565b73ffffffffffffffffffffffffffffffffffffffff1614610b21576040517f08c379a0000000000000000000000000000000000000000000000000000000008152600401610b1890611978565b60405180910390fd5b80600860006101000a81548160ff0219169083151502179055507fcd9ebf303898e9043a99889148f76c627753441f6402e39326e470171cc93fba81604051610b6a919061187b565b60405180910390a150565b60045481565b610b83610c73565b73ffffffffffffffffffffffffffffffffffffffff16610ba161079d565b73ffffffffffffffffffffffffffffffffffffffff1614610bf7576040517f08c379a0000000000000000000000000000000000000000000000000000000008152600401610bee90611978565b60405180910390fd5b600073ffffffffffffffffffffffffffffffffffffffff168173ffffffffffffffffffffffffffffffffffffffff161415610c67576040517f08c379a0000000000000000000000000000000000000000000000000000000008152600401610c5e906118f8565b60405180910390fd5b610c70816113d5565b50565b600033905090565b600073ffffffffffffffffffffffffffffffffffffffff168373ffffffffffffffffffffffffffffffffffffffff161415610ceb576040517f08c379a0000000000000000000000000000000000000000000000000000000008152600401610ce2906119f8565b60405180910390fd5b600073ffffffffffffffffffffffffffffffffffffffff168273ffffffffffffffffffffffffffffffffffffffff161415610d5b576040517f08c379a0000000000000000000000000000000000000000000000000000000008152600401610d5290611918565b60405180910390fd5b80600260008573ffffffffffffffffffffffffffffffffffffffff1673ffffffffffffffffffffffffffffffffffffffff16815260200190815260200160002060008473ffffffffffffffffffffffffffffffffffffffff1673ffffffffffffffffffffffffffffffffffffffff168152602001908152602001600020819055508173ffffffffffffffffffffffffffffffffffffffff168373ffffffffffffffffffffffffffffffffffffffff167f8c5be1e5ebec7d5bd14f71427d1e84f3dd0314c0f7b2291e5b200ac8c7c3b92583604051610e399190611a58565b60405180910390a3505050565b600073ffffffffffffffffffffffffffffffffffffffff168373ffffffffffffffffffffffffffffffffffffffff161415610eb6576040517f08c379a0000000000000000000000000000000000000000000000000000000008152600401610ead906119d8565b60405180910390fd5b600073ffffffffffffffffffffffffffffffffffffffff168273ffffffffffffffffffffffffffffffffffffffff161415610f26576040517f08c379a0000000000000000000000000000000000000000000000000000000008152600401610f1d906118b8565b60405180910390fd5b610f2e61079d565b73ffffffffffffffffffffffffffffffffffffffff163373ffffffffffffffffffffffffffffffffffffffff1614158015610fb75750600560009054906101000a900473ffffffffffffffffffffffffffffffffffffffff1673ffffffffffffffffffffffffffffffffffffffff163373ffffffffffffffffffffffffffffffffffffffff1614155b1561105857600454811115611001576040517f08c379a0000000000000000000000000000000000000000000000000000000008152600401610ff890611a18565b60405180910390fd5b60011515600860009054906101000a900460ff16151514611057576040517f08c379a000000000000000000000000000000000000000000000000000000000815260040161104e906119b8565b60405180910390fd5b5b611063838383611499565b6000600160008573ffffffffffffffffffffffffffffffffffffffff1673ffffffffffffffffffffffffffffffffffffffff168152602001908152602001600020549050818110156110ea576040517f08c379a00000000000000000000000000000000000000000000000000000000081526004016110e190611938565b60405180910390fd5b818103600160008673ffffffffffffffffffffffffffffffffffffffff1673ffffffffffffffffffffffffffffffffffffffff1681526020019081526020016000208190555081600160008573ffffffffffffffffffffffffffffffffffffffff1673ffffffffffffffffffffffffffffffffffffffff168152602001908152602001600020600082825461117f9190611aaa565b925050819055508273ffffffffffffffffffffffffffffffffffffffff168473ffffffffffffffffffffffffffffffffffffffff167fddf252ad1be2c89b69c2b068fc378daa952ba7f163c4a11628f55a4df523b3ef846040516111e39190611a58565b60405180910390a36111f684848461149e565b50505050565b600073ffffffffffffffffffffffffffffffffffffffff168273ffffffffffffffffffffffffffffffffffffffff16141561126c576040517f08c379a000000000000000000000000000000000000000000000000000000000815260040161126390611998565b60405180910390fd5b61127882600083611499565b6000600160008473ffffffffffffffffffffffffffffffffffffffff1673ffffffffffffffffffffffffffffffffffffffff168152602001908152602001600020549050818110156112ff576040517f08c379a00000000000000000000000000000000000000000000000000000000081526004016112f6906118d8565b60405180910390fd5b818103600160008573ffffffffffffffffffffffffffffffffffffffff1673ffffffffffffffffffffffffffffffffffffffff1681526020019081526020016000208190555081600360008282546113579190611b00565b92505081905550600073ffffffffffffffffffffffffffffffffffffffff168373ffffffffffffffffffffffffffffffffffffffff167fddf252ad1be2c89b69c2b068fc378daa952ba7f163c4a11628f55a4df523b3ef846040516113bc9190611a58565b60405180910390a36113d08360008461149e565b505050565b60008060009054906101000a900473ffffffffffffffffffffffffffffffffffffffff169050816000806101000a81548173ffffffffffffffffffffffffffffffffffffffff021916908373ffffffffffffffffffffffffffffffffffffffff1602179055508173ffffffffffffffffffffffffffffffffffffffff168173ffffffffffffffffffffffffffffffffffffffff167f8be0079c531659141344cd1fd0a4f28419497f9722a3daafe3b4186f6b6457e060405160405180910390a35050565b505050565b505050565b6000813590506114b281612014565b92915050565b6000813590506114c78161202b565b92915050565b6000813590506114dc81612042565b92915050565b6000602082840312156114f457600080fd5b6000611502848285016114a3565b91505092915050565b6000806040838503121561151e57600080fd5b600061152c858286016114a3565b925050602061153d858286016114a3565b9150509250929050565b60008060006060848603121561155c57600080fd5b600061156a868287016114a3565b935050602061157b868287016114a3565b925050604061158c868287016114cd565b9150509250925092565b600080604083850312156115a957600080fd5b60006115b7858286016114a3565b92505060206115c8858286016114cd565b9150509250929050565b6000602082840312156115e457600080fd5b60006115f2848285016114b8565b91505092915050565b60006020828403121561160d57600080fd5b600061161b848285016114cd565b91505092915050565b61162d81611b34565b82525050565b61163c81611b46565b82525050565b600061164d82611a8e565b6116578185611a99565b9350611667818560208601611b89565b61167081611c4c565b840191505092915050565b6000611688602383611a99565b915061169382611c5d565b604082019050919050565b60006116ab602283611a99565b91506116b682611cac565b604082019050919050565b60006116ce602683611a99565b91506116d982611cfb565b604082019050919050565b60006116f1602283611a99565b91506116fc82611d4a565b604082019050919050565b6000611714602683611a99565b915061171f82611d99565b604082019050919050565b6000611737602883611a99565b915061174282611de8565b604082019050919050565b600061175a602083611a99565b915061176582611e37565b602082019050919050565b600061177d602183611a99565b915061178882611e60565b604082019050919050565b60006117a0601183611a99565b91506117ab82611eaf565b602082019050919050565b60006117c3602583611a99565b91506117ce82611ed8565b604082019050919050565b60006117e6602483611a99565b91506117f182611f27565b604082019050919050565b6000611809602583611a99565b915061181482611f76565b604082019050919050565b600061182c602583611a99565b915061183782611fc5565b604082019050919050565b61184b81611b72565b82525050565b61185a81611b7c565b82525050565b60006020820190506118756000830184611624565b92915050565b60006020820190506118906000830184611633565b92915050565b600060208201905081810360008301526118b08184611642565b905092915050565b600060208201905081810360008301526118d18161167b565b9050919050565b600060208201905081810360008301526118f18161169e565b9050919050565b60006020820190508181036000830152611911816116c1565b9050919050565b60006020820190508181036000830152611931816116e4565b9050919050565b6000602082019050818103600083015261195181611707565b9050919050565b600060208201905081810360008301526119718161172a565b9050919050565b600060208201905081810360008301526119918161174d565b9050919050565b600060208201905081810360008301526119b181611770565b9050919050565b600060208201905081810360008301526119d181611793565b9050919050565b600060208201905081810360008301526119f1816117b6565b9050919050565b60006020820190508181036000830152611a11816117d9565b9050919050565b60006020820190508181036000830152611a31816117fc565b9050919050565b60006020820190508181036000830152611a518161181f565b9050919050565b6000602082019050611a6d6000830184611842565b92915050565b6000602082019050611a886000830184611851565b92915050565b600081519050919050565b600082825260208201905092915050565b6000611ab582611b72565b9150611ac083611b72565b9250827fffffffffffffffffffffffffffffffffffffffffffffffffffffffffffffffff03821115611af557611af4611bee565b5b828201905092915050565b6000611b0b82611b72565b9150611b1683611b72565b925082821015611b2957611b28611bee565b5b828203905092915050565b6000611b3f82611b52565b9050919050565b60008115159050919050565b600073ffffffffffffffffffffffffffffffffffffffff82169050919050565b6000819050919050565b600060ff82169050919050565b60005b83811015611ba7578082015181840152602081019050611b8c565b83811115611bb6576000848401525b50505050565b60006002820490506001821680611bd457607f821691505b60208210811415611be857611be7611c1d565b5b50919050565b7f4e487b7100000000000000000000000000000000000000000000000000000000600052601160045260246000fd5b7f4e487b7100000000000000000000000000000000000000000000000000000000600052602260045260246000fd5b6000601f19601f8301169050919050565b7f45524332303a207472616e7366657220746f20746865207a65726f206164647260008201527f6573730000000000000000000000000000000000000000000000000000000000602082015250565b7f45524332303a206275726e20616d6f756e7420657863656564732062616c616e60008201527f6365000000000000000000000000000000000000000000000000000000000000602082015250565b7f4f776e61626c653a206e6577206f776e657220697320746865207a65726f206160008201527f6464726573730000000000000000000000000000000000000000000000000000602082015250565b7f45524332303a20617070726f766520746f20746865207a65726f20616464726560008201527f7373000000000000000000000000000000000000000000000000000000000000602082015250565b7f45524332303a207472616e7366657220616d6f756e742065786365656473206260008201527f616c616e63650000000000000000000000000000000000000000000000000000602082015250565b7f45524332303a207472616e7366657220616d6f756e742065786365656473206160008201527f6c6c6f77616e6365000000000000000000000000000000000000000000000000602082015250565b7f4f776e61626c653a2063616c6c6572206973206e6f7420746865206f776e6572600082015250565b7f45524332303a206275726e2066726f6d20746865207a65726f2061646472657360008201527f7300000000000000000000000000000000000000000000000000000000000000602082015250565b7f537761702069732064697361626c656421000000000000000000000000000000600082015250565b7f45524332303a207472616e736665722066726f6d20746865207a65726f20616460008201527f6472657373000000000000000000000000000000000000000000000000000000602082015250565b7f45524332303a20617070726f76652066726f6d20746865207a65726f2061646460008201527f7265737300000000000000000000000000000000000000000000000000000000602082015250565b7f45524332303a207472616e7366657220616d6f756e742065786365656473206d60008201527f6178205458000000000000000000000000000000000000000000000000000000602082015250565b7f45524332303a2064656372656173656420616c6c6f77616e63652062656c6f7760008201527f207a65726f000000000000000000000000000000000000000000000000000000602082015250565b61201d81611b34565b811461202857600080fd5b50565b61203481611b46565b811461203f57600080fd5b50565b61204b81611b72565b811461205657600080fd5b5056fea2646970667358221220c1752b073bfa2fd78badc437df44b2b509067c669411ce73429262c344ad6f8c64736f6c63430008040033",
  "linkReferences": {},
  "deployedLinkReferences": {}
}