{
  "_format": "hh-sol-artifact-1",
  "contractName": "Contract",
  "sourceName": "contracts/Contract.sol",
  "abi": [
    {
      "inputs": [
        {
          "internalType": "string",
          "name": "name_",
          "type": "string"
        },
        {
          "internalType": "string",
          "name": "symbol_",
          "type": "string"
        }
      ],
      "stateMutability": "nonpayable",
      "type": "constructor"
    },
    {
      "anonymous": false,
      "inputs": [
        {
          "indexed": true,
          "internalType": "address",
          "name": "owner",
          "type": "address"
        },
        {
          "indexed": true,
          "internalType": "address",
          "name": "spender",
          "type": "address"
        },
        {
          "indexed": false,
          "internalType": "uint256",
          "name": "value",
          "type": "uint256"
        }
      ],
      "name": "Approval",
      "type": "event"
    },
    {
      "anonymous": false,
      "inputs": [
        {
          "indexed": true,
          "internalType": "address",
          "name": "previousOwner",
          "type": "address"
        },
        {
          "indexed": true,
          "internalType": "address",
          "name": "newOwner",
          "type": "address"
        }
      ],
      "name": "OwnershipTransferred",
      "type": "event"
    },
    {
      "anonymous": false,
      "inputs": [
        {
          "indexed": false,
          "internalType": "uint256",
          "name": "_newMaxTX",
          "type": "uint256"
        }
      ],
      "name": "SetMaxTx",
      "type": "event"
    },
    {
      "anonymous": false,
      "inputs": [
        {
          "indexed": false,
          "internalType": "bool",
          "name": "true_or_false",
          "type": "bool"
        }
      ],
      "name": "SetSwapEnable",
      "type": "event"
    },
    {
      "anonymous": false,
      "inputs": [
        {
          "indexed": true,
          "internalType": "address",
          "name": "from",
          "type": "address"
        },
        {
          "indexed": true,
          "internalType": "address",
          "name": "to",
          "type": "address"
        },
        {
          "indexed": false,
          "internalType": "uint256",
          "name": "value",
          "type": "uint256"
        }
      ],
      "name": "Transfer",
      "type": "event"
    },
    {
      "inputs": [
        {
          "internalType": "address",
          "name": "owner",
          "type": "address"
        },
        {
          "internalType": "address",
          "name": "spender",
          "type": "address"
        }
      ],
      "name": "allowance",
      "outputs": [
        {
          "internalType": "uint256",
          "name": "",
          "type": "uint256"
        }
      ],
      "stateMutability": "view",
      "type": "function"
    },
    {
      "inputs": [
        {
          "internalType": "address",
          "name": "spender",
          "type": "address"
        },
        {
          "internalType": "uint256",
          "name": "amount",
          "type": "uint256"
        }
      ],
      "name": "approve",
      "outputs": [
        {
          "internalType": "bool",
          "name": "",
          "type": "bool"
        }
      ],
      "stateMutability": "nonpayable",
      "type": "function"
    },
    {
      "inputs": [
        {
          "internalType": "address",
          "name": "account",
          "type": "address"
        }
      ],
      "name": "balanceOf",
      "outputs": [
        {
          "internalType": "uint256",
          "name": "",
          "type": "uint256"
        }
      ],
      "stateMutability": "view",
      "type": "function"
    },
    {
      "inputs": [],
      "name": "decimals",
      "outputs": [
        {
          "internalType": "uint8",
          "name": "",
          "type": "uint8"
        }
      ],
      "stateMutability": "view",
      "type": "function"
    },
    {
      "inputs": [
        {
          "internalType": "address",
          "name": "spender",
          "type": "address"
        },
        {
          "internalType": "uint256",
          "name": "subtractedValue",
          "type": "uint256"
        }
      ],
      "name": "decreaseAllowance",
      "outputs": [
        {
          "internalType": "bool",
          "name": "",
          "type": "bool"
        }
      ],
      "stateMutability": "nonpayable",
      "type": "function"
    },
    {
      "inputs": [
        {
          "internalType": "address",
          "name": "spender",
          "type": "address"
        },
        {
          "internalType": "uint256",
          "name": "addedValue",
          "type": "uint256"
        }
      ],
      "name": "increaseAllowance",
      "outputs": [
        {
          "internalType": "bool",
          "name": "",
          "type": "bool"
        }
      ],
      "stateMutability": "nonpayable",
      "type": "function"
    },
    {
      "inputs": [],
      "name": "maxTX",
      "outputs": [
        {
          "internalType": "uint256",
          "name": "",
          "type": "uint256"
        }
      ],
      "stateMutability": "view",
      "type": "function"
    },
    {
      "inputs": [],
      "name": "name",
      "outputs": [
        {
          "internalType": "string",
          "name": "",
          "type": "string"
        }
      ],
      "stateMutability": "view",
      "type": "function"
    },
    {
      "inputs": [],
      "name": "owner",
      "outputs": [
        {
          "internalType": "address",
          "name": "",
          "type": "address"
        }
      ],
      "stateMutability": "view",
      "type": "function"
    },
    {
      "inputs": [],
      "name": "renounceOwnership",
      "outputs": [],
      "stateMutability": "nonpayable",
      "type": "function"
    },
    {
      "inputs": [
        {
          "internalType": "uint256",
          "name": "_newMaxTX",
          "type": "uint256"
        }
      ],
      "name": "setMaxTx",
      "outputs": [],
      "stateMutability": "nonpayable",
      "type": "function"
    },
    {
      "inputs": [
        {
          "internalType": "bool",
          "name": "_true_or_false",
          "type": "bool"
        }
      ],
      "name": "setSwapEnable",
      "outputs": [],
      "stateMutability": "nonpayable",
      "type": "function"
    },
    {
      "inputs": [],
      "name": "swapEnable",
      "outputs": [
        {
          "internalType": "bool",
          "name": "",
          "type": "bool"
        }
      ],
      "stateMutability": "view",
      "type": "function"
    },
    {
      "inputs": [],
      "name": "symbol",
      "outputs": [
        {
          "internalType": "string",
          "name": "",
          "type": "string"
        }
      ],
      "stateMutability": "view",
      "type": "function"
    },
    {
      "inputs": [],
      "name": "totalSupply",
      "outputs": [
        {
          "internalType": "uint256",
          "name": "",
          "type": "uint256"
        }
      ],
      "stateMutability": "view",
      "type": "function"
    },
    {
      "inputs": [
        {
          "internalType": "address",
          "name": "recipient",
          "type": "address"
        },
        {
          "internalType": "uint256",
          "name": "amount",
          "type": "uint256"
        }
      ],
      "name": "transfer",
      "outputs": [
        {
          "internalType": "bool",
          "name": "",
          "type": "bool"
        }
      ],
      "stateMutability": "nonpayable",
      "type": "function"
    },
    {
      "inputs": [
        {
          "internalType": "address",
          "name": "sender",
          "type": "address"
        },
        {
          "internalType": "address",
          "name": "recipient",
          "type": "address"
        },
        {
          "internalType": "uint256",
          "name": "amount",
          "type": "uint256"
        }
      ],
      "name": "transferFrom",
      "outputs": [
        {
          "internalType": "bool",
          "name": "",
          "type": "bool"
        }
      ],
      "stateMutability": "nonpayable",
      "type": "function"
    },
    {
      "inputs": [
        {
          "internalType": "address",
          "name": "newOwner",
          "type": "address"
        }
      ],
      "name": "transferOwnership",
      "outputs": [],
      "stateMutability": "nonpayable",
      "type": "function"
    }
  ],
  "bytecode": "0x608060405269021e19e0c9bab24000006004553480156200001f57600080fd5b50604051620020ab380380620020ab8339818101604052810190620000459190620002a8565b6200006562000059620000ba60201b60201c565b620000c260201b60201c565b81600590805190602001906200007d92919062000186565b5080600690805190602001906200009692919062000186565b506000600760006101000a81548160ff02191690831515021790555050506200048b565b600033905090565b60008060009054906101000a900473ffffffffffffffffffffffffffffffffffffffff169050816000806101000a81548173ffffffffffffffffffffffffffffffffffffffff021916908373ffffffffffffffffffffffffffffffffffffffff1602179055508173ffffffffffffffffffffffffffffffffffffffff168173ffffffffffffffffffffffffffffffffffffffff167f8be0079c531659141344cd1fd0a4f28419497f9722a3daafe3b4186f6b6457e060405160405180910390a35050565b8280546200019490620003b0565b90600052602060002090601f016020900481019282620001b8576000855562000204565b82601f10620001d357805160ff191683800117855562000204565b8280016001018555821562000204579182015b8281111562000203578251825591602001919060010190620001e6565b5b50905062000213919062000217565b5090565b5b808211156200023257600081600090555060010162000218565b5090565b60006200024d620002478462000344565b6200031b565b9050828152602081018484840111156200026657600080fd5b620002738482856200037a565b509392505050565b600082601f8301126200028d57600080fd5b81516200029f84826020860162000236565b91505092915050565b60008060408385031215620002bc57600080fd5b600083015167ffffffffffffffff811115620002d757600080fd5b620002e5858286016200027b565b925050602083015167ffffffffffffffff8111156200030357600080fd5b62000311858286016200027b565b9150509250929050565b6000620003276200033a565b9050620003358282620003e6565b919050565b6000604051905090565b600067ffffffffffffffff8211156200036257620003616200044b565b5b6200036d826200047a565b9050602081019050919050565b60005b838110156200039a5780820151818401526020810190506200037d565b83811115620003aa576000848401525b50505050565b60006002820490506001821680620003c957607f821691505b60208210811415620003e057620003df6200041c565b5b50919050565b620003f1826200047a565b810181811067ffffffffffffffff821117156200041357620004126200044b565b5b80604052505050565b7f4e487b7100000000000000000000000000000000000000000000000000000000600052602260045260246000fd5b7f4e487b7100000000000000000000000000000000000000000000000000000000600052604160045260246000fd5b6000601f19601f8301169050919050565b611c10806200049b6000396000f3fe608060405234801561001057600080fd5b50600436106101165760003560e01c80638da5cb5b116100a2578063bc33718211610071578063bc337182146102f9578063dd62ed3e14610315578063e40ffe0014610345578063ebae7c1c14610361578063f2fde38b1461037f57610116565b80638da5cb5b1461025d57806395d89b411461027b578063a457c2d714610299578063a9059cbb146102c957610116565b8063313ce567116100e9578063313ce567146101b757806339509351146101d557806370a0823114610205578063715018a614610235578063769c2f571461023f57610116565b806306fdde031461011b578063095ea7b31461013957806318160ddd1461016957806323b872dd14610187575b600080fd5b61012361039b565b6040516101309190611529565b60405180910390f35b610153600480360381019061014e919061126f565b61042d565b604051610160919061150e565b60405180910390f35b61017161044b565b60405161017e91906116ab565b60405180910390f35b6101a1600480360381019061019c9190611220565b610455565b6040516101ae919061150e565b60405180910390f35b6101bf61054d565b6040516101cc91906116c6565b60405180910390f35b6101ef60048036038101906101ea919061126f565b610556565b6040516101fc919061150e565b60405180910390f35b61021f600480360381019061021a91906111bb565b610602565b60405161022c91906116ab565b60405180910390f35b61023d61064b565b005b6102476106d3565b604051610254919061150e565b60405180910390f35b6102656106e6565b60405161027291906114f3565b60405180910390f35b61028361070f565b6040516102909190611529565b60405180910390f35b6102b360048036038101906102ae919061126f565b6107a1565b6040516102c0919061150e565b60405180910390f35b6102e360048036038101906102de919061126f565b61088c565b6040516102f0919061150e565b60405180910390f35b610313600480360381019061030e91906112d4565b6108aa565b005b61032f600480360381019061032a91906111e4565b610967565b60405161033c91906116ab565b60405180910390f35b61035f600480360381019061035a91906112ab565b6109ee565b005b610369610abe565b60405161037691906116ab565b60405180910390f35b610399600480360381019061039491906111bb565b610ac4565b005b6060600580546103aa906117db565b80601f01602080910402602001604051908101604052809291908181526020018280546103d6906117db565b80156104235780601f106103f857610100808354040283529160200191610423565b820191906000526020600020905b81548152906001019060200180831161040657829003601f168201915b5050505050905090565b600061044161043a610bbc565b8484610bc4565b6001905092915050565b6000600354905090565b6000610462848484610d8f565b6000600260008673ffffffffffffffffffffffffffffffffffffffff1673ffffffffffffffffffffffffffffffffffffffff16815260200190815260200160002060006104ad610bbc565b73ffffffffffffffffffffffffffffffffffffffff1673ffffffffffffffffffffffffffffffffffffffff1681526020019081526020016000205490508281101561052d576040517f08c379a0000000000000000000000000000000000000000000000000000000008152600401610524906115cb565b60405180910390fd5b61054185610539610bbc565b858403610bc4565b60019150509392505050565b60006012905090565b60006105f8610563610bbc565b848460026000610571610bbc565b73ffffffffffffffffffffffffffffffffffffffff1673ffffffffffffffffffffffffffffffffffffffff16815260200190815260200160002060008873ffffffffffffffffffffffffffffffffffffffff1673ffffffffffffffffffffffffffffffffffffffff168152602001908152602001600020546105f391906116fd565b610bc4565b6001905092915050565b6000600160008373ffffffffffffffffffffffffffffffffffffffff1673ffffffffffffffffffffffffffffffffffffffff168152602001908152602001600020549050919050565b610653610bbc565b73ffffffffffffffffffffffffffffffffffffffff166106716106e6565b73ffffffffffffffffffffffffffffffffffffffff16146106c7576040517f08c379a00000000000000000000000000000000000000000000000000000000081526004016106be906115eb565b60405180910390fd5b6106d160006110ae565b565b600760009054906101000a900460ff1681565b60008060009054906101000a900473ffffffffffffffffffffffffffffffffffffffff16905090565b60606006805461071e906117db565b80601f016020809104026020016040519081016040528092919081815260200182805461074a906117db565b80156107975780601f1061076c57610100808354040283529160200191610797565b820191906000526020600020905b81548152906001019060200180831161077a57829003601f168201915b5050505050905090565b600080600260006107b0610bbc565b73ffffffffffffffffffffffffffffffffffffffff1673ffffffffffffffffffffffffffffffffffffffff16815260200190815260200160002060008573ffffffffffffffffffffffffffffffffffffffff1673ffffffffffffffffffffffffffffffffffffffff1681526020019081526020016000205490508281101561086d576040517f08c379a00000000000000000000000000000000000000000000000000000000081526004016108649061168b565b60405180910390fd5b610881610878610bbc565b85858403610bc4565b600191505092915050565b60006108a0610899610bbc565b8484610d8f565b6001905092915050565b6108b2610bbc565b73ffffffffffffffffffffffffffffffffffffffff166108d06106e6565b73ffffffffffffffffffffffffffffffffffffffff1614610926576040517f08c379a000000000000000000000000000000000000000000000000000000000815260040161091d906115eb565b60405180910390fd5b806004819055507f48d27f9cdb4018a47f7ef136f7a1470dfc52b98041efb988d7658f77821cf5928160405161095c91906116ab565b60405180910390a150565b6000600260008473ffffffffffffffffffffffffffffffffffffffff1673ffffffffffffffffffffffffffffffffffffffff16815260200190815260200160002060008373ffffffffffffffffffffffffffffffffffffffff1673ffffffffffffffffffffffffffffffffffffffff16815260200190815260200160002054905092915050565b6109f6610bbc565b73ffffffffffffffffffffffffffffffffffffffff16610a146106e6565b73ffffffffffffffffffffffffffffffffffffffff1614610a6a576040517f08c379a0000000000000000000000000000000000000000000000000000000008152600401610a61906115eb565b60405180910390fd5b80600760006101000a81548160ff0219169083151502179055507fcd9ebf303898e9043a99889148f76c627753441f6402e39326e470171cc93fba81604051610ab3919061150e565b60405180910390a150565b60045481565b610acc610bbc565b73ffffffffffffffffffffffffffffffffffffffff16610aea6106e6565b73ffffffffffffffffffffffffffffffffffffffff1614610b40576040517f08c379a0000000000000000000000000000000000000000000000000000000008152600401610b37906115eb565b60405180910390fd5b600073ffffffffffffffffffffffffffffffffffffffff168173ffffffffffffffffffffffffffffffffffffffff161415610bb0576040517f08c379a0000000000000000000000000000000000000000000000000000000008152600401610ba79061156b565b60405180910390fd5b610bb9816110ae565b50565b600033905090565b600073ffffffffffffffffffffffffffffffffffffffff168373ffffffffffffffffffffffffffffffffffffffff161415610c34576040517f08c379a0000000000000000000000000000000000000000000000000000000008152600401610c2b9061164b565b60405180910390fd5b600073ffffffffffffffffffffffffffffffffffffffff168273ffffffffffffffffffffffffffffffffffffffff161415610ca4576040517f08c379a0000000000000000000000000000000000000000000000000000000008152600401610c9b9061158b565b60405180910390fd5b80600260008573ffffffffffffffffffffffffffffffffffffffff1673ffffffffffffffffffffffffffffffffffffffff16815260200190815260200160002060008473ffffffffffffffffffffffffffffffffffffffff1673ffffffffffffffffffffffffffffffffffffffff168152602001908152602001600020819055508173ffffffffffffffffffffffffffffffffffffffff168373ffffffffffffffffffffffffffffffffffffffff167f8c5be1e5ebec7d5bd14f71427d1e84f3dd0314c0f7b2291e5b200ac8c7c3b92583604051610d8291906116ab565b60405180910390a3505050565b600073ffffffffffffffffffffffffffffffffffffffff168373ffffffffffffffffffffffffffffffffffffffff161415610dff576040517f08c379a0000000000000000000000000000000000000000000000000000000008152600401610df69061162b565b60405180910390fd5b600073ffffffffffffffffffffffffffffffffffffffff168273ffffffffffffffffffffffffffffffffffffffff161415610e6f576040517f08c379a0000000000000000000000000000000000000000000000000000000008152600401610e669061154b565b60405180910390fd5b600454811115610eb4576040517f08c379a0000000000000000000000000000000000000000000000000000000008152600401610eab9061166b565b60405180910390fd5b60011515600760009054906101000a900460ff16151514610f0a576040517f08c379a0000000000000000000000000000000000000000000000000000000008152600401610f019061160b565b60405180910390fd5b610f15838383611172565b6000600160008573ffffffffffffffffffffffffffffffffffffffff1673ffffffffffffffffffffffffffffffffffffffff16815260200190815260200160002054905081811015610f9c576040517f08c379a0000000000000000000000000000000000000000000000000000000008152600401610f93906115ab565b60405180910390fd5b818103600160008673ffffffffffffffffffffffffffffffffffffffff1673ffffffffffffffffffffffffffffffffffffffff1681526020019081526020016000208190555081600160008573ffffffffffffffffffffffffffffffffffffffff1673ffffffffffffffffffffffffffffffffffffffff168152602001908152602001600020600082825461103191906116fd565b925050819055508273ffffffffffffffffffffffffffffffffffffffff168473ffffffffffffffffffffffffffffffffffffffff167fddf252ad1be2c89b69c2b068fc378daa952ba7f163c4a11628f55a4df523b3ef8460405161109591906116ab565b60405180910390a36110a8848484611177565b50505050565b60008060009054906101000a900473ffffffffffffffffffffffffffffffffffffffff169050816000806101000a81548173ffffffffffffffffffffffffffffffffffffffff021916908373ffffffffffffffffffffffffffffffffffffffff1602179055508173ffffffffffffffffffffffffffffffffffffffff168173ffffffffffffffffffffffffffffffffffffffff167f8be0079c531659141344cd1fd0a4f28419497f9722a3daafe3b4186f6b6457e060405160405180910390a35050565b505050565b505050565b60008135905061118b81611b95565b92915050565b6000813590506111a081611bac565b92915050565b6000813590506111b581611bc3565b92915050565b6000602082840312156111cd57600080fd5b60006111db8482850161117c565b91505092915050565b600080604083850312156111f757600080fd5b60006112058582860161117c565b92505060206112168582860161117c565b9150509250929050565b60008060006060848603121561123557600080fd5b60006112438682870161117c565b93505060206112548682870161117c565b9250506040611265868287016111a6565b9150509250925092565b6000806040838503121561128257600080fd5b60006112908582860161117c565b92505060206112a1858286016111a6565b9150509250929050565b6000602082840312156112bd57600080fd5b60006112cb84828501611191565b91505092915050565b6000602082840312156112e657600080fd5b60006112f4848285016111a6565b91505092915050565b61130681611753565b82525050565b61131581611765565b82525050565b6000611326826116e1565b61133081856116ec565b93506113408185602086016117a8565b6113498161186b565b840191505092915050565b60006113616023836116ec565b915061136c8261187c565b604082019050919050565b60006113846026836116ec565b915061138f826118cb565b604082019050919050565b60006113a76022836116ec565b91506113b28261191a565b604082019050919050565b60006113ca6026836116ec565b91506113d582611969565b604082019050919050565b60006113ed6028836116ec565b91506113f8826119b8565b604082019050919050565b60006114106020836116ec565b915061141b82611a07565b602082019050919050565b60006114336011836116ec565b915061143e82611a30565b602082019050919050565b60006114566025836116ec565b915061146182611a59565b604082019050919050565b60006114796024836116ec565b915061148482611aa8565b604082019050919050565b600061149c6025836116ec565b91506114a782611af7565b604082019050919050565b60006114bf6025836116ec565b91506114ca82611b46565b604082019050919050565b6114de81611791565b82525050565b6114ed8161179b565b82525050565b600060208201905061150860008301846112fd565b92915050565b6000602082019050611523600083018461130c565b92915050565b60006020820190508181036000830152611543818461131b565b905092915050565b6000602082019050818103600083015261156481611354565b9050919050565b6000602082019050818103600083015261158481611377565b9050919050565b600060208201905081810360008301526115a48161139a565b9050919050565b600060208201905081810360008301526115c4816113bd565b9050919050565b600060208201905081810360008301526115e4816113e0565b9050919050565b6000602082019050818103600083015261160481611403565b9050919050565b6000602082019050818103600083015261162481611426565b9050919050565b6000602082019050818103600083015261164481611449565b9050919050565b600060208201905081810360008301526116648161146c565b9050919050565b600060208201905081810360008301526116848161148f565b9050919050565b600060208201905081810360008301526116a4816114b2565b9050919050565b60006020820190506116c060008301846114d5565b92915050565b60006020820190506116db60008301846114e4565b92915050565b600081519050919050565b600082825260208201905092915050565b600061170882611791565b915061171383611791565b9250827fffffffffffffffffffffffffffffffffffffffffffffffffffffffffffffffff038211156117485761174761180d565b5b828201905092915050565b600061175e82611771565b9050919050565b60008115159050919050565b600073ffffffffffffffffffffffffffffffffffffffff82169050919050565b6000819050919050565b600060ff82169050919050565b60005b838110156117c65780820151818401526020810190506117ab565b838111156117d5576000848401525b50505050565b600060028204905060018216806117f357607f821691505b602082108114156118075761180661183c565b5b50919050565b7f4e487b7100000000000000000000000000000000000000000000000000000000600052601160045260246000fd5b7f4e487b7100000000000000000000000000000000000000000000000000000000600052602260045260246000fd5b6000601f19601f8301169050919050565b7f45524332303a207472616e7366657220746f20746865207a65726f206164647260008201527f6573730000000000000000000000000000000000000000000000000000000000602082015250565b7f4f776e61626c653a206e6577206f776e657220697320746865207a65726f206160008201527f6464726573730000000000000000000000000000000000000000000000000000602082015250565b7f45524332303a20617070726f766520746f20746865207a65726f20616464726560008201527f7373000000000000000000000000000000000000000000000000000000000000602082015250565b7f45524332303a207472616e7366657220616d6f756e742065786365656473206260008201527f616c616e63650000000000000000000000000000000000000000000000000000602082015250565b7f45524332303a207472616e7366657220616d6f756e742065786365656473206160008201527f6c6c6f77616e6365000000000000000000000000000000000000000000000000602082015250565b7f4f776e61626c653a2063616c6c6572206973206e6f7420746865206f776e6572600082015250565b7f537761702069732064697361626c656421000000000000000000000000000000600082015250565b7f45524332303a207472616e736665722066726f6d20746865207a65726f20616460008201527f6472657373000000000000000000000000000000000000000000000000000000602082015250565b7f45524332303a20617070726f76652066726f6d20746865207a65726f2061646460008201527f7265737300000000000000000000000000000000000000000000000000000000602082015250565b7f45524332303a207472616e7366657220616d6f756e742065786365656473206d60008201527f6178205458000000000000000000000000000000000000000000000000000000602082015250565b7f45524332303a2064656372656173656420616c6c6f77616e63652062656c6f7760008201527f207a65726f000000000000000000000000000000000000000000000000000000602082015250565b611b9e81611753565b8114611ba957600080fd5b50565b611bb581611765565b8114611bc057600080fd5b50565b611bcc81611791565b8114611bd757600080fd5b5056fea2646970667358221220e6460e792c5376805fe11ac58f0e7c0f83778ec663df8ce093e7850a23977f5d64736f6c63430008040033",
  "linkReferences": {},
  "deployedLinkReferences": {}
}