{
  "_format": "hh-sol-artifact-1",
  "contractName": "Reakoin",
  "sourceName": "contracts/Reakoin.sol",
  "abi": [
    {
      "inputs": [
        {
          "internalType": "string",
          "name": "name",
          "type": "string"
        },
        {
          "internalType": "string",
          "name": "symbols",
          "type": "string"
        }
      ],
      "stateMutability": "nonpayable",
      "type": "constructor"
    },
    {
      "anonymous": false,
      "inputs": [
        {
          "indexed": true,
          "internalType": "address",
          "name": "owner",
          "type": "address"
        },
        {
          "indexed": true,
          "internalType": "address",
          "name": "spender",
          "type": "address"
        },
        {
          "indexed": false,
          "internalType": "uint256",
          "name": "value",
          "type": "uint256"
        }
      ],
      "name": "Approval",
      "type": "event"
    },
    {
      "anonymous": false,
      "inputs": [
        {
          "indexed": true,
          "internalType": "address",
          "name": "previousOwner",
          "type": "address"
        },
        {
          "indexed": true,
          "internalType": "address",
          "name": "newOwner",
          "type": "address"
        }
      ],
      "name": "OwnershipTransferred",
      "type": "event"
    },
    {
      "anonymous": false,
      "inputs": [
        {
          "indexed": false,
          "internalType": "uint256",
          "name": "_newMaxTX",
          "type": "uint256"
        }
      ],
      "name": "SetMaxTx",
      "type": "event"
    },
    {
      "anonymous": false,
      "inputs": [
        {
          "indexed": false,
          "internalType": "bool",
          "name": "true_or_false",
          "type": "bool"
        }
      ],
      "name": "SetSwapEnable",
      "type": "event"
    },
    {
      "anonymous": false,
      "inputs": [
        {
          "indexed": true,
          "internalType": "address",
          "name": "from",
          "type": "address"
        },
        {
          "indexed": true,
          "internalType": "address",
          "name": "to",
          "type": "address"
        },
        {
          "indexed": false,
          "internalType": "uint256",
          "name": "value",
          "type": "uint256"
        }
      ],
      "name": "Transfer",
      "type": "event"
    },
    {
      "inputs": [
        {
          "internalType": "address",
          "name": "owner",
          "type": "address"
        },
        {
          "internalType": "address",
          "name": "spender",
          "type": "address"
        }
      ],
      "name": "allowance",
      "outputs": [
        {
          "internalType": "uint256",
          "name": "",
          "type": "uint256"
        }
      ],
      "stateMutability": "view",
      "type": "function"
    },
    {
      "inputs": [
        {
          "internalType": "address",
          "name": "spender",
          "type": "address"
        },
        {
          "internalType": "uint256",
          "name": "amount",
          "type": "uint256"
        }
      ],
      "name": "approve",
      "outputs": [
        {
          "internalType": "bool",
          "name": "",
          "type": "bool"
        }
      ],
      "stateMutability": "nonpayable",
      "type": "function"
    },
    {
      "inputs": [
        {
          "internalType": "address",
          "name": "account",
          "type": "address"
        }
      ],
      "name": "balanceOf",
      "outputs": [
        {
          "internalType": "uint256",
          "name": "",
          "type": "uint256"
        }
      ],
      "stateMutability": "view",
      "type": "function"
    },
    {
      "inputs": [],
      "name": "decimals",
      "outputs": [
        {
          "internalType": "uint8",
          "name": "",
          "type": "uint8"
        }
      ],
      "stateMutability": "view",
      "type": "function"
    },
    {
      "inputs": [
        {
          "internalType": "address",
          "name": "spender",
          "type": "address"
        },
        {
          "internalType": "uint256",
          "name": "subtractedValue",
          "type": "uint256"
        }
      ],
      "name": "decreaseAllowance",
      "outputs": [
        {
          "internalType": "bool",
          "name": "",
          "type": "bool"
        }
      ],
      "stateMutability": "nonpayable",
      "type": "function"
    },
    {
      "inputs": [
        {
          "internalType": "address",
          "name": "spender",
          "type": "address"
        },
        {
          "internalType": "uint256",
          "name": "addedValue",
          "type": "uint256"
        }
      ],
      "name": "increaseAllowance",
      "outputs": [
        {
          "internalType": "bool",
          "name": "",
          "type": "bool"
        }
      ],
      "stateMutability": "nonpayable",
      "type": "function"
    },
    {
      "inputs": [],
      "name": "maxTX",
      "outputs": [
        {
          "internalType": "uint256",
          "name": "",
          "type": "uint256"
        }
      ],
      "stateMutability": "view",
      "type": "function"
    },
    {
      "inputs": [],
      "name": "name",
      "outputs": [
        {
          "internalType": "string",
          "name": "",
          "type": "string"
        }
      ],
      "stateMutability": "view",
      "type": "function"
    },
    {
      "inputs": [],
      "name": "owner",
      "outputs": [
        {
          "internalType": "address",
          "name": "",
          "type": "address"
        }
      ],
      "stateMutability": "view",
      "type": "function"
    },
    {
      "inputs": [],
      "name": "renounceOwnership",
      "outputs": [],
      "stateMutability": "nonpayable",
      "type": "function"
    },
    {
      "inputs": [
        {
          "internalType": "uint256",
          "name": "_newMaxTX",
          "type": "uint256"
        }
      ],
      "name": "setMaxTx",
      "outputs": [],
      "stateMutability": "nonpayable",
      "type": "function"
    },
    {
      "inputs": [
        {
          "internalType": "bool",
          "name": "_true_or_false",
          "type": "bool"
        }
      ],
      "name": "setSwapEnable",
      "outputs": [],
      "stateMutability": "nonpayable",
      "type": "function"
    },
    {
      "inputs": [],
      "name": "supply",
      "outputs": [
        {
          "internalType": "uint256",
          "name": "",
          "type": "uint256"
        }
      ],
      "stateMutability": "view",
      "type": "function"
    },
    {
      "inputs": [],
      "name": "swapEnable",
      "outputs": [
        {
          "internalType": "bool",
          "name": "",
          "type": "bool"
        }
      ],
      "stateMutability": "view",
      "type": "function"
    },
    {
      "inputs": [],
      "name": "symbol",
      "outputs": [
        {
          "internalType": "string",
          "name": "",
          "type": "string"
        }
      ],
      "stateMutability": "view",
      "type": "function"
    },
    {
      "inputs": [],
      "name": "totalSupply",
      "outputs": [
        {
          "internalType": "uint256",
          "name": "",
          "type": "uint256"
        }
      ],
      "stateMutability": "view",
      "type": "function"
    },
    {
      "inputs": [
        {
          "internalType": "address",
          "name": "recipient",
          "type": "address"
        },
        {
          "internalType": "uint256",
          "name": "amount",
          "type": "uint256"
        }
      ],
      "name": "transfer",
      "outputs": [
        {
          "internalType": "bool",
          "name": "",
          "type": "bool"
        }
      ],
      "stateMutability": "nonpayable",
      "type": "function"
    },
    {
      "inputs": [
        {
          "internalType": "address",
          "name": "sender",
          "type": "address"
        },
        {
          "internalType": "address",
          "name": "recipient",
          "type": "address"
        },
        {
          "internalType": "uint256",
          "name": "amount",
          "type": "uint256"
        }
      ],
      "name": "transferFrom",
      "outputs": [
        {
          "internalType": "bool",
          "name": "",
          "type": "bool"
        }
      ],
      "stateMutability": "nonpayable",
      "type": "function"
    },
    {
      "inputs": [
        {
          "internalType": "address",
          "name": "newOwner",
          "type": "address"
        }
      ],
      "name": "transferOwnership",
      "outputs": [],
      "stateMutability": "nonpayable",
      "type": "function"
    }
  ],
  "bytecode": "0x608060405269021e19e0c9bab24000006004556a295be96e640669720000006009553480156200002e57600080fd5b50604051620023cc380380620023cc833981810160405281019062000054919062000453565b8181620000766200006a620000e160201b60201c565b620000e960201b60201c565b81600590805190602001906200008e92919062000331565b508060069080519060200190620000a792919062000331565b506000600760006101000a81548160ff0219169083151502179055505050620000d933600954620001ad60201b60201c565b50506200077d565b600033905090565b60008060009054906101000a900473ffffffffffffffffffffffffffffffffffffffff169050816000806101000a81548173ffffffffffffffffffffffffffffffffffffffff021916908373ffffffffffffffffffffffffffffffffffffffff1602179055508173ffffffffffffffffffffffffffffffffffffffff168173ffffffffffffffffffffffffffffffffffffffff167f8be0079c531659141344cd1fd0a4f28419497f9722a3daafe3b4186f6b6457e060405160405180910390a35050565b600073ffffffffffffffffffffffffffffffffffffffff168273ffffffffffffffffffffffffffffffffffffffff16141562000220576040517f08c379a00000000000000000000000000000000000000000000000000000000081526004016200021790620004fe565b60405180910390fd5b62000234600083836200032760201b60201c565b8060036000828254620002489190620005ad565b9250508190555080600160008473ffffffffffffffffffffffffffffffffffffffff1673ffffffffffffffffffffffffffffffffffffffff1681526020019081526020016000206000828254620002a09190620005ad565b925050819055508173ffffffffffffffffffffffffffffffffffffffff16600073ffffffffffffffffffffffffffffffffffffffff167fddf252ad1be2c89b69c2b068fc378daa952ba7f163c4a11628f55a4df523b3ef8360405162000307919062000520565b60405180910390a362000323600083836200032c60201b60201c565b5050565b505050565b505050565b8280546200033f906200064a565b90600052602060002090601f016020900481019282620003635760008555620003af565b82601f106200037e57805160ff1916838001178555620003af565b82800160010185558215620003af579182015b82811115620003ae57825182559160200191906001019062000391565b5b509050620003be9190620003c2565b5090565b5b80821115620003dd576000816000905550600101620003c3565b5090565b6000620003f8620003f28462000566565b6200053d565b9050828152602081018484840111156200041157600080fd5b6200041e84828562000614565b509392505050565b600082601f8301126200043857600080fd5b81516200044a848260208601620003e1565b91505092915050565b600080604083850312156200046757600080fd5b600083015167ffffffffffffffff8111156200048257600080fd5b620004908582860162000426565b925050602083015167ffffffffffffffff811115620004ae57600080fd5b620004bc8582860162000426565b9150509250929050565b6000620004d5601f836200059c565b9150620004e28262000754565b602082019050919050565b620004f8816200060a565b82525050565b600060208201905081810360008301526200051981620004c6565b9050919050565b6000602082019050620005376000830184620004ed565b92915050565b6000620005496200055c565b905062000557828262000680565b919050565b6000604051905090565b600067ffffffffffffffff82111562000584576200058362000714565b5b6200058f8262000743565b9050602081019050919050565b600082825260208201905092915050565b6000620005ba826200060a565b9150620005c7836200060a565b9250827fffffffffffffffffffffffffffffffffffffffffffffffffffffffffffffffff03821115620005ff57620005fe620006b6565b5b828201905092915050565b6000819050919050565b60005b838110156200063457808201518184015260208101905062000617565b8381111562000644576000848401525b50505050565b600060028204905060018216806200066357607f821691505b602082108114156200067a5762000679620006e5565b5b50919050565b6200068b8262000743565b810181811067ffffffffffffffff82111715620006ad57620006ac62000714565b5b80604052505050565b7f4e487b7100000000000000000000000000000000000000000000000000000000600052601160045260246000fd5b7f4e487b7100000000000000000000000000000000000000000000000000000000600052602260045260246000fd5b7f4e487b7100000000000000000000000000000000000000000000000000000000600052604160045260246000fd5b6000601f19601f8301169050919050565b7f45524332303a206d696e7420746f20746865207a65726f206164647265737300600082015250565b611c3f806200078d6000396000f3fe608060405234801561001057600080fd5b50600436106101215760003560e01c8063769c2f57116100ad578063bc33718211610071578063bc33718214610322578063dd62ed3e1461033e578063e40ffe001461036e578063ebae7c1c1461038a578063f2fde38b146103a857610121565b8063769c2f57146102685780638da5cb5b1461028657806395d89b41146102a4578063a457c2d7146102c2578063a9059cbb146102f257610121565b806323b872dd116100f457806323b872dd146101b0578063313ce567146101e057806339509351146101fe57806370a082311461022e578063715018a61461025e57610121565b8063047fc9aa1461012657806306fdde0314610144578063095ea7b31461016257806318160ddd14610192575b600080fd5b61012e6103c4565b60405161013b91906116da565b60405180910390f35b61014c6103ca565b6040516101599190611558565b60405180910390f35b61017c6004803603810190610177919061129e565b61045c565b604051610189919061153d565b60405180910390f35b61019a61047a565b6040516101a791906116da565b60405180910390f35b6101ca60048036038101906101c5919061124f565b610484565b6040516101d7919061153d565b60405180910390f35b6101e861057c565b6040516101f591906116f5565b60405180910390f35b6102186004803603810190610213919061129e565b610585565b604051610225919061153d565b60405180910390f35b610248600480360381019061024391906111ea565b610631565b60405161025591906116da565b60405180910390f35b61026661067a565b005b610270610702565b60405161027d919061153d565b60405180910390f35b61028e610715565b60405161029b9190611522565b60405180910390f35b6102ac61073e565b6040516102b99190611558565b60405180910390f35b6102dc60048036038101906102d7919061129e565b6107d0565b6040516102e9919061153d565b60405180910390f35b61030c6004803603810190610307919061129e565b6108bb565b604051610319919061153d565b60405180910390f35b61033c60048036038101906103379190611303565b6108d9565b005b61035860048036038101906103539190611213565b610996565b60405161036591906116da565b60405180910390f35b610388600480360381019061038391906112da565b610a1d565b005b610392610aed565b60405161039f91906116da565b60405180910390f35b6103c260048036038101906103bd91906111ea565b610af3565b005b60095481565b6060600580546103d99061180a565b80601f01602080910402602001604051908101604052809291908181526020018280546104059061180a565b80156104525780601f1061042757610100808354040283529160200191610452565b820191906000526020600020905b81548152906001019060200180831161043557829003601f168201915b5050505050905090565b6000610470610469610beb565b8484610bf3565b6001905092915050565b6000600354905090565b6000610491848484610dbe565b6000600260008673ffffffffffffffffffffffffffffffffffffffff1673ffffffffffffffffffffffffffffffffffffffff16815260200190815260200160002060006104dc610beb565b73ffffffffffffffffffffffffffffffffffffffff1673ffffffffffffffffffffffffffffffffffffffff1681526020019081526020016000205490508281101561055c576040517f08c379a0000000000000000000000000000000000000000000000000000000008152600401610553906115fa565b60405180910390fd5b61057085610568610beb565b858403610bf3565b60019150509392505050565b60006012905090565b6000610627610592610beb565b8484600260006105a0610beb565b73ffffffffffffffffffffffffffffffffffffffff1673ffffffffffffffffffffffffffffffffffffffff16815260200190815260200160002060008873ffffffffffffffffffffffffffffffffffffffff1673ffffffffffffffffffffffffffffffffffffffff16815260200190815260200160002054610622919061172c565b610bf3565b6001905092915050565b6000600160008373ffffffffffffffffffffffffffffffffffffffff1673ffffffffffffffffffffffffffffffffffffffff168152602001908152602001600020549050919050565b610682610beb565b73ffffffffffffffffffffffffffffffffffffffff166106a0610715565b73ffffffffffffffffffffffffffffffffffffffff16146106f6576040517f08c379a00000000000000000000000000000000000000000000000000000000081526004016106ed9061161a565b60405180910390fd5b61070060006110dd565b565b600760009054906101000a900460ff1681565b60008060009054906101000a900473ffffffffffffffffffffffffffffffffffffffff16905090565b60606006805461074d9061180a565b80601f01602080910402602001604051908101604052809291908181526020018280546107799061180a565b80156107c65780601f1061079b576101008083540402835291602001916107c6565b820191906000526020600020905b8154815290600101906020018083116107a957829003601f168201915b5050505050905090565b600080600260006107df610beb565b73ffffffffffffffffffffffffffffffffffffffff1673ffffffffffffffffffffffffffffffffffffffff16815260200190815260200160002060008573ffffffffffffffffffffffffffffffffffffffff1673ffffffffffffffffffffffffffffffffffffffff1681526020019081526020016000205490508281101561089c576040517f08c379a0000000000000000000000000000000000000000000000000000000008152600401610893906116ba565b60405180910390fd5b6108b06108a7610beb565b85858403610bf3565b600191505092915050565b60006108cf6108c8610beb565b8484610dbe565b6001905092915050565b6108e1610beb565b73ffffffffffffffffffffffffffffffffffffffff166108ff610715565b73ffffffffffffffffffffffffffffffffffffffff1614610955576040517f08c379a000000000000000000000000000000000000000000000000000000000815260040161094c9061161a565b60405180910390fd5b806004819055507f48d27f9cdb4018a47f7ef136f7a1470dfc52b98041efb988d7658f77821cf5928160405161098b91906116da565b60405180910390a150565b6000600260008473ffffffffffffffffffffffffffffffffffffffff1673ffffffffffffffffffffffffffffffffffffffff16815260200190815260200160002060008373ffffffffffffffffffffffffffffffffffffffff1673ffffffffffffffffffffffffffffffffffffffff16815260200190815260200160002054905092915050565b610a25610beb565b73ffffffffffffffffffffffffffffffffffffffff16610a43610715565b73ffffffffffffffffffffffffffffffffffffffff1614610a99576040517f08c379a0000000000000000000000000000000000000000000000000000000008152600401610a909061161a565b60405180910390fd5b80600760006101000a81548160ff0219169083151502179055507fcd9ebf303898e9043a99889148f76c627753441f6402e39326e470171cc93fba81604051610ae2919061153d565b60405180910390a150565b60045481565b610afb610beb565b73ffffffffffffffffffffffffffffffffffffffff16610b19610715565b73ffffffffffffffffffffffffffffffffffffffff1614610b6f576040517f08c379a0000000000000000000000000000000000000000000000000000000008152600401610b669061161a565b60405180910390fd5b600073ffffffffffffffffffffffffffffffffffffffff168173ffffffffffffffffffffffffffffffffffffffff161415610bdf576040517f08c379a0000000000000000000000000000000000000000000000000000000008152600401610bd69061159a565b60405180910390fd5b610be8816110dd565b50565b600033905090565b600073ffffffffffffffffffffffffffffffffffffffff168373ffffffffffffffffffffffffffffffffffffffff161415610c63576040517f08c379a0000000000000000000000000000000000000000000000000000000008152600401610c5a9061167a565b60405180910390fd5b600073ffffffffffffffffffffffffffffffffffffffff168273ffffffffffffffffffffffffffffffffffffffff161415610cd3576040517f08c379a0000000000000000000000000000000000000000000000000000000008152600401610cca906115ba565b60405180910390fd5b80600260008573ffffffffffffffffffffffffffffffffffffffff1673ffffffffffffffffffffffffffffffffffffffff16815260200190815260200160002060008473ffffffffffffffffffffffffffffffffffffffff1673ffffffffffffffffffffffffffffffffffffffff168152602001908152602001600020819055508173ffffffffffffffffffffffffffffffffffffffff168373ffffffffffffffffffffffffffffffffffffffff167f8c5be1e5ebec7d5bd14f71427d1e84f3dd0314c0f7b2291e5b200ac8c7c3b92583604051610db191906116da565b60405180910390a3505050565b600073ffffffffffffffffffffffffffffffffffffffff168373ffffffffffffffffffffffffffffffffffffffff161415610e2e576040517f08c379a0000000000000000000000000000000000000000000000000000000008152600401610e259061165a565b60405180910390fd5b600073ffffffffffffffffffffffffffffffffffffffff168273ffffffffffffffffffffffffffffffffffffffff161415610e9e576040517f08c379a0000000000000000000000000000000000000000000000000000000008152600401610e959061157a565b60405180910390fd5b600454811115610ee3576040517f08c379a0000000000000000000000000000000000000000000000000000000008152600401610eda9061169a565b60405180910390fd5b60011515600760009054906101000a900460ff16151514610f39576040517f08c379a0000000000000000000000000000000000000000000000000000000008152600401610f309061163a565b60405180910390fd5b610f448383836111a1565b6000600160008573ffffffffffffffffffffffffffffffffffffffff1673ffffffffffffffffffffffffffffffffffffffff16815260200190815260200160002054905081811015610fcb576040517f08c379a0000000000000000000000000000000000000000000000000000000008152600401610fc2906115da565b60405180910390fd5b818103600160008673ffffffffffffffffffffffffffffffffffffffff1673ffffffffffffffffffffffffffffffffffffffff1681526020019081526020016000208190555081600160008573ffffffffffffffffffffffffffffffffffffffff1673ffffffffffffffffffffffffffffffffffffffff1681526020019081526020016000206000828254611060919061172c565b925050819055508273ffffffffffffffffffffffffffffffffffffffff168473ffffffffffffffffffffffffffffffffffffffff167fddf252ad1be2c89b69c2b068fc378daa952ba7f163c4a11628f55a4df523b3ef846040516110c491906116da565b60405180910390a36110d78484846111a6565b50505050565b60008060009054906101000a900473ffffffffffffffffffffffffffffffffffffffff169050816000806101000a81548173ffffffffffffffffffffffffffffffffffffffff021916908373ffffffffffffffffffffffffffffffffffffffff1602179055508173ffffffffffffffffffffffffffffffffffffffff168173ffffffffffffffffffffffffffffffffffffffff167f8be0079c531659141344cd1fd0a4f28419497f9722a3daafe3b4186f6b6457e060405160405180910390a35050565b505050565b505050565b6000813590506111ba81611bc4565b92915050565b6000813590506111cf81611bdb565b92915050565b6000813590506111e481611bf2565b92915050565b6000602082840312156111fc57600080fd5b600061120a848285016111ab565b91505092915050565b6000806040838503121561122657600080fd5b6000611234858286016111ab565b9250506020611245858286016111ab565b9150509250929050565b60008060006060848603121561126457600080fd5b6000611272868287016111ab565b9350506020611283868287016111ab565b9250506040611294868287016111d5565b9150509250925092565b600080604083850312156112b157600080fd5b60006112bf858286016111ab565b92505060206112d0858286016111d5565b9150509250929050565b6000602082840312156112ec57600080fd5b60006112fa848285016111c0565b91505092915050565b60006020828403121561131557600080fd5b6000611323848285016111d5565b91505092915050565b61133581611782565b82525050565b61134481611794565b82525050565b600061135582611710565b61135f818561171b565b935061136f8185602086016117d7565b6113788161189a565b840191505092915050565b600061139060238361171b565b915061139b826118ab565b604082019050919050565b60006113b360268361171b565b91506113be826118fa565b604082019050919050565b60006113d660228361171b565b91506113e182611949565b604082019050919050565b60006113f960268361171b565b915061140482611998565b604082019050919050565b600061141c60288361171b565b9150611427826119e7565b604082019050919050565b600061143f60208361171b565b915061144a82611a36565b602082019050919050565b600061146260118361171b565b915061146d82611a5f565b602082019050919050565b600061148560258361171b565b915061149082611a88565b604082019050919050565b60006114a860248361171b565b91506114b382611ad7565b604082019050919050565b60006114cb60258361171b565b91506114d682611b26565b604082019050919050565b60006114ee60258361171b565b91506114f982611b75565b604082019050919050565b61150d816117c0565b82525050565b61151c816117ca565b82525050565b6000602082019050611537600083018461132c565b92915050565b6000602082019050611552600083018461133b565b92915050565b60006020820190508181036000830152611572818461134a565b905092915050565b6000602082019050818103600083015261159381611383565b9050919050565b600060208201905081810360008301526115b3816113a6565b9050919050565b600060208201905081810360008301526115d3816113c9565b9050919050565b600060208201905081810360008301526115f3816113ec565b9050919050565b600060208201905081810360008301526116138161140f565b9050919050565b6000602082019050818103600083015261163381611432565b9050919050565b6000602082019050818103600083015261165381611455565b9050919050565b6000602082019050818103600083015261167381611478565b9050919050565b600060208201905081810360008301526116938161149b565b9050919050565b600060208201905081810360008301526116b3816114be565b9050919050565b600060208201905081810360008301526116d3816114e1565b9050919050565b60006020820190506116ef6000830184611504565b92915050565b600060208201905061170a6000830184611513565b92915050565b600081519050919050565b600082825260208201905092915050565b6000611737826117c0565b9150611742836117c0565b9250827fffffffffffffffffffffffffffffffffffffffffffffffffffffffffffffffff038211156117775761177661183c565b5b828201905092915050565b600061178d826117a0565b9050919050565b60008115159050919050565b600073ffffffffffffffffffffffffffffffffffffffff82169050919050565b6000819050919050565b600060ff82169050919050565b60005b838110156117f55780820151818401526020810190506117da565b83811115611804576000848401525b50505050565b6000600282049050600182168061182257607f821691505b602082108114156118365761183561186b565b5b50919050565b7f4e487b7100000000000000000000000000000000000000000000000000000000600052601160045260246000fd5b7f4e487b7100000000000000000000000000000000000000000000000000000000600052602260045260246000fd5b6000601f19601f8301169050919050565b7f45524332303a207472616e7366657220746f20746865207a65726f206164647260008201527f6573730000000000000000000000000000000000000000000000000000000000602082015250565b7f4f776e61626c653a206e6577206f776e657220697320746865207a65726f206160008201527f6464726573730000000000000000000000000000000000000000000000000000602082015250565b7f45524332303a20617070726f766520746f20746865207a65726f20616464726560008201527f7373000000000000000000000000000000000000000000000000000000000000602082015250565b7f45524332303a207472616e7366657220616d6f756e742065786365656473206260008201527f616c616e63650000000000000000000000000000000000000000000000000000602082015250565b7f45524332303a207472616e7366657220616d6f756e742065786365656473206160008201527f6c6c6f77616e6365000000000000000000000000000000000000000000000000602082015250565b7f4f776e61626c653a2063616c6c6572206973206e6f7420746865206f776e6572600082015250565b7f537761702069732064697361626c656421000000000000000000000000000000600082015250565b7f45524332303a207472616e736665722066726f6d20746865207a65726f20616460008201527f6472657373000000000000000000000000000000000000000000000000000000602082015250565b7f45524332303a20617070726f76652066726f6d20746865207a65726f2061646460008201527f7265737300000000000000000000000000000000000000000000000000000000602082015250565b7f45524332303a207472616e7366657220616d6f756e742065786365656473206d60008201527f6178205458000000000000000000000000000000000000000000000000000000602082015250565b7f45524332303a2064656372656173656420616c6c6f77616e63652062656c6f7760008201527f207a65726f000000000000000000000000000000000000000000000000000000602082015250565b611bcd81611782565b8114611bd857600080fd5b50565b611be481611794565b8114611bef57600080fd5b50565b611bfb816117c0565b8114611c0657600080fd5b5056fea264697066735822122091c01795d2bdfbaa488bdd37a67092f7692078ded6dd19d23585d2a380bbd1d864736f6c63430008040033",
  "linkReferences": {},
  "deployedLinkReferences": {}
}