{
  "_format": "hh-sol-artifact-1",
  "contractName": "Reakoin",
  "sourceName": "contracts/Reakoin.sol",
  "abi": [
    {
      "inputs": [
        {
          "internalType": "string",
          "name": "name",
          "type": "string"
        },
        {
          "internalType": "string",
          "name": "symbols",
          "type": "string"
        }
      ],
      "stateMutability": "nonpayable",
      "type": "constructor"
    },
    {
      "anonymous": false,
      "inputs": [
        {
          "indexed": true,
          "internalType": "address",
          "name": "owner",
          "type": "address"
        },
        {
          "indexed": true,
          "internalType": "address",
          "name": "spender",
          "type": "address"
        },
        {
          "indexed": false,
          "internalType": "uint256",
          "name": "value",
          "type": "uint256"
        }
      ],
      "name": "Approval",
      "type": "event"
    },
    {
      "anonymous": false,
      "inputs": [
        {
          "indexed": true,
          "internalType": "address",
          "name": "previousOwner",
          "type": "address"
        },
        {
          "indexed": true,
          "internalType": "address",
          "name": "newOwner",
          "type": "address"
        }
      ],
      "name": "OwnershipTransferred",
      "type": "event"
    },
    {
      "anonymous": false,
      "inputs": [
        {
          "indexed": false,
          "internalType": "uint256",
          "name": "_newMaxTX",
          "type": "uint256"
        }
      ],
      "name": "SetMaxTx",
      "type": "event"
    },
    {
      "anonymous": false,
      "inputs": [
        {
          "indexed": false,
          "internalType": "bool",
          "name": "true_or_false",
          "type": "bool"
        }
      ],
      "name": "SetSwapEnable",
      "type": "event"
    },
    {
      "anonymous": false,
      "inputs": [
        {
          "indexed": true,
          "internalType": "address",
          "name": "from",
          "type": "address"
        },
        {
          "indexed": true,
          "internalType": "address",
          "name": "to",
          "type": "address"
        },
        {
          "indexed": false,
          "internalType": "uint256",
          "name": "value",
          "type": "uint256"
        }
      ],
      "name": "Transfer",
      "type": "event"
    },
    {
      "inputs": [
        {
          "internalType": "address",
          "name": "owner",
          "type": "address"
        },
        {
          "internalType": "address",
          "name": "spender",
          "type": "address"
        }
      ],
      "name": "allowance",
      "outputs": [
        {
          "internalType": "uint256",
          "name": "",
          "type": "uint256"
        }
      ],
      "stateMutability": "view",
      "type": "function"
    },
    {
      "inputs": [
        {
          "internalType": "address",
          "name": "spender",
          "type": "address"
        },
        {
          "internalType": "uint256",
          "name": "amount",
          "type": "uint256"
        }
      ],
      "name": "approve",
      "outputs": [
        {
          "internalType": "bool",
          "name": "",
          "type": "bool"
        }
      ],
      "stateMutability": "nonpayable",
      "type": "function"
    },
    {
      "inputs": [
        {
          "internalType": "address",
          "name": "account",
          "type": "address"
        }
      ],
      "name": "balanceOf",
      "outputs": [
        {
          "internalType": "uint256",
          "name": "",
          "type": "uint256"
        }
      ],
      "stateMutability": "view",
      "type": "function"
    },
    {
      "inputs": [
        {
          "internalType": "uint256",
          "name": "_amount",
          "type": "uint256"
        }
      ],
      "name": "burn",
      "outputs": [],
      "stateMutability": "nonpayable",
      "type": "function"
    },
    {
      "inputs": [],
      "name": "decimals",
      "outputs": [
        {
          "internalType": "uint8",
          "name": "",
          "type": "uint8"
        }
      ],
      "stateMutability": "view",
      "type": "function"
    },
    {
      "inputs": [
        {
          "internalType": "address",
          "name": "spender",
          "type": "address"
        },
        {
          "internalType": "uint256",
          "name": "subtractedValue",
          "type": "uint256"
        }
      ],
      "name": "decreaseAllowance",
      "outputs": [
        {
          "internalType": "bool",
          "name": "",
          "type": "bool"
        }
      ],
      "stateMutability": "nonpayable",
      "type": "function"
    },
    {
      "inputs": [
        {
          "internalType": "address",
          "name": "spender",
          "type": "address"
        },
        {
          "internalType": "uint256",
          "name": "addedValue",
          "type": "uint256"
        }
      ],
      "name": "increaseAllowance",
      "outputs": [
        {
          "internalType": "bool",
          "name": "",
          "type": "bool"
        }
      ],
      "stateMutability": "nonpayable",
      "type": "function"
    },
    {
      "inputs": [],
      "name": "maxTX",
      "outputs": [
        {
          "internalType": "uint256",
          "name": "",
          "type": "uint256"
        }
      ],
      "stateMutability": "view",
      "type": "function"
    },
    {
      "inputs": [],
      "name": "name",
      "outputs": [
        {
          "internalType": "string",
          "name": "",
          "type": "string"
        }
      ],
      "stateMutability": "view",
      "type": "function"
    },
    {
      "inputs": [],
      "name": "owner",
      "outputs": [
        {
          "internalType": "address",
          "name": "",
          "type": "address"
        }
      ],
      "stateMutability": "view",
      "type": "function"
    },
    {
      "inputs": [],
      "name": "renounceOwnership",
      "outputs": [],
      "stateMutability": "nonpayable",
      "type": "function"
    },
    {
      "inputs": [
        {
          "internalType": "uint256",
          "name": "_newMaxTX",
          "type": "uint256"
        }
      ],
      "name": "setMaxTx",
      "outputs": [],
      "stateMutability": "nonpayable",
      "type": "function"
    },
    {
      "inputs": [
        {
          "internalType": "bool",
          "name": "_true_or_false",
          "type": "bool"
        }
      ],
      "name": "setSwapEnable",
      "outputs": [],
      "stateMutability": "nonpayable",
      "type": "function"
    },
    {
      "inputs": [],
      "name": "supply",
      "outputs": [
        {
          "internalType": "uint256",
          "name": "",
          "type": "uint256"
        }
      ],
      "stateMutability": "view",
      "type": "function"
    },
    {
      "inputs": [],
      "name": "swapEnable",
      "outputs": [
        {
          "internalType": "bool",
          "name": "",
          "type": "bool"
        }
      ],
      "stateMutability": "view",
      "type": "function"
    },
    {
      "inputs": [],
      "name": "symbol",
      "outputs": [
        {
          "internalType": "string",
          "name": "",
          "type": "string"
        }
      ],
      "stateMutability": "view",
      "type": "function"
    },
    {
      "inputs": [],
      "name": "totalSupply",
      "outputs": [
        {
          "internalType": "uint256",
          "name": "",
          "type": "uint256"
        }
      ],
      "stateMutability": "view",
      "type": "function"
    },
    {
      "inputs": [
        {
          "internalType": "address",
          "name": "recipient",
          "type": "address"
        },
        {
          "internalType": "uint256",
          "name": "amount",
          "type": "uint256"
        }
      ],
      "name": "transfer",
      "outputs": [
        {
          "internalType": "bool",
          "name": "",
          "type": "bool"
        }
      ],
      "stateMutability": "nonpayable",
      "type": "function"
    },
    {
      "inputs": [
        {
          "internalType": "address",
          "name": "sender",
          "type": "address"
        },
        {
          "internalType": "address",
          "name": "recipient",
          "type": "address"
        },
        {
          "internalType": "uint256",
          "name": "amount",
          "type": "uint256"
        }
      ],
      "name": "transferFrom",
      "outputs": [
        {
          "internalType": "bool",
          "name": "",
          "type": "bool"
        }
      ],
      "stateMutability": "nonpayable",
      "type": "function"
    },
    {
      "inputs": [
        {
          "internalType": "address",
          "name": "newOwner",
          "type": "address"
        }
      ],
      "name": "transferOwnership",
      "outputs": [],
      "stateMutability": "nonpayable",
      "type": "function"
    }
  ],
  "bytecode": "0x608060405269021e19e0c9bab24000006004556a295be96e640669720000006009553480156200002e57600080fd5b50604051620027ef380380620027ef833981810160405281019062000054919062000453565b8181620000766200006a620000e160201b60201c565b620000e960201b60201c565b81600590805190602001906200008e92919062000331565b508060069080519060200190620000a792919062000331565b506000600760006101000a81548160ff0219169083151502179055505050620000d933600954620001ad60201b60201c565b50506200077d565b600033905090565b60008060009054906101000a900473ffffffffffffffffffffffffffffffffffffffff169050816000806101000a81548173ffffffffffffffffffffffffffffffffffffffff021916908373ffffffffffffffffffffffffffffffffffffffff1602179055508173ffffffffffffffffffffffffffffffffffffffff168173ffffffffffffffffffffffffffffffffffffffff167f8be0079c531659141344cd1fd0a4f28419497f9722a3daafe3b4186f6b6457e060405160405180910390a35050565b600073ffffffffffffffffffffffffffffffffffffffff168273ffffffffffffffffffffffffffffffffffffffff16141562000220576040517f08c379a00000000000000000000000000000000000000000000000000000000081526004016200021790620004fe565b60405180910390fd5b62000234600083836200032760201b60201c565b8060036000828254620002489190620005ad565b9250508190555080600160008473ffffffffffffffffffffffffffffffffffffffff1673ffffffffffffffffffffffffffffffffffffffff1681526020019081526020016000206000828254620002a09190620005ad565b925050819055508173ffffffffffffffffffffffffffffffffffffffff16600073ffffffffffffffffffffffffffffffffffffffff167fddf252ad1be2c89b69c2b068fc378daa952ba7f163c4a11628f55a4df523b3ef8360405162000307919062000520565b60405180910390a362000323600083836200032c60201b60201c565b5050565b505050565b505050565b8280546200033f906200064a565b90600052602060002090601f016020900481019282620003635760008555620003af565b82601f106200037e57805160ff1916838001178555620003af565b82800160010185558215620003af579182015b82811115620003ae57825182559160200191906001019062000391565b5b509050620003be9190620003c2565b5090565b5b80821115620003dd576000816000905550600101620003c3565b5090565b6000620003f8620003f28462000566565b6200053d565b9050828152602081018484840111156200041157600080fd5b6200041e84828562000614565b509392505050565b600082601f8301126200043857600080fd5b81516200044a848260208601620003e1565b91505092915050565b600080604083850312156200046757600080fd5b600083015167ffffffffffffffff8111156200048257600080fd5b620004908582860162000426565b925050602083015167ffffffffffffffff811115620004ae57600080fd5b620004bc8582860162000426565b9150509250929050565b6000620004d5601f836200059c565b9150620004e28262000754565b602082019050919050565b620004f8816200060a565b82525050565b600060208201905081810360008301526200051981620004c6565b9050919050565b6000602082019050620005376000830184620004ed565b92915050565b6000620005496200055c565b905062000557828262000680565b919050565b6000604051905090565b600067ffffffffffffffff82111562000584576200058362000714565b5b6200058f8262000743565b9050602081019050919050565b600082825260208201905092915050565b6000620005ba826200060a565b9150620005c7836200060a565b9250827fffffffffffffffffffffffffffffffffffffffffffffffffffffffffffffffff03821115620005ff57620005fe620006b6565b5b828201905092915050565b6000819050919050565b60005b838110156200063457808201518184015260208101905062000617565b8381111562000644576000848401525b50505050565b600060028204905060018216806200066357607f821691505b602082108114156200067a5762000679620006e5565b5b50919050565b6200068b8262000743565b810181811067ffffffffffffffff82111715620006ad57620006ac62000714565b5b80604052505050565b7f4e487b7100000000000000000000000000000000000000000000000000000000600052601160045260246000fd5b7f4e487b7100000000000000000000000000000000000000000000000000000000600052602260045260246000fd5b7f4e487b7100000000000000000000000000000000000000000000000000000000600052604160045260246000fd5b6000601f19601f8301169050919050565b7f45524332303a206d696e7420746f20746865207a65726f206164647265737300600082015250565b612062806200078d6000396000f3fe608060405234801561001057600080fd5b506004361061012c5760003560e01c8063769c2f57116100ad578063bc33718211610071578063bc33718214610349578063dd62ed3e14610365578063e40ffe0014610395578063ebae7c1c146103b1578063f2fde38b146103cf5761012c565b8063769c2f571461028f5780638da5cb5b146102ad57806395d89b41146102cb578063a457c2d7146102e9578063a9059cbb146103195761012c565b8063313ce567116100f4578063313ce567146101eb578063395093511461020957806342966c681461023957806370a0823114610255578063715018a6146102855761012c565b8063047fc9aa1461013157806306fdde031461014f578063095ea7b31461016d57806318160ddd1461019d57806323b872dd146101bb575b600080fd5b6101396103eb565b6040516101469190611a2b565b60405180910390f35b6101576103f1565b6040516101649190611869565b60405180910390f35b61018760048036038101906101829190611569565b610483565b604051610194919061184e565b60405180910390f35b6101a56104a1565b6040516101b29190611a2b565b60405180910390f35b6101d560048036038101906101d0919061151a565b6104ab565b6040516101e2919061184e565b60405180910390f35b6101f36105a3565b6040516102009190611a46565b60405180910390f35b610223600480360381019061021e9190611569565b6105ac565b604051610230919061184e565b60405180910390f35b610253600480360381019061024e91906115ce565b610658565b005b61026f600480360381019061026a91906114b5565b6106e8565b60405161027c9190611a2b565b60405180910390f35b61028d610731565b005b6102976107b9565b6040516102a4919061184e565b60405180910390f35b6102b56107cc565b6040516102c29190611833565b60405180910390f35b6102d36107f5565b6040516102e09190611869565b60405180910390f35b61030360048036038101906102fe9190611569565b610887565b604051610310919061184e565b60405180910390f35b610333600480360381019061032e9190611569565b610972565b604051610340919061184e565b60405180910390f35b610363600480360381019061035e91906115ce565b610990565b005b61037f600480360381019061037a91906114de565b610a4d565b60405161038c9190611a2b565b60405180910390f35b6103af60048036038101906103aa91906115a5565b610ad4565b005b6103b9610ba4565b6040516103c69190611a2b565b60405180910390f35b6103e960048036038101906103e491906114b5565b610baa565b005b60095481565b60606005805461040090611b8f565b80601f016020809104026020016040519081016040528092919081815260200182805461042c90611b8f565b80156104795780601f1061044e57610100808354040283529160200191610479565b820191906000526020600020905b81548152906001019060200180831161045c57829003601f168201915b5050505050905090565b6000610497610490610ca2565b8484610caa565b6001905092915050565b6000600354905090565b60006104b8848484610e75565b6000600260008673ffffffffffffffffffffffffffffffffffffffff1673ffffffffffffffffffffffffffffffffffffffff1681526020019081526020016000206000610503610ca2565b73ffffffffffffffffffffffffffffffffffffffff1673ffffffffffffffffffffffffffffffffffffffff16815260200190815260200160002054905082811015610583576040517f08c379a000000000000000000000000000000000000000000000000000000000815260040161057a9061192b565b60405180910390fd5b6105978561058f610ca2565b858403610caa565b60019150509392505050565b60006012905090565b600061064e6105b9610ca2565b8484600260006105c7610ca2565b73ffffffffffffffffffffffffffffffffffffffff1673ffffffffffffffffffffffffffffffffffffffff16815260200190815260200160002060008873ffffffffffffffffffffffffffffffffffffffff1673ffffffffffffffffffffffffffffffffffffffff168152602001908152602001600020546106499190611a7d565b610caa565b6001905092915050565b610660610ca2565b73ffffffffffffffffffffffffffffffffffffffff1661067e6107cc565b73ffffffffffffffffffffffffffffffffffffffff16146106d4576040517f08c379a00000000000000000000000000000000000000000000000000000000081526004016106cb9061194b565b60405180910390fd5b6106e56106df6107cc565b826111cf565b50565b6000600160008373ffffffffffffffffffffffffffffffffffffffff1673ffffffffffffffffffffffffffffffffffffffff168152602001908152602001600020549050919050565b610739610ca2565b73ffffffffffffffffffffffffffffffffffffffff166107576107cc565b73ffffffffffffffffffffffffffffffffffffffff16146107ad576040517f08c379a00000000000000000000000000000000000000000000000000000000081526004016107a49061194b565b60405180910390fd5b6107b760006113a8565b565b600760009054906101000a900460ff1681565b60008060009054906101000a900473ffffffffffffffffffffffffffffffffffffffff16905090565b60606006805461080490611b8f565b80601f016020809104026020016040519081016040528092919081815260200182805461083090611b8f565b801561087d5780601f106108525761010080835404028352916020019161087d565b820191906000526020600020905b81548152906001019060200180831161086057829003601f168201915b5050505050905090565b60008060026000610896610ca2565b73ffffffffffffffffffffffffffffffffffffffff1673ffffffffffffffffffffffffffffffffffffffff16815260200190815260200160002060008573ffffffffffffffffffffffffffffffffffffffff1673ffffffffffffffffffffffffffffffffffffffff16815260200190815260200160002054905082811015610953576040517f08c379a000000000000000000000000000000000000000000000000000000000815260040161094a90611a0b565b60405180910390fd5b61096761095e610ca2565b85858403610caa565b600191505092915050565b600061098661097f610ca2565b8484610e75565b6001905092915050565b610998610ca2565b73ffffffffffffffffffffffffffffffffffffffff166109b66107cc565b73ffffffffffffffffffffffffffffffffffffffff1614610a0c576040517f08c379a0000000000000000000000000000000000000000000000000000000008152600401610a039061194b565b60405180910390fd5b806004819055507f48d27f9cdb4018a47f7ef136f7a1470dfc52b98041efb988d7658f77821cf59281604051610a429190611a2b565b60405180910390a150565b6000600260008473ffffffffffffffffffffffffffffffffffffffff1673ffffffffffffffffffffffffffffffffffffffff16815260200190815260200160002060008373ffffffffffffffffffffffffffffffffffffffff1673ffffffffffffffffffffffffffffffffffffffff16815260200190815260200160002054905092915050565b610adc610ca2565b73ffffffffffffffffffffffffffffffffffffffff16610afa6107cc565b73ffffffffffffffffffffffffffffffffffffffff1614610b50576040517f08c379a0000000000000000000000000000000000000000000000000000000008152600401610b479061194b565b60405180910390fd5b80600760006101000a81548160ff0219169083151502179055507fcd9ebf303898e9043a99889148f76c627753441f6402e39326e470171cc93fba81604051610b99919061184e565b60405180910390a150565b60045481565b610bb2610ca2565b73ffffffffffffffffffffffffffffffffffffffff16610bd06107cc565b73ffffffffffffffffffffffffffffffffffffffff1614610c26576040517f08c379a0000000000000000000000000000000000000000000000000000000008152600401610c1d9061194b565b60405180910390fd5b600073ffffffffffffffffffffffffffffffffffffffff168173ffffffffffffffffffffffffffffffffffffffff161415610c96576040517f08c379a0000000000000000000000000000000000000000000000000000000008152600401610c8d906118cb565b60405180910390fd5b610c9f816113a8565b50565b600033905090565b600073ffffffffffffffffffffffffffffffffffffffff168373ffffffffffffffffffffffffffffffffffffffff161415610d1a576040517f08c379a0000000000000000000000000000000000000000000000000000000008152600401610d11906119cb565b60405180910390fd5b600073ffffffffffffffffffffffffffffffffffffffff168273ffffffffffffffffffffffffffffffffffffffff161415610d8a576040517f08c379a0000000000000000000000000000000000000000000000000000000008152600401610d81906118eb565b60405180910390fd5b80600260008573ffffffffffffffffffffffffffffffffffffffff1673ffffffffffffffffffffffffffffffffffffffff16815260200190815260200160002060008473ffffffffffffffffffffffffffffffffffffffff1673ffffffffffffffffffffffffffffffffffffffff168152602001908152602001600020819055508173ffffffffffffffffffffffffffffffffffffffff168373ffffffffffffffffffffffffffffffffffffffff167f8c5be1e5ebec7d5bd14f71427d1e84f3dd0314c0f7b2291e5b200ac8c7c3b92583604051610e689190611a2b565b60405180910390a3505050565b600073ffffffffffffffffffffffffffffffffffffffff168373ffffffffffffffffffffffffffffffffffffffff161415610ee5576040517f08c379a0000000000000000000000000000000000000000000000000000000008152600401610edc906119ab565b60405180910390fd5b600073ffffffffffffffffffffffffffffffffffffffff168273ffffffffffffffffffffffffffffffffffffffff161415610f55576040517f08c379a0000000000000000000000000000000000000000000000000000000008152600401610f4c9061188b565b60405180910390fd5b610f5d6107cc565b73ffffffffffffffffffffffffffffffffffffffff163373ffffffffffffffffffffffffffffffffffffffff161461102b57600454811115610fd4576040517f08c379a0000000000000000000000000000000000000000000000000000000008152600401610fcb906119eb565b60405180910390fd5b60011515600760009054906101000a900460ff1615151461102a576040517f08c379a00000000000000000000000000000000000000000000000000000000081526004016110219061198b565b60405180910390fd5b5b61103683838361146c565b6000600160008573ffffffffffffffffffffffffffffffffffffffff1673ffffffffffffffffffffffffffffffffffffffff168152602001908152602001600020549050818110156110bd576040517f08c379a00000000000000000000000000000000000000000000000000000000081526004016110b49061190b565b60405180910390fd5b818103600160008673ffffffffffffffffffffffffffffffffffffffff1673ffffffffffffffffffffffffffffffffffffffff1681526020019081526020016000208190555081600160008573ffffffffffffffffffffffffffffffffffffffff1673ffffffffffffffffffffffffffffffffffffffff16815260200190815260200160002060008282546111529190611a7d565b925050819055508273ffffffffffffffffffffffffffffffffffffffff168473ffffffffffffffffffffffffffffffffffffffff167fddf252ad1be2c89b69c2b068fc378daa952ba7f163c4a11628f55a4df523b3ef846040516111b69190611a2b565b60405180910390a36111c9848484611471565b50505050565b600073ffffffffffffffffffffffffffffffffffffffff168273ffffffffffffffffffffffffffffffffffffffff16141561123f576040517f08c379a00000000000000000000000000000000000000000000000000000000081526004016112369061196b565b60405180910390fd5b61124b8260008361146c565b6000600160008473ffffffffffffffffffffffffffffffffffffffff1673ffffffffffffffffffffffffffffffffffffffff168152602001908152602001600020549050818110156112d2576040517f08c379a00000000000000000000000000000000000000000000000000000000081526004016112c9906118ab565b60405180910390fd5b818103600160008573ffffffffffffffffffffffffffffffffffffffff1673ffffffffffffffffffffffffffffffffffffffff16815260200190815260200160002081905550816003600082825461132a9190611ad3565b92505081905550600073ffffffffffffffffffffffffffffffffffffffff168373ffffffffffffffffffffffffffffffffffffffff167fddf252ad1be2c89b69c2b068fc378daa952ba7f163c4a11628f55a4df523b3ef8460405161138f9190611a2b565b60405180910390a36113a383600084611471565b505050565b60008060009054906101000a900473ffffffffffffffffffffffffffffffffffffffff169050816000806101000a81548173ffffffffffffffffffffffffffffffffffffffff021916908373ffffffffffffffffffffffffffffffffffffffff1602179055508173ffffffffffffffffffffffffffffffffffffffff168173ffffffffffffffffffffffffffffffffffffffff167f8be0079c531659141344cd1fd0a4f28419497f9722a3daafe3b4186f6b6457e060405160405180910390a35050565b505050565b505050565b60008135905061148581611fe7565b92915050565b60008135905061149a81611ffe565b92915050565b6000813590506114af81612015565b92915050565b6000602082840312156114c757600080fd5b60006114d584828501611476565b91505092915050565b600080604083850312156114f157600080fd5b60006114ff85828601611476565b925050602061151085828601611476565b9150509250929050565b60008060006060848603121561152f57600080fd5b600061153d86828701611476565b935050602061154e86828701611476565b925050604061155f868287016114a0565b9150509250925092565b6000806040838503121561157c57600080fd5b600061158a85828601611476565b925050602061159b858286016114a0565b9150509250929050565b6000602082840312156115b757600080fd5b60006115c58482850161148b565b91505092915050565b6000602082840312156115e057600080fd5b60006115ee848285016114a0565b91505092915050565b61160081611b07565b82525050565b61160f81611b19565b82525050565b600061162082611a61565b61162a8185611a6c565b935061163a818560208601611b5c565b61164381611c1f565b840191505092915050565b600061165b602383611a6c565b915061166682611c30565b604082019050919050565b600061167e602283611a6c565b915061168982611c7f565b604082019050919050565b60006116a1602683611a6c565b91506116ac82611cce565b604082019050919050565b60006116c4602283611a6c565b91506116cf82611d1d565b604082019050919050565b60006116e7602683611a6c565b91506116f282611d6c565b604082019050919050565b600061170a602883611a6c565b915061171582611dbb565b604082019050919050565b600061172d602083611a6c565b915061173882611e0a565b602082019050919050565b6000611750602183611a6c565b915061175b82611e33565b604082019050919050565b6000611773601183611a6c565b915061177e82611e82565b602082019050919050565b6000611796602583611a6c565b91506117a182611eab565b604082019050919050565b60006117b9602483611a6c565b91506117c482611efa565b604082019050919050565b60006117dc602583611a6c565b91506117e782611f49565b604082019050919050565b60006117ff602583611a6c565b915061180a82611f98565b604082019050919050565b61181e81611b45565b82525050565b61182d81611b4f565b82525050565b600060208201905061184860008301846115f7565b92915050565b60006020820190506118636000830184611606565b92915050565b600060208201905081810360008301526118838184611615565b905092915050565b600060208201905081810360008301526118a48161164e565b9050919050565b600060208201905081810360008301526118c481611671565b9050919050565b600060208201905081810360008301526118e481611694565b9050919050565b60006020820190508181036000830152611904816116b7565b9050919050565b60006020820190508181036000830152611924816116da565b9050919050565b60006020820190508181036000830152611944816116fd565b9050919050565b6000602082019050818103600083015261196481611720565b9050919050565b6000602082019050818103600083015261198481611743565b9050919050565b600060208201905081810360008301526119a481611766565b9050919050565b600060208201905081810360008301526119c481611789565b9050919050565b600060208201905081810360008301526119e4816117ac565b9050919050565b60006020820190508181036000830152611a04816117cf565b9050919050565b60006020820190508181036000830152611a24816117f2565b9050919050565b6000602082019050611a406000830184611815565b92915050565b6000602082019050611a5b6000830184611824565b92915050565b600081519050919050565b600082825260208201905092915050565b6000611a8882611b45565b9150611a9383611b45565b9250827fffffffffffffffffffffffffffffffffffffffffffffffffffffffffffffffff03821115611ac857611ac7611bc1565b5b828201905092915050565b6000611ade82611b45565b9150611ae983611b45565b925082821015611afc57611afb611bc1565b5b828203905092915050565b6000611b1282611b25565b9050919050565b60008115159050919050565b600073ffffffffffffffffffffffffffffffffffffffff82169050919050565b6000819050919050565b600060ff82169050919050565b60005b83811015611b7a578082015181840152602081019050611b5f565b83811115611b89576000848401525b50505050565b60006002820490506001821680611ba757607f821691505b60208210811415611bbb57611bba611bf0565b5b50919050565b7f4e487b7100000000000000000000000000000000000000000000000000000000600052601160045260246000fd5b7f4e487b7100000000000000000000000000000000000000000000000000000000600052602260045260246000fd5b6000601f19601f8301169050919050565b7f45524332303a207472616e7366657220746f20746865207a65726f206164647260008201527f6573730000000000000000000000000000000000000000000000000000000000602082015250565b7f45524332303a206275726e20616d6f756e7420657863656564732062616c616e60008201527f6365000000000000000000000000000000000000000000000000000000000000602082015250565b7f4f776e61626c653a206e6577206f776e657220697320746865207a65726f206160008201527f6464726573730000000000000000000000000000000000000000000000000000602082015250565b7f45524332303a20617070726f766520746f20746865207a65726f20616464726560008201527f7373000000000000000000000000000000000000000000000000000000000000602082015250565b7f45524332303a207472616e7366657220616d6f756e742065786365656473206260008201527f616c616e63650000000000000000000000000000000000000000000000000000602082015250565b7f45524332303a207472616e7366657220616d6f756e742065786365656473206160008201527f6c6c6f77616e6365000000000000000000000000000000000000000000000000602082015250565b7f4f776e61626c653a2063616c6c6572206973206e6f7420746865206f776e6572600082015250565b7f45524332303a206275726e2066726f6d20746865207a65726f2061646472657360008201527f7300000000000000000000000000000000000000000000000000000000000000602082015250565b7f537761702069732064697361626c656421000000000000000000000000000000600082015250565b7f45524332303a207472616e736665722066726f6d20746865207a65726f20616460008201527f6472657373000000000000000000000000000000000000000000000000000000602082015250565b7f45524332303a20617070726f76652066726f6d20746865207a65726f2061646460008201527f7265737300000000000000000000000000000000000000000000000000000000602082015250565b7f45524332303a207472616e7366657220616d6f756e742065786365656473206d60008201527f6178205458000000000000000000000000000000000000000000000000000000602082015250565b7f45524332303a2064656372656173656420616c6c6f77616e63652062656c6f7760008201527f207a65726f000000000000000000000000000000000000000000000000000000602082015250565b611ff081611b07565b8114611ffb57600080fd5b50565b61200781611b19565b811461201257600080fd5b50565b61201e81611b45565b811461202957600080fd5b5056fea26469706673582212206c5e5ef4c70c6c1c7681791ff084137b7fb6848eec5d056355e0f1794c1168bd64736f6c63430008040033",
  "linkReferences": {},
  "deployedLinkReferences": {}
}