{
  "_format": "hh-sol-artifact-1",
  "contractName": "Reakoin",
  "sourceName": "contracts/Reakoin.sol",
  "abi": [
    {
      "inputs": [
        {
          "internalType": "string",
          "name": "name",
          "type": "string"
        },
        {
          "internalType": "string",
          "name": "symbols",
          "type": "string"
        }
      ],
      "stateMutability": "nonpayable",
      "type": "constructor"
    },
    {
      "anonymous": false,
      "inputs": [
        {
          "indexed": true,
          "internalType": "address",
          "name": "owner",
          "type": "address"
        },
        {
          "indexed": true,
          "internalType": "address",
          "name": "spender",
          "type": "address"
        },
        {
          "indexed": false,
          "internalType": "uint256",
          "name": "value",
          "type": "uint256"
        }
      ],
      "name": "Approval",
      "type": "event"
    },
    {
      "anonymous": false,
      "inputs": [
        {
          "indexed": true,
          "internalType": "address",
          "name": "previousOwner",
          "type": "address"
        },
        {
          "indexed": true,
          "internalType": "address",
          "name": "newOwner",
          "type": "address"
        }
      ],
      "name": "OwnershipTransferred",
      "type": "event"
    },
    {
      "anonymous": false,
      "inputs": [
        {
          "indexed": true,
          "internalType": "address",
          "name": "from",
          "type": "address"
        },
        {
          "indexed": true,
          "internalType": "address",
          "name": "to",
          "type": "address"
        },
        {
          "indexed": false,
          "internalType": "uint256",
          "name": "value",
          "type": "uint256"
        }
      ],
      "name": "Transfer",
      "type": "event"
    },
    {
      "inputs": [
        {
          "internalType": "address",
          "name": "owner",
          "type": "address"
        },
        {
          "internalType": "address",
          "name": "spender",
          "type": "address"
        }
      ],
      "name": "allowance",
      "outputs": [
        {
          "internalType": "uint256",
          "name": "",
          "type": "uint256"
        }
      ],
      "stateMutability": "view",
      "type": "function"
    },
    {
      "inputs": [
        {
          "internalType": "address",
          "name": "spender",
          "type": "address"
        },
        {
          "internalType": "uint256",
          "name": "amount",
          "type": "uint256"
        }
      ],
      "name": "approve",
      "outputs": [
        {
          "internalType": "bool",
          "name": "",
          "type": "bool"
        }
      ],
      "stateMutability": "nonpayable",
      "type": "function"
    },
    {
      "inputs": [
        {
          "internalType": "address",
          "name": "account",
          "type": "address"
        }
      ],
      "name": "balanceOf",
      "outputs": [
        {
          "internalType": "uint256",
          "name": "",
          "type": "uint256"
        }
      ],
      "stateMutability": "view",
      "type": "function"
    },
    {
      "inputs": [],
      "name": "decimals",
      "outputs": [
        {
          "internalType": "uint8",
          "name": "",
          "type": "uint8"
        }
      ],
      "stateMutability": "view",
      "type": "function"
    },
    {
      "inputs": [
        {
          "internalType": "address",
          "name": "spender",
          "type": "address"
        },
        {
          "internalType": "uint256",
          "name": "subtractedValue",
          "type": "uint256"
        }
      ],
      "name": "decreaseAllowance",
      "outputs": [
        {
          "internalType": "bool",
          "name": "",
          "type": "bool"
        }
      ],
      "stateMutability": "nonpayable",
      "type": "function"
    },
    {
      "inputs": [
        {
          "internalType": "address",
          "name": "spender",
          "type": "address"
        },
        {
          "internalType": "uint256",
          "name": "addedValue",
          "type": "uint256"
        }
      ],
      "name": "increaseAllowance",
      "outputs": [
        {
          "internalType": "bool",
          "name": "",
          "type": "bool"
        }
      ],
      "stateMutability": "nonpayable",
      "type": "function"
    },
    {
      "inputs": [],
      "name": "maxTX",
      "outputs": [
        {
          "internalType": "uint256",
          "name": "",
          "type": "uint256"
        }
      ],
      "stateMutability": "view",
      "type": "function"
    },
    {
      "inputs": [],
      "name": "name",
      "outputs": [
        {
          "internalType": "string",
          "name": "",
          "type": "string"
        }
      ],
      "stateMutability": "view",
      "type": "function"
    },
    {
      "inputs": [],
      "name": "owner",
      "outputs": [
        {
          "internalType": "address",
          "name": "",
          "type": "address"
        }
      ],
      "stateMutability": "view",
      "type": "function"
    },
    {
      "inputs": [],
      "name": "renounceOwnership",
      "outputs": [],
      "stateMutability": "nonpayable",
      "type": "function"
    },
    {
      "inputs": [],
      "name": "supply",
      "outputs": [
        {
          "internalType": "uint256",
          "name": "",
          "type": "uint256"
        }
      ],
      "stateMutability": "view",
      "type": "function"
    },
    {
      "inputs": [],
      "name": "symbol",
      "outputs": [
        {
          "internalType": "string",
          "name": "",
          "type": "string"
        }
      ],
      "stateMutability": "view",
      "type": "function"
    },
    {
      "inputs": [],
      "name": "totalSupply",
      "outputs": [
        {
          "internalType": "uint256",
          "name": "",
          "type": "uint256"
        }
      ],
      "stateMutability": "view",
      "type": "function"
    },
    {
      "inputs": [
        {
          "internalType": "address",
          "name": "recipient",
          "type": "address"
        },
        {
          "internalType": "uint256",
          "name": "amount",
          "type": "uint256"
        }
      ],
      "name": "transfer",
      "outputs": [
        {
          "internalType": "bool",
          "name": "",
          "type": "bool"
        }
      ],
      "stateMutability": "nonpayable",
      "type": "function"
    },
    {
      "inputs": [
        {
          "internalType": "address",
          "name": "sender",
          "type": "address"
        },
        {
          "internalType": "address",
          "name": "recipient",
          "type": "address"
        },
        {
          "internalType": "uint256",
          "name": "amount",
          "type": "uint256"
        }
      ],
      "name": "transferFrom",
      "outputs": [
        {
          "internalType": "bool",
          "name": "",
          "type": "bool"
        }
      ],
      "stateMutability": "nonpayable",
      "type": "function"
    },
    {
      "inputs": [
        {
          "internalType": "address",
          "name": "newOwner",
          "type": "address"
        }
      ],
      "name": "transferOwnership",
      "outputs": [],
      "stateMutability": "nonpayable",
      "type": "function"
    }
  ],
  "bytecode": "0x608060405269021e19e0c9bab24000006003556a295be96e640669720000006008553480156200002e57600080fd5b506040516200203438038062002034833981810160405281019062000054919062000439565b818181600490805190602001906200006e92919062000317565b5080600590805190602001906200008792919062000317565b505050620000aa6200009e620000c660201b60201c565b620000ce60201b60201c565b620000be336008546200019460201b60201c565b505062000763565b600033905090565b6000600660009054906101000a900473ffffffffffffffffffffffffffffffffffffffff16905081600660006101000a81548173ffffffffffffffffffffffffffffffffffffffff021916908373ffffffffffffffffffffffffffffffffffffffff1602179055508173ffffffffffffffffffffffffffffffffffffffff168173ffffffffffffffffffffffffffffffffffffffff167f8be0079c531659141344cd1fd0a4f28419497f9722a3daafe3b4186f6b6457e060405160405180910390a35050565b600073ffffffffffffffffffffffffffffffffffffffff168273ffffffffffffffffffffffffffffffffffffffff16141562000207576040517f08c379a0000000000000000000000000000000000000000000000000000000008152600401620001fe90620004e4565b60405180910390fd5b6200021b600083836200030d60201b60201c565b80600260008282546200022f919062000593565b92505081905550806000808473ffffffffffffffffffffffffffffffffffffffff1673ffffffffffffffffffffffffffffffffffffffff168152602001908152602001600020600082825462000286919062000593565b925050819055508173ffffffffffffffffffffffffffffffffffffffff16600073ffffffffffffffffffffffffffffffffffffffff167fddf252ad1be2c89b69c2b068fc378daa952ba7f163c4a11628f55a4df523b3ef83604051620002ed919062000506565b60405180910390a362000309600083836200031260201b60201c565b5050565b505050565b505050565b828054620003259062000630565b90600052602060002090601f01602090048101928262000349576000855562000395565b82601f106200036457805160ff191683800117855562000395565b8280016001018555821562000395579182015b828111156200039457825182559160200191906001019062000377565b5b509050620003a49190620003a8565b5090565b5b80821115620003c3576000816000905550600101620003a9565b5090565b6000620003de620003d8846200054c565b62000523565b905082815260208101848484011115620003f757600080fd5b62000404848285620005fa565b509392505050565b600082601f8301126200041e57600080fd5b815162000430848260208601620003c7565b91505092915050565b600080604083850312156200044d57600080fd5b600083015167ffffffffffffffff8111156200046857600080fd5b62000476858286016200040c565b925050602083015167ffffffffffffffff8111156200049457600080fd5b620004a2858286016200040c565b9150509250929050565b6000620004bb601f8362000582565b9150620004c8826200073a565b602082019050919050565b620004de81620005f0565b82525050565b60006020820190508181036000830152620004ff81620004ac565b9050919050565b60006020820190506200051d6000830184620004d3565b92915050565b60006200052f62000542565b90506200053d828262000666565b919050565b6000604051905090565b600067ffffffffffffffff8211156200056a5762000569620006fa565b5b620005758262000729565b9050602081019050919050565b600082825260208201905092915050565b6000620005a082620005f0565b9150620005ad83620005f0565b9250827fffffffffffffffffffffffffffffffffffffffffffffffffffffffffffffffff03821115620005e557620005e46200069c565b5b828201905092915050565b6000819050919050565b60005b838110156200061a578082015181840152602081019050620005fd565b838111156200062a576000848401525b50505050565b600060028204905060018216806200064957607f821691505b6020821081141562000660576200065f620006cb565b5b50919050565b620006718262000729565b810181811067ffffffffffffffff82111715620006935762000692620006fa565b5b80604052505050565b7f4e487b7100000000000000000000000000000000000000000000000000000000600052601160045260246000fd5b7f4e487b7100000000000000000000000000000000000000000000000000000000600052602260045260246000fd5b7f4e487b7100000000000000000000000000000000000000000000000000000000600052604160045260246000fd5b6000601f19601f8301169050919050565b7f45524332303a206d696e7420746f20746865207a65726f206164647265737300600082015250565b6118c180620007736000396000f3fe608060405234801561001057600080fd5b50600436106101005760003560e01c8063715018a611610097578063a9059cbb11610066578063a9059cbb146102b3578063dd62ed3e146102e3578063ebae7c1c14610313578063f2fde38b1461033157610100565b8063715018a61461023d5780638da5cb5b1461024757806395d89b4114610265578063a457c2d71461028357610100565b806323b872dd116100d357806323b872dd1461018f578063313ce567146101bf57806339509351146101dd57806370a082311461020d57610100565b8063047fc9aa1461010557806306fdde0314610123578063095ea7b31461014157806318160ddd14610171575b600080fd5b61010d61034d565b60405161011a91906113c2565b60405180910390f35b61012b610353565b6040516101389190611260565b60405180910390f35b61015b6004803603810190610156919061101b565b6103e5565b6040516101689190611245565b60405180910390f35b610179610403565b60405161018691906113c2565b60405180910390f35b6101a960048036038101906101a49190610fcc565b61040d565b6040516101b69190611245565b60405180910390f35b6101c7610505565b6040516101d491906113dd565b60405180910390f35b6101f760048036038101906101f2919061101b565b61050e565b6040516102049190611245565b60405180910390f35b61022760048036038101906102229190610f67565b6105ba565b60405161023491906113c2565b60405180910390f35b610245610602565b005b61024f61068a565b60405161025c919061122a565b60405180910390f35b61026d6106b4565b60405161027a9190611260565b60405180910390f35b61029d6004803603810190610298919061101b565b610746565b6040516102aa9190611245565b60405180910390f35b6102cd60048036038101906102c8919061101b565b610831565b6040516102da9190611245565b60405180910390f35b6102fd60048036038101906102f89190610f90565b61084f565b60405161030a91906113c2565b60405180910390f35b61031b6108d6565b60405161032891906113c2565b60405180910390f35b61034b60048036038101906103469190610f67565b6108dc565b005b60085481565b606060048054610362906114f2565b80601f016020809104026020016040519081016040528092919081815260200182805461038e906114f2565b80156103db5780601f106103b0576101008083540402835291602001916103db565b820191906000526020600020905b8154815290600101906020018083116103be57829003601f168201915b5050505050905090565b60006103f96103f26109d4565b84846109dc565b6001905092915050565b6000600254905090565b600061041a848484610ba7565b6000600160008673ffffffffffffffffffffffffffffffffffffffff1673ffffffffffffffffffffffffffffffffffffffff16815260200190815260200160002060006104656109d4565b73ffffffffffffffffffffffffffffffffffffffff1673ffffffffffffffffffffffffffffffffffffffff168152602001908152602001600020549050828110156104e5576040517f08c379a00000000000000000000000000000000000000000000000000000000081526004016104dc906112e2565b60405180910390fd5b6104f9856104f16109d4565b8584036109dc565b60019150509392505050565b60006012905090565b60006105b061051b6109d4565b8484600160006105296109d4565b73ffffffffffffffffffffffffffffffffffffffff1673ffffffffffffffffffffffffffffffffffffffff16815260200190815260200160002060008873ffffffffffffffffffffffffffffffffffffffff1673ffffffffffffffffffffffffffffffffffffffff168152602001908152602001600020546105ab9190611414565b6109dc565b6001905092915050565b60008060008373ffffffffffffffffffffffffffffffffffffffff1673ffffffffffffffffffffffffffffffffffffffff168152602001908152602001600020549050919050565b61060a6109d4565b73ffffffffffffffffffffffffffffffffffffffff1661062861068a565b73ffffffffffffffffffffffffffffffffffffffff161461067e576040517f08c379a000000000000000000000000000000000000000000000000000000000815260040161067590611302565b60405180910390fd5b6106886000610e6d565b565b6000600660009054906101000a900473ffffffffffffffffffffffffffffffffffffffff16905090565b6060600580546106c3906114f2565b80601f01602080910402602001604051908101604052809291908181526020018280546106ef906114f2565b801561073c5780601f106107115761010080835404028352916020019161073c565b820191906000526020600020905b81548152906001019060200180831161071f57829003601f168201915b5050505050905090565b600080600160006107556109d4565b73ffffffffffffffffffffffffffffffffffffffff1673ffffffffffffffffffffffffffffffffffffffff16815260200190815260200160002060008573ffffffffffffffffffffffffffffffffffffffff1673ffffffffffffffffffffffffffffffffffffffff16815260200190815260200160002054905082811015610812576040517f08c379a0000000000000000000000000000000000000000000000000000000008152600401610809906113a2565b60405180910390fd5b61082661081d6109d4565b858584036109dc565b600191505092915050565b600061084561083e6109d4565b8484610ba7565b6001905092915050565b6000600160008473ffffffffffffffffffffffffffffffffffffffff1673ffffffffffffffffffffffffffffffffffffffff16815260200190815260200160002060008373ffffffffffffffffffffffffffffffffffffffff1673ffffffffffffffffffffffffffffffffffffffff16815260200190815260200160002054905092915050565b60035481565b6108e46109d4565b73ffffffffffffffffffffffffffffffffffffffff1661090261068a565b73ffffffffffffffffffffffffffffffffffffffff1614610958576040517f08c379a000000000000000000000000000000000000000000000000000000000815260040161094f90611302565b60405180910390fd5b600073ffffffffffffffffffffffffffffffffffffffff168173ffffffffffffffffffffffffffffffffffffffff1614156109c8576040517f08c379a00000000000000000000000000000000000000000000000000000000081526004016109bf90611342565b60405180910390fd5b6109d181610e6d565b50565b600033905090565b600073ffffffffffffffffffffffffffffffffffffffff168373ffffffffffffffffffffffffffffffffffffffff161415610a4c576040517f08c379a0000000000000000000000000000000000000000000000000000000008152600401610a4390611362565b60405180910390fd5b600073ffffffffffffffffffffffffffffffffffffffff168273ffffffffffffffffffffffffffffffffffffffff161415610abc576040517f08c379a0000000000000000000000000000000000000000000000000000000008152600401610ab3906112a2565b60405180910390fd5b80600160008573ffffffffffffffffffffffffffffffffffffffff1673ffffffffffffffffffffffffffffffffffffffff16815260200190815260200160002060008473ffffffffffffffffffffffffffffffffffffffff1673ffffffffffffffffffffffffffffffffffffffff168152602001908152602001600020819055508173ffffffffffffffffffffffffffffffffffffffff168373ffffffffffffffffffffffffffffffffffffffff167f8c5be1e5ebec7d5bd14f71427d1e84f3dd0314c0f7b2291e5b200ac8c7c3b92583604051610b9a91906113c2565b60405180910390a3505050565b600073ffffffffffffffffffffffffffffffffffffffff168373ffffffffffffffffffffffffffffffffffffffff161415610c17576040517f08c379a0000000000000000000000000000000000000000000000000000000008152600401610c0e90611322565b60405180910390fd5b600073ffffffffffffffffffffffffffffffffffffffff168273ffffffffffffffffffffffffffffffffffffffff161415610c87576040517f08c379a0000000000000000000000000000000000000000000000000000000008152600401610c7e90611282565b60405180910390fd5b600354811115610ccc576040517f08c379a0000000000000000000000000000000000000000000000000000000008152600401610cc390611382565b60405180910390fd5b610cd7838383610f33565b60008060008573ffffffffffffffffffffffffffffffffffffffff1673ffffffffffffffffffffffffffffffffffffffff16815260200190815260200160002054905081811015610d5d576040517f08c379a0000000000000000000000000000000000000000000000000000000008152600401610d54906112c2565b60405180910390fd5b8181036000808673ffffffffffffffffffffffffffffffffffffffff1673ffffffffffffffffffffffffffffffffffffffff16815260200190815260200160002081905550816000808573ffffffffffffffffffffffffffffffffffffffff1673ffffffffffffffffffffffffffffffffffffffff1681526020019081526020016000206000828254610df09190611414565b925050819055508273ffffffffffffffffffffffffffffffffffffffff168473ffffffffffffffffffffffffffffffffffffffff167fddf252ad1be2c89b69c2b068fc378daa952ba7f163c4a11628f55a4df523b3ef84604051610e5491906113c2565b60405180910390a3610e67848484610f38565b50505050565b6000600660009054906101000a900473ffffffffffffffffffffffffffffffffffffffff16905081600660006101000a81548173ffffffffffffffffffffffffffffffffffffffff021916908373ffffffffffffffffffffffffffffffffffffffff1602179055508173ffffffffffffffffffffffffffffffffffffffff168173ffffffffffffffffffffffffffffffffffffffff167f8be0079c531659141344cd1fd0a4f28419497f9722a3daafe3b4186f6b6457e060405160405180910390a35050565b505050565b505050565b600081359050610f4c8161185d565b92915050565b600081359050610f6181611874565b92915050565b600060208284031215610f7957600080fd5b6000610f8784828501610f3d565b91505092915050565b60008060408385031215610fa357600080fd5b6000610fb185828601610f3d565b9250506020610fc285828601610f3d565b9150509250929050565b600080600060608486031215610fe157600080fd5b6000610fef86828701610f3d565b935050602061100086828701610f3d565b925050604061101186828701610f52565b9150509250925092565b6000806040838503121561102e57600080fd5b600061103c85828601610f3d565b925050602061104d85828601610f52565b9150509250929050565b6110608161146a565b82525050565b61106f8161147c565b82525050565b6000611080826113f8565b61108a8185611403565b935061109a8185602086016114bf565b6110a381611582565b840191505092915050565b60006110bb602383611403565b91506110c682611593565b604082019050919050565b60006110de602283611403565b91506110e9826115e2565b604082019050919050565b6000611101602683611403565b915061110c82611631565b604082019050919050565b6000611124602883611403565b915061112f82611680565b604082019050919050565b6000611147602083611403565b9150611152826116cf565b602082019050919050565b600061116a602583611403565b9150611175826116f8565b604082019050919050565b600061118d601f83611403565b915061119882611747565b602082019050919050565b60006111b0602483611403565b91506111bb82611770565b604082019050919050565b60006111d3602583611403565b91506111de826117bf565b604082019050919050565b60006111f6602583611403565b91506112018261180e565b604082019050919050565b611215816114a8565b82525050565b611224816114b2565b82525050565b600060208201905061123f6000830184611057565b92915050565b600060208201905061125a6000830184611066565b92915050565b6000602082019050818103600083015261127a8184611075565b905092915050565b6000602082019050818103600083015261129b816110ae565b9050919050565b600060208201905081810360008301526112bb816110d1565b9050919050565b600060208201905081810360008301526112db816110f4565b9050919050565b600060208201905081810360008301526112fb81611117565b9050919050565b6000602082019050818103600083015261131b8161113a565b9050919050565b6000602082019050818103600083015261133b8161115d565b9050919050565b6000602082019050818103600083015261135b81611180565b9050919050565b6000602082019050818103600083015261137b816111a3565b9050919050565b6000602082019050818103600083015261139b816111c6565b9050919050565b600060208201905081810360008301526113bb816111e9565b9050919050565b60006020820190506113d7600083018461120c565b92915050565b60006020820190506113f2600083018461121b565b92915050565b600081519050919050565b600082825260208201905092915050565b600061141f826114a8565b915061142a836114a8565b9250827fffffffffffffffffffffffffffffffffffffffffffffffffffffffffffffffff0382111561145f5761145e611524565b5b828201905092915050565b600061147582611488565b9050919050565b60008115159050919050565b600073ffffffffffffffffffffffffffffffffffffffff82169050919050565b6000819050919050565b600060ff82169050919050565b60005b838110156114dd5780820151818401526020810190506114c2565b838111156114ec576000848401525b50505050565b6000600282049050600182168061150a57607f821691505b6020821081141561151e5761151d611553565b5b50919050565b7f4e487b7100000000000000000000000000000000000000000000000000000000600052601160045260246000fd5b7f4e487b7100000000000000000000000000000000000000000000000000000000600052602260045260246000fd5b6000601f19601f8301169050919050565b7f45524332303a207472616e7366657220746f20746865207a65726f206164647260008201527f6573730000000000000000000000000000000000000000000000000000000000602082015250565b7f45524332303a20617070726f766520746f20746865207a65726f20616464726560008201527f7373000000000000000000000000000000000000000000000000000000000000602082015250565b7f45524332303a207472616e7366657220616d6f756e742065786365656473206260008201527f616c616e63650000000000000000000000000000000000000000000000000000602082015250565b7f45524332303a207472616e7366657220616d6f756e742065786365656473206160008201527f6c6c6f77616e6365000000000000000000000000000000000000000000000000602082015250565b7f4f776e61626c653a2063616c6c6572206973206e6f7420746865206f776e6572600082015250565b7f45524332303a207472616e736665722066726f6d20746865207a65726f20616460008201527f6472657373000000000000000000000000000000000000000000000000000000602082015250565b7f4f776e61626c653a206e6577206f776e6572206973207a65726f5f4164647200600082015250565b7f45524332303a20617070726f76652066726f6d20746865207a65726f2061646460008201527f7265737300000000000000000000000000000000000000000000000000000000602082015250565b7f45524332303a207472616e7366657220616d6f756e742065786365656473206d60008201527f6178205458000000000000000000000000000000000000000000000000000000602082015250565b7f45524332303a2064656372656173656420616c6c6f77616e63652062656c6f7760008201527f207a65726f000000000000000000000000000000000000000000000000000000602082015250565b6118668161146a565b811461187157600080fd5b50565b61187d816114a8565b811461188857600080fd5b5056fea264697066735822122093ce82ef63acb13e1de361b7b189a61728d7115f42814d7068c6be70d98f862964736f6c63430008040033",
  "linkReferences": {},
  "deployedLinkReferences": {}
}