{
  "_format": "hh-sol-artifact-1",
  "contractName": "Reakoin",
  "sourceName": "contracts/Reakoin.sol",
  "abi": [
    {
      "inputs": [],
      "stateMutability": "nonpayable",
      "type": "constructor"
    },
    {
      "anonymous": false,
      "inputs": [
        {
          "indexed": true,
          "internalType": "address",
          "name": "owner",
          "type": "address"
        },
        {
          "indexed": true,
          "internalType": "address",
          "name": "spender",
          "type": "address"
        },
        {
          "indexed": false,
          "internalType": "uint256",
          "name": "value",
          "type": "uint256"
        }
      ],
      "name": "Approval",
      "type": "event"
    },
    {
      "anonymous": false,
      "inputs": [
        {
          "indexed": true,
          "internalType": "address",
          "name": "previousOwner",
          "type": "address"
        },
        {
          "indexed": true,
          "internalType": "address",
          "name": "newOwner",
          "type": "address"
        }
      ],
      "name": "OwnershipTransferred",
      "type": "event"
    },
    {
      "anonymous": false,
      "inputs": [
        {
          "indexed": false,
          "internalType": "uint256",
          "name": "_newMaxTX",
          "type": "uint256"
        }
      ],
      "name": "SetMaxTx",
      "type": "event"
    },
    {
      "anonymous": false,
      "inputs": [
        {
          "indexed": false,
          "internalType": "bool",
          "name": "true_or_false",
          "type": "bool"
        }
      ],
      "name": "SetSwapEnable",
      "type": "event"
    },
    {
      "anonymous": false,
      "inputs": [
        {
          "indexed": true,
          "internalType": "address",
          "name": "from",
          "type": "address"
        },
        {
          "indexed": true,
          "internalType": "address",
          "name": "to",
          "type": "address"
        },
        {
          "indexed": false,
          "internalType": "uint256",
          "name": "value",
          "type": "uint256"
        }
      ],
      "name": "Transfer",
      "type": "event"
    },
    {
      "inputs": [
        {
          "internalType": "address",
          "name": "owner",
          "type": "address"
        },
        {
          "internalType": "address",
          "name": "spender",
          "type": "address"
        }
      ],
      "name": "allowance",
      "outputs": [
        {
          "internalType": "uint256",
          "name": "",
          "type": "uint256"
        }
      ],
      "stateMutability": "view",
      "type": "function"
    },
    {
      "inputs": [
        {
          "internalType": "address",
          "name": "spender",
          "type": "address"
        },
        {
          "internalType": "uint256",
          "name": "amount",
          "type": "uint256"
        }
      ],
      "name": "approve",
      "outputs": [
        {
          "internalType": "bool",
          "name": "",
          "type": "bool"
        }
      ],
      "stateMutability": "nonpayable",
      "type": "function"
    },
    {
      "inputs": [
        {
          "internalType": "address",
          "name": "account",
          "type": "address"
        }
      ],
      "name": "balanceOf",
      "outputs": [
        {
          "internalType": "uint256",
          "name": "",
          "type": "uint256"
        }
      ],
      "stateMutability": "view",
      "type": "function"
    },
    {
      "inputs": [
        {
          "internalType": "uint256",
          "name": "_amount",
          "type": "uint256"
        }
      ],
      "name": "burn",
      "outputs": [],
      "stateMutability": "nonpayable",
      "type": "function"
    },
    {
      "inputs": [],
      "name": "decimals",
      "outputs": [
        {
          "internalType": "uint8",
          "name": "",
          "type": "uint8"
        }
      ],
      "stateMutability": "view",
      "type": "function"
    },
    {
      "inputs": [
        {
          "internalType": "address",
          "name": "spender",
          "type": "address"
        },
        {
          "internalType": "uint256",
          "name": "subtractedValue",
          "type": "uint256"
        }
      ],
      "name": "decreaseAllowance",
      "outputs": [
        {
          "internalType": "bool",
          "name": "",
          "type": "bool"
        }
      ],
      "stateMutability": "nonpayable",
      "type": "function"
    },
    {
      "inputs": [
        {
          "internalType": "address",
          "name": "spender",
          "type": "address"
        },
        {
          "internalType": "uint256",
          "name": "addedValue",
          "type": "uint256"
        }
      ],
      "name": "increaseAllowance",
      "outputs": [
        {
          "internalType": "bool",
          "name": "",
          "type": "bool"
        }
      ],
      "stateMutability": "nonpayable",
      "type": "function"
    },
    {
      "inputs": [],
      "name": "maxTX",
      "outputs": [
        {
          "internalType": "uint256",
          "name": "",
          "type": "uint256"
        }
      ],
      "stateMutability": "view",
      "type": "function"
    },
    {
      "inputs": [],
      "name": "name",
      "outputs": [
        {
          "internalType": "string",
          "name": "",
          "type": "string"
        }
      ],
      "stateMutability": "view",
      "type": "function"
    },
    {
      "inputs": [],
      "name": "owner",
      "outputs": [
        {
          "internalType": "address",
          "name": "",
          "type": "address"
        }
      ],
      "stateMutability": "view",
      "type": "function"
    },
    {
      "inputs": [],
      "name": "renounceOwnership",
      "outputs": [],
      "stateMutability": "nonpayable",
      "type": "function"
    },
    {
      "inputs": [
        {
          "internalType": "uint256",
          "name": "_newMaxTX",
          "type": "uint256"
        }
      ],
      "name": "setMaxTx",
      "outputs": [],
      "stateMutability": "nonpayable",
      "type": "function"
    },
    {
      "inputs": [
        {
          "internalType": "bool",
          "name": "_true_or_false",
          "type": "bool"
        }
      ],
      "name": "setSwapEnable",
      "outputs": [],
      "stateMutability": "nonpayable",
      "type": "function"
    },
    {
      "inputs": [],
      "name": "supply",
      "outputs": [
        {
          "internalType": "uint256",
          "name": "",
          "type": "uint256"
        }
      ],
      "stateMutability": "view",
      "type": "function"
    },
    {
      "inputs": [],
      "name": "swapEnable",
      "outputs": [
        {
          "internalType": "bool",
          "name": "",
          "type": "bool"
        }
      ],
      "stateMutability": "view",
      "type": "function"
    },
    {
      "inputs": [],
      "name": "symbol",
      "outputs": [
        {
          "internalType": "string",
          "name": "",
          "type": "string"
        }
      ],
      "stateMutability": "view",
      "type": "function"
    },
    {
      "inputs": [],
      "name": "totalSupply",
      "outputs": [
        {
          "internalType": "uint256",
          "name": "",
          "type": "uint256"
        }
      ],
      "stateMutability": "view",
      "type": "function"
    },
    {
      "inputs": [
        {
          "internalType": "address",
          "name": "recipient",
          "type": "address"
        },
        {
          "internalType": "uint256",
          "name": "amount",
          "type": "uint256"
        }
      ],
      "name": "transfer",
      "outputs": [
        {
          "internalType": "bool",
          "name": "",
          "type": "bool"
        }
      ],
      "stateMutability": "nonpayable",
      "type": "function"
    },
    {
      "inputs": [
        {
          "internalType": "address",
          "name": "sender",
          "type": "address"
        },
        {
          "internalType": "address",
          "name": "recipient",
          "type": "address"
        },
        {
          "internalType": "uint256",
          "name": "amount",
          "type": "uint256"
        }
      ],
      "name": "transferFrom",
      "outputs": [
        {
          "internalType": "bool",
          "name": "",
          "type": "bool"
        }
      ],
      "stateMutability": "nonpayable",
      "type": "function"
    },
    {
      "inputs": [
        {
          "internalType": "address",
          "name": "newOwner",
          "type": "address"
        }
      ],
      "name": "transferOwnership",
      "outputs": [],
      "stateMutability": "nonpayable",
      "type": "function"
    }
  ],
  "bytecode": "0x608060405269021e19e0c9bab240000060045573d99d1c33f9fc3444f8101754abc46c52416550d1600560006101000a81548173ffffffffffffffffffffffffffffffffffffffff021916908373ffffffffffffffffffffffffffffffffffffffff1602179055506a295be96e64066972000000600a553480156200008357600080fd5b50620000a4620000986200017560201b60201c565b6200017d60201b60201c565b6040518060400160405280600781526020017f5265616b6f696e0000000000000000000000000000000000000000000000000081525060069080519060200190620000f1929190620003c5565b506040518060400160405280600481526020017f5245414b00000000000000000000000000000000000000000000000000000000815250600790805190602001906200013f929190620003c5565b506000600860006101000a81548160ff0219169083151502179055506200016f33600a546200024160201b60201c565b62000621565b600033905090565b60008060009054906101000a900473ffffffffffffffffffffffffffffffffffffffff169050816000806101000a81548173ffffffffffffffffffffffffffffffffffffffff021916908373ffffffffffffffffffffffffffffffffffffffff1602179055508173ffffffffffffffffffffffffffffffffffffffff168173ffffffffffffffffffffffffffffffffffffffff167f8be0079c531659141344cd1fd0a4f28419497f9722a3daafe3b4186f6b6457e060405160405180910390a35050565b600073ffffffffffffffffffffffffffffffffffffffff168273ffffffffffffffffffffffffffffffffffffffff161415620002b4576040517f08c379a0000000000000000000000000000000000000000000000000000000008152600401620002ab90620004ad565b60405180910390fd5b620002c860008383620003bb60201b60201c565b8060036000828254620002dc9190620004fd565b9250508190555080600160008473ffffffffffffffffffffffffffffffffffffffff1673ffffffffffffffffffffffffffffffffffffffff1681526020019081526020016000206000828254620003349190620004fd565b925050819055508173ffffffffffffffffffffffffffffffffffffffff16600073ffffffffffffffffffffffffffffffffffffffff167fddf252ad1be2c89b69c2b068fc378daa952ba7f163c4a11628f55a4df523b3ef836040516200039b9190620004cf565b60405180910390a3620003b760008383620003c060201b60201c565b5050565b505050565b505050565b828054620003d39062000564565b90600052602060002090601f016020900481019282620003f7576000855562000443565b82601f106200041257805160ff191683800117855562000443565b8280016001018555821562000443579182015b828111156200044257825182559160200191906001019062000425565b5b50905062000452919062000456565b5090565b5b808211156200047157600081600090555060010162000457565b5090565b600062000484601f83620004ec565b91506200049182620005f8565b602082019050919050565b620004a7816200055a565b82525050565b60006020820190508181036000830152620004c88162000475565b9050919050565b6000602082019050620004e660008301846200049c565b92915050565b600082825260208201905092915050565b60006200050a826200055a565b915062000517836200055a565b9250827fffffffffffffffffffffffffffffffffffffffffffffffffffffffffffffffff038211156200054f576200054e6200059a565b5b828201905092915050565b6000819050919050565b600060028204905060018216806200057d57607f821691505b60208210811415620005945762000593620005c9565b5b50919050565b7f4e487b7100000000000000000000000000000000000000000000000000000000600052601160045260246000fd5b7f4e487b7100000000000000000000000000000000000000000000000000000000600052602260045260246000fd5b7f45524332303a206d696e7420746f20746865207a65726f206164647265737300600082015250565b6120be80620006316000396000f3fe608060405234801561001057600080fd5b506004361061012c5760003560e01c8063769c2f57116100ad578063bc33718211610071578063bc33718214610349578063dd62ed3e14610365578063e40ffe0014610395578063ebae7c1c146103b1578063f2fde38b146103cf5761012c565b8063769c2f571461028f5780638da5cb5b146102ad57806395d89b41146102cb578063a457c2d7146102e9578063a9059cbb146103195761012c565b8063313ce567116100f4578063313ce567146101eb578063395093511461020957806342966c681461023957806370a0823114610255578063715018a6146102855761012c565b8063047fc9aa1461013157806306fdde031461014f578063095ea7b31461016d57806318160ddd1461019d57806323b872dd146101bb575b600080fd5b6101396103eb565b6040516101469190611a87565b60405180910390f35b6101576103f1565b60405161016491906118c5565b60405180910390f35b610187600480360381019061018291906115c5565b610483565b60405161019491906118aa565b60405180910390f35b6101a56104a1565b6040516101b29190611a87565b60405180910390f35b6101d560048036038101906101d09190611576565b6104ab565b6040516101e291906118aa565b60405180910390f35b6101f36105a3565b6040516102009190611aa2565b60405180910390f35b610223600480360381019061021e91906115c5565b6105ac565b60405161023091906118aa565b60405180910390f35b610253600480360381019061024e919061162a565b610658565b005b61026f600480360381019061026a9190611511565b6106e8565b60405161027c9190611a87565b60405180910390f35b61028d610731565b005b6102976107b9565b6040516102a491906118aa565b60405180910390f35b6102b56107cc565b6040516102c2919061188f565b60405180910390f35b6102d36107f5565b6040516102e091906118c5565b60405180910390f35b61030360048036038101906102fe91906115c5565b610887565b60405161031091906118aa565b60405180910390f35b610333600480360381019061032e91906115c5565b610972565b60405161034091906118aa565b60405180910390f35b610363600480360381019061035e919061162a565b610990565b005b61037f600480360381019061037a919061153a565b610a4d565b60405161038c9190611a87565b60405180910390f35b6103af60048036038101906103aa9190611601565b610ad4565b005b6103b9610ba4565b6040516103c69190611a87565b60405180910390f35b6103e960048036038101906103e49190611511565b610baa565b005b600a5481565b60606006805461040090611beb565b80601f016020809104026020016040519081016040528092919081815260200182805461042c90611beb565b80156104795780601f1061044e57610100808354040283529160200191610479565b820191906000526020600020905b81548152906001019060200180831161045c57829003601f168201915b5050505050905090565b6000610497610490610ca2565b8484610caa565b6001905092915050565b6000600354905090565b60006104b8848484610e75565b6000600260008673ffffffffffffffffffffffffffffffffffffffff1673ffffffffffffffffffffffffffffffffffffffff1681526020019081526020016000206000610503610ca2565b73ffffffffffffffffffffffffffffffffffffffff1673ffffffffffffffffffffffffffffffffffffffff16815260200190815260200160002054905082811015610583576040517f08c379a000000000000000000000000000000000000000000000000000000000815260040161057a90611987565b60405180910390fd5b6105978561058f610ca2565b858403610caa565b60019150509392505050565b60006012905090565b600061064e6105b9610ca2565b8484600260006105c7610ca2565b73ffffffffffffffffffffffffffffffffffffffff1673ffffffffffffffffffffffffffffffffffffffff16815260200190815260200160002060008873ffffffffffffffffffffffffffffffffffffffff1673ffffffffffffffffffffffffffffffffffffffff168152602001908152602001600020546106499190611ad9565b610caa565b6001905092915050565b610660610ca2565b73ffffffffffffffffffffffffffffffffffffffff1661067e6107cc565b73ffffffffffffffffffffffffffffffffffffffff16146106d4576040517f08c379a00000000000000000000000000000000000000000000000000000000081526004016106cb906119a7565b60405180910390fd5b6106e56106df6107cc565b8261122b565b50565b6000600160008373ffffffffffffffffffffffffffffffffffffffff1673ffffffffffffffffffffffffffffffffffffffff168152602001908152602001600020549050919050565b610739610ca2565b73ffffffffffffffffffffffffffffffffffffffff166107576107cc565b73ffffffffffffffffffffffffffffffffffffffff16146107ad576040517f08c379a00000000000000000000000000000000000000000000000000000000081526004016107a4906119a7565b60405180910390fd5b6107b76000611404565b565b600860009054906101000a900460ff1681565b60008060009054906101000a900473ffffffffffffffffffffffffffffffffffffffff16905090565b60606007805461080490611beb565b80601f016020809104026020016040519081016040528092919081815260200182805461083090611beb565b801561087d5780601f106108525761010080835404028352916020019161087d565b820191906000526020600020905b81548152906001019060200180831161086057829003601f168201915b5050505050905090565b60008060026000610896610ca2565b73ffffffffffffffffffffffffffffffffffffffff1673ffffffffffffffffffffffffffffffffffffffff16815260200190815260200160002060008573ffffffffffffffffffffffffffffffffffffffff1673ffffffffffffffffffffffffffffffffffffffff16815260200190815260200160002054905082811015610953576040517f08c379a000000000000000000000000000000000000000000000000000000000815260040161094a90611a67565b60405180910390fd5b61096761095e610ca2565b85858403610caa565b600191505092915050565b600061098661097f610ca2565b8484610e75565b6001905092915050565b610998610ca2565b73ffffffffffffffffffffffffffffffffffffffff166109b66107cc565b73ffffffffffffffffffffffffffffffffffffffff1614610a0c576040517f08c379a0000000000000000000000000000000000000000000000000000000008152600401610a03906119a7565b60405180910390fd5b806004819055507f48d27f9cdb4018a47f7ef136f7a1470dfc52b98041efb988d7658f77821cf59281604051610a429190611a87565b60405180910390a150565b6000600260008473ffffffffffffffffffffffffffffffffffffffff1673ffffffffffffffffffffffffffffffffffffffff16815260200190815260200160002060008373ffffffffffffffffffffffffffffffffffffffff1673ffffffffffffffffffffffffffffffffffffffff16815260200190815260200160002054905092915050565b610adc610ca2565b73ffffffffffffffffffffffffffffffffffffffff16610afa6107cc565b73ffffffffffffffffffffffffffffffffffffffff1614610b50576040517f08c379a0000000000000000000000000000000000000000000000000000000008152600401610b47906119a7565b60405180910390fd5b80600860006101000a81548160ff0219169083151502179055507fcd9ebf303898e9043a99889148f76c627753441f6402e39326e470171cc93fba81604051610b9991906118aa565b60405180910390a150565b60045481565b610bb2610ca2565b73ffffffffffffffffffffffffffffffffffffffff16610bd06107cc565b73ffffffffffffffffffffffffffffffffffffffff1614610c26576040517f08c379a0000000000000000000000000000000000000000000000000000000008152600401610c1d906119a7565b60405180910390fd5b600073ffffffffffffffffffffffffffffffffffffffff168173ffffffffffffffffffffffffffffffffffffffff161415610c96576040517f08c379a0000000000000000000000000000000000000000000000000000000008152600401610c8d90611927565b60405180910390fd5b610c9f81611404565b50565b600033905090565b600073ffffffffffffffffffffffffffffffffffffffff168373ffffffffffffffffffffffffffffffffffffffff161415610d1a576040517f08c379a0000000000000000000000000000000000000000000000000000000008152600401610d1190611a27565b60405180910390fd5b600073ffffffffffffffffffffffffffffffffffffffff168273ffffffffffffffffffffffffffffffffffffffff161415610d8a576040517f08c379a0000000000000000000000000000000000000000000000000000000008152600401610d8190611947565b60405180910390fd5b80600260008573ffffffffffffffffffffffffffffffffffffffff1673ffffffffffffffffffffffffffffffffffffffff16815260200190815260200160002060008473ffffffffffffffffffffffffffffffffffffffff1673ffffffffffffffffffffffffffffffffffffffff168152602001908152602001600020819055508173ffffffffffffffffffffffffffffffffffffffff168373ffffffffffffffffffffffffffffffffffffffff167f8c5be1e5ebec7d5bd14f71427d1e84f3dd0314c0f7b2291e5b200ac8c7c3b92583604051610e689190611a87565b60405180910390a3505050565b600073ffffffffffffffffffffffffffffffffffffffff168373ffffffffffffffffffffffffffffffffffffffff161415610ee5576040517f08c379a0000000000000000000000000000000000000000000000000000000008152600401610edc90611a07565b60405180910390fd5b600073ffffffffffffffffffffffffffffffffffffffff168273ffffffffffffffffffffffffffffffffffffffff161415610f55576040517f08c379a0000000000000000000000000000000000000000000000000000000008152600401610f4c906118e7565b60405180910390fd5b610f5d6107cc565b73ffffffffffffffffffffffffffffffffffffffff163373ffffffffffffffffffffffffffffffffffffffff1614158015610fe65750600560009054906101000a900473ffffffffffffffffffffffffffffffffffffffff1673ffffffffffffffffffffffffffffffffffffffff163373ffffffffffffffffffffffffffffffffffffffff1614155b1561108757600454811115611030576040517f08c379a000000000000000000000000000000000000000000000000000000000815260040161102790611a47565b60405180910390fd5b60011515600860009054906101000a900460ff16151514611086576040517f08c379a000000000000000000000000000000000000000000000000000000000815260040161107d906119e7565b60405180910390fd5b5b6110928383836114c8565b6000600160008573ffffffffffffffffffffffffffffffffffffffff1673ffffffffffffffffffffffffffffffffffffffff16815260200190815260200160002054905081811015611119576040517f08c379a000000000000000000000000000000000000000000000000000000000815260040161111090611967565b60405180910390fd5b818103600160008673ffffffffffffffffffffffffffffffffffffffff1673ffffffffffffffffffffffffffffffffffffffff1681526020019081526020016000208190555081600160008573ffffffffffffffffffffffffffffffffffffffff1673ffffffffffffffffffffffffffffffffffffffff16815260200190815260200160002060008282546111ae9190611ad9565b925050819055508273ffffffffffffffffffffffffffffffffffffffff168473ffffffffffffffffffffffffffffffffffffffff167fddf252ad1be2c89b69c2b068fc378daa952ba7f163c4a11628f55a4df523b3ef846040516112129190611a87565b60405180910390a36112258484846114cd565b50505050565b600073ffffffffffffffffffffffffffffffffffffffff168273ffffffffffffffffffffffffffffffffffffffff16141561129b576040517f08c379a0000000000000000000000000000000000000000000000000000000008152600401611292906119c7565b60405180910390fd5b6112a7826000836114c8565b6000600160008473ffffffffffffffffffffffffffffffffffffffff1673ffffffffffffffffffffffffffffffffffffffff1681526020019081526020016000205490508181101561132e576040517f08c379a000000000000000000000000000000000000000000000000000000000815260040161132590611907565b60405180910390fd5b818103600160008573ffffffffffffffffffffffffffffffffffffffff1673ffffffffffffffffffffffffffffffffffffffff1681526020019081526020016000208190555081600360008282546113869190611b2f565b92505081905550600073ffffffffffffffffffffffffffffffffffffffff168373ffffffffffffffffffffffffffffffffffffffff167fddf252ad1be2c89b69c2b068fc378daa952ba7f163c4a11628f55a4df523b3ef846040516113eb9190611a87565b60405180910390a36113ff836000846114cd565b505050565b60008060009054906101000a900473ffffffffffffffffffffffffffffffffffffffff169050816000806101000a81548173ffffffffffffffffffffffffffffffffffffffff021916908373ffffffffffffffffffffffffffffffffffffffff1602179055508173ffffffffffffffffffffffffffffffffffffffff168173ffffffffffffffffffffffffffffffffffffffff167f8be0079c531659141344cd1fd0a4f28419497f9722a3daafe3b4186f6b6457e060405160405180910390a35050565b505050565b505050565b6000813590506114e181612043565b92915050565b6000813590506114f68161205a565b92915050565b60008135905061150b81612071565b92915050565b60006020828403121561152357600080fd5b6000611531848285016114d2565b91505092915050565b6000806040838503121561154d57600080fd5b600061155b858286016114d2565b925050602061156c858286016114d2565b9150509250929050565b60008060006060848603121561158b57600080fd5b6000611599868287016114d2565b93505060206115aa868287016114d2565b92505060406115bb868287016114fc565b9150509250925092565b600080604083850312156115d857600080fd5b60006115e6858286016114d2565b92505060206115f7858286016114fc565b9150509250929050565b60006020828403121561161357600080fd5b6000611621848285016114e7565b91505092915050565b60006020828403121561163c57600080fd5b600061164a848285016114fc565b91505092915050565b61165c81611b63565b82525050565b61166b81611b75565b82525050565b600061167c82611abd565b6116868185611ac8565b9350611696818560208601611bb8565b61169f81611c7b565b840191505092915050565b60006116b7602383611ac8565b91506116c282611c8c565b604082019050919050565b60006116da602283611ac8565b91506116e582611cdb565b604082019050919050565b60006116fd602683611ac8565b915061170882611d2a565b604082019050919050565b6000611720602283611ac8565b915061172b82611d79565b604082019050919050565b6000611743602683611ac8565b915061174e82611dc8565b604082019050919050565b6000611766602883611ac8565b915061177182611e17565b604082019050919050565b6000611789602083611ac8565b915061179482611e66565b602082019050919050565b60006117ac602183611ac8565b91506117b782611e8f565b604082019050919050565b60006117cf601183611ac8565b91506117da82611ede565b602082019050919050565b60006117f2602583611ac8565b91506117fd82611f07565b604082019050919050565b6000611815602483611ac8565b915061182082611f56565b604082019050919050565b6000611838602583611ac8565b915061184382611fa5565b604082019050919050565b600061185b602583611ac8565b915061186682611ff4565b604082019050919050565b61187a81611ba1565b82525050565b61188981611bab565b82525050565b60006020820190506118a46000830184611653565b92915050565b60006020820190506118bf6000830184611662565b92915050565b600060208201905081810360008301526118df8184611671565b905092915050565b60006020820190508181036000830152611900816116aa565b9050919050565b60006020820190508181036000830152611920816116cd565b9050919050565b60006020820190508181036000830152611940816116f0565b9050919050565b6000602082019050818103600083015261196081611713565b9050919050565b6000602082019050818103600083015261198081611736565b9050919050565b600060208201905081810360008301526119a081611759565b9050919050565b600060208201905081810360008301526119c08161177c565b9050919050565b600060208201905081810360008301526119e08161179f565b9050919050565b60006020820190508181036000830152611a00816117c2565b9050919050565b60006020820190508181036000830152611a20816117e5565b9050919050565b60006020820190508181036000830152611a4081611808565b9050919050565b60006020820190508181036000830152611a608161182b565b9050919050565b60006020820190508181036000830152611a808161184e565b9050919050565b6000602082019050611a9c6000830184611871565b92915050565b6000602082019050611ab76000830184611880565b92915050565b600081519050919050565b600082825260208201905092915050565b6000611ae482611ba1565b9150611aef83611ba1565b9250827fffffffffffffffffffffffffffffffffffffffffffffffffffffffffffffffff03821115611b2457611b23611c1d565b5b828201905092915050565b6000611b3a82611ba1565b9150611b4583611ba1565b925082821015611b5857611b57611c1d565b5b828203905092915050565b6000611b6e82611b81565b9050919050565b60008115159050919050565b600073ffffffffffffffffffffffffffffffffffffffff82169050919050565b6000819050919050565b600060ff82169050919050565b60005b83811015611bd6578082015181840152602081019050611bbb565b83811115611be5576000848401525b50505050565b60006002820490506001821680611c0357607f821691505b60208210811415611c1757611c16611c4c565b5b50919050565b7f4e487b7100000000000000000000000000000000000000000000000000000000600052601160045260246000fd5b7f4e487b7100000000000000000000000000000000000000000000000000000000600052602260045260246000fd5b6000601f19601f8301169050919050565b7f45524332303a207472616e7366657220746f20746865207a65726f206164647260008201527f6573730000000000000000000000000000000000000000000000000000000000602082015250565b7f45524332303a206275726e20616d6f756e7420657863656564732062616c616e60008201527f6365000000000000000000000000000000000000000000000000000000000000602082015250565b7f4f776e61626c653a206e6577206f776e657220697320746865207a65726f206160008201527f6464726573730000000000000000000000000000000000000000000000000000602082015250565b7f45524332303a20617070726f766520746f20746865207a65726f20616464726560008201527f7373000000000000000000000000000000000000000000000000000000000000602082015250565b7f45524332303a207472616e7366657220616d6f756e742065786365656473206260008201527f616c616e63650000000000000000000000000000000000000000000000000000602082015250565b7f45524332303a207472616e7366657220616d6f756e742065786365656473206160008201527f6c6c6f77616e6365000000000000000000000000000000000000000000000000602082015250565b7f4f776e61626c653a2063616c6c6572206973206e6f7420746865206f776e6572600082015250565b7f45524332303a206275726e2066726f6d20746865207a65726f2061646472657360008201527f7300000000000000000000000000000000000000000000000000000000000000602082015250565b7f537761702069732064697361626c656421000000000000000000000000000000600082015250565b7f45524332303a207472616e736665722066726f6d20746865207a65726f20616460008201527f6472657373000000000000000000000000000000000000000000000000000000602082015250565b7f45524332303a20617070726f76652066726f6d20746865207a65726f2061646460008201527f7265737300000000000000000000000000000000000000000000000000000000602082015250565b7f45524332303a207472616e7366657220616d6f756e742065786365656473206d60008201527f6178205458000000000000000000000000000000000000000000000000000000602082015250565b7f45524332303a2064656372656173656420616c6c6f77616e63652062656c6f7760008201527f207a65726f000000000000000000000000000000000000000000000000000000602082015250565b61204c81611b63565b811461205757600080fd5b50565b61206381611b75565b811461206e57600080fd5b50565b61207a81611ba1565b811461208557600080fd5b5056fea2646970667358221220cfa7b0d8308772416232ffb253a763637a664dabf97cb9fa6043c44d113cbcf764736f6c63430008040033",
  "linkReferences": {},
  "deployedLinkReferences": {}
}