{
  "_format": "hh-sol-artifact-1",
  "contractName": "Reakoin",
  "sourceName": "contracts/Reakoin.sol",
  "abi": [
    {
      "inputs": [
        {
          "internalType": "string",
          "name": "name",
          "type": "string"
        },
        {
          "internalType": "string",
          "name": "symbols",
          "type": "string"
        }
      ],
      "stateMutability": "nonpayable",
      "type": "constructor"
    },
    {
      "anonymous": false,
      "inputs": [
        {
          "indexed": true,
          "internalType": "address",
          "name": "owner",
          "type": "address"
        },
        {
          "indexed": true,
          "internalType": "address",
          "name": "spender",
          "type": "address"
        },
        {
          "indexed": false,
          "internalType": "uint256",
          "name": "value",
          "type": "uint256"
        }
      ],
      "name": "Approval",
      "type": "event"
    },
    {
      "anonymous": false,
      "inputs": [
        {
          "indexed": true,
          "internalType": "address",
          "name": "previousOwner",
          "type": "address"
        },
        {
          "indexed": true,
          "internalType": "address",
          "name": "newOwner",
          "type": "address"
        }
      ],
      "name": "OwnershipTransferred",
      "type": "event"
    },
    {
      "anonymous": false,
      "inputs": [
        {
          "indexed": false,
          "internalType": "uint256",
          "name": "maxTX",
          "type": "uint256"
        }
      ],
      "name": "SetMaxTx",
      "type": "event"
    },
    {
      "anonymous": false,
      "inputs": [
        {
          "indexed": true,
          "internalType": "address",
          "name": "from",
          "type": "address"
        },
        {
          "indexed": true,
          "internalType": "address",
          "name": "to",
          "type": "address"
        },
        {
          "indexed": false,
          "internalType": "uint256",
          "name": "value",
          "type": "uint256"
        }
      ],
      "name": "Transfer",
      "type": "event"
    },
    {
      "inputs": [
        {
          "internalType": "address",
          "name": "owner",
          "type": "address"
        },
        {
          "internalType": "address",
          "name": "spender",
          "type": "address"
        }
      ],
      "name": "allowance",
      "outputs": [
        {
          "internalType": "uint256",
          "name": "",
          "type": "uint256"
        }
      ],
      "stateMutability": "view",
      "type": "function"
    },
    {
      "inputs": [
        {
          "internalType": "address",
          "name": "spender",
          "type": "address"
        },
        {
          "internalType": "uint256",
          "name": "amount",
          "type": "uint256"
        }
      ],
      "name": "approve",
      "outputs": [
        {
          "internalType": "bool",
          "name": "",
          "type": "bool"
        }
      ],
      "stateMutability": "nonpayable",
      "type": "function"
    },
    {
      "inputs": [
        {
          "internalType": "address",
          "name": "account",
          "type": "address"
        }
      ],
      "name": "balanceOf",
      "outputs": [
        {
          "internalType": "uint256",
          "name": "",
          "type": "uint256"
        }
      ],
      "stateMutability": "view",
      "type": "function"
    },
    {
      "inputs": [],
      "name": "decimals",
      "outputs": [
        {
          "internalType": "uint8",
          "name": "",
          "type": "uint8"
        }
      ],
      "stateMutability": "view",
      "type": "function"
    },
    {
      "inputs": [
        {
          "internalType": "address",
          "name": "spender",
          "type": "address"
        },
        {
          "internalType": "uint256",
          "name": "subtractedValue",
          "type": "uint256"
        }
      ],
      "name": "decreaseAllowance",
      "outputs": [
        {
          "internalType": "bool",
          "name": "",
          "type": "bool"
        }
      ],
      "stateMutability": "nonpayable",
      "type": "function"
    },
    {
      "inputs": [
        {
          "internalType": "address",
          "name": "spender",
          "type": "address"
        },
        {
          "internalType": "uint256",
          "name": "addedValue",
          "type": "uint256"
        }
      ],
      "name": "increaseAllowance",
      "outputs": [
        {
          "internalType": "bool",
          "name": "",
          "type": "bool"
        }
      ],
      "stateMutability": "nonpayable",
      "type": "function"
    },
    {
      "inputs": [],
      "name": "maxTX",
      "outputs": [
        {
          "internalType": "uint256",
          "name": "",
          "type": "uint256"
        }
      ],
      "stateMutability": "view",
      "type": "function"
    },
    {
      "inputs": [],
      "name": "name",
      "outputs": [
        {
          "internalType": "string",
          "name": "",
          "type": "string"
        }
      ],
      "stateMutability": "view",
      "type": "function"
    },
    {
      "inputs": [],
      "name": "owner",
      "outputs": [
        {
          "internalType": "address",
          "name": "",
          "type": "address"
        }
      ],
      "stateMutability": "view",
      "type": "function"
    },
    {
      "inputs": [],
      "name": "renounceOwnership",
      "outputs": [],
      "stateMutability": "nonpayable",
      "type": "function"
    },
    {
      "inputs": [
        {
          "internalType": "uint256",
          "name": "newMaxvalue",
          "type": "uint256"
        }
      ],
      "name": "setMaxTx",
      "outputs": [],
      "stateMutability": "nonpayable",
      "type": "function"
    },
    {
      "inputs": [],
      "name": "supply",
      "outputs": [
        {
          "internalType": "uint256",
          "name": "",
          "type": "uint256"
        }
      ],
      "stateMutability": "view",
      "type": "function"
    },
    {
      "inputs": [],
      "name": "symbol",
      "outputs": [
        {
          "internalType": "string",
          "name": "",
          "type": "string"
        }
      ],
      "stateMutability": "view",
      "type": "function"
    },
    {
      "inputs": [],
      "name": "totalSupply",
      "outputs": [
        {
          "internalType": "uint256",
          "name": "",
          "type": "uint256"
        }
      ],
      "stateMutability": "view",
      "type": "function"
    },
    {
      "inputs": [
        {
          "internalType": "address",
          "name": "recipient",
          "type": "address"
        },
        {
          "internalType": "uint256",
          "name": "amount",
          "type": "uint256"
        }
      ],
      "name": "transfer",
      "outputs": [
        {
          "internalType": "bool",
          "name": "",
          "type": "bool"
        }
      ],
      "stateMutability": "nonpayable",
      "type": "function"
    },
    {
      "inputs": [
        {
          "internalType": "address",
          "name": "sender",
          "type": "address"
        },
        {
          "internalType": "address",
          "name": "recipient",
          "type": "address"
        },
        {
          "internalType": "uint256",
          "name": "amount",
          "type": "uint256"
        }
      ],
      "name": "transferFrom",
      "outputs": [
        {
          "internalType": "bool",
          "name": "",
          "type": "bool"
        }
      ],
      "stateMutability": "nonpayable",
      "type": "function"
    },
    {
      "inputs": [
        {
          "internalType": "address",
          "name": "newOwner",
          "type": "address"
        }
      ],
      "name": "transferOwnership",
      "outputs": [],
      "stateMutability": "nonpayable",
      "type": "function"
    }
  ],
  "bytecode": "0x608060405269d3c21bcecceda10000006006556a295be96e640669720000006008553480156200002e57600080fd5b506040516200206638038062002066833981810160405281019062000054919062000439565b818181600390805190602001906200006e92919062000317565b5080600490805190602001906200008792919062000317565b505050620000aa6200009e620000c660201b60201c565b620000ce60201b60201c565b620000be336008546200019460201b60201c565b505062000763565b600033905090565b6000600560009054906101000a900473ffffffffffffffffffffffffffffffffffffffff16905081600560006101000a81548173ffffffffffffffffffffffffffffffffffffffff021916908373ffffffffffffffffffffffffffffffffffffffff1602179055508173ffffffffffffffffffffffffffffffffffffffff168173ffffffffffffffffffffffffffffffffffffffff167f8be0079c531659141344cd1fd0a4f28419497f9722a3daafe3b4186f6b6457e060405160405180910390a35050565b600073ffffffffffffffffffffffffffffffffffffffff168273ffffffffffffffffffffffffffffffffffffffff16141562000207576040517f08c379a0000000000000000000000000000000000000000000000000000000008152600401620001fe90620004e4565b60405180910390fd5b6200021b600083836200030d60201b60201c565b80600260008282546200022f919062000593565b92505081905550806000808473ffffffffffffffffffffffffffffffffffffffff1673ffffffffffffffffffffffffffffffffffffffff168152602001908152602001600020600082825462000286919062000593565b925050819055508173ffffffffffffffffffffffffffffffffffffffff16600073ffffffffffffffffffffffffffffffffffffffff167fddf252ad1be2c89b69c2b068fc378daa952ba7f163c4a11628f55a4df523b3ef83604051620002ed919062000506565b60405180910390a362000309600083836200031260201b60201c565b5050565b505050565b505050565b828054620003259062000630565b90600052602060002090601f01602090048101928262000349576000855562000395565b82601f106200036457805160ff191683800117855562000395565b8280016001018555821562000395579182015b828111156200039457825182559160200191906001019062000377565b5b509050620003a49190620003a8565b5090565b5b80821115620003c3576000816000905550600101620003a9565b5090565b6000620003de620003d8846200054c565b62000523565b905082815260208101848484011115620003f757600080fd5b62000404848285620005fa565b509392505050565b600082601f8301126200041e57600080fd5b815162000430848260208601620003c7565b91505092915050565b600080604083850312156200044d57600080fd5b600083015167ffffffffffffffff8111156200046857600080fd5b62000476858286016200040c565b925050602083015167ffffffffffffffff8111156200049457600080fd5b620004a2858286016200040c565b9150509250929050565b6000620004bb601f8362000582565b9150620004c8826200073a565b602082019050919050565b620004de81620005f0565b82525050565b60006020820190508181036000830152620004ff81620004ac565b9050919050565b60006020820190506200051d6000830184620004d3565b92915050565b60006200052f62000542565b90506200053d828262000666565b919050565b6000604051905090565b600067ffffffffffffffff8211156200056a5762000569620006fa565b5b620005758262000729565b9050602081019050919050565b600082825260208201905092915050565b6000620005a082620005f0565b9150620005ad83620005f0565b9250827fffffffffffffffffffffffffffffffffffffffffffffffffffffffffffffffff03821115620005e557620005e46200069c565b5b828201905092915050565b6000819050919050565b60005b838110156200061a578082015181840152602081019050620005fd565b838111156200062a576000848401525b50505050565b600060028204905060018216806200064957607f821691505b6020821081141562000660576200065f620006cb565b5b50919050565b620006718262000729565b810181811067ffffffffffffffff82111715620006935762000692620006fa565b5b80604052505050565b7f4e487b7100000000000000000000000000000000000000000000000000000000600052601160045260246000fd5b7f4e487b7100000000000000000000000000000000000000000000000000000000600052602260045260246000fd5b7f4e487b7100000000000000000000000000000000000000000000000000000000600052604160045260246000fd5b6000601f19601f8301169050919050565b7f45524332303a206d696e7420746f20746865207a65726f206164647265737300600082015250565b6118f380620007736000396000f3fe608060405234801561001057600080fd5b506004361061010b5760003560e01c8063715018a6116100a2578063a9059cbb11610071578063a9059cbb146102be578063bc337182146102ee578063dd62ed3e1461030a578063ebae7c1c1461033a578063f2fde38b146103585761010b565b8063715018a6146102485780638da5cb5b1461025257806395d89b4114610270578063a457c2d71461028e5761010b565b806323b872dd116100de57806323b872dd1461019a578063313ce567146101ca57806339509351146101e857806370a08231146102185761010b565b8063047fc9aa1461011057806306fdde031461012e578063095ea7b31461014c57806318160ddd1461017c575b600080fd5b610118610374565b604051610125919061148f565b60405180910390f35b61013661037a565b604051610143919061134d565b60405180910390f35b61016660048036038101906101619190611102565b61040c565b6040516101739190611332565b60405180910390f35b61018461042a565b604051610191919061148f565b60405180910390f35b6101b460048036038101906101af91906110b3565b610434565b6040516101c19190611332565b60405180910390f35b6101d261052c565b6040516101df91906114aa565b60405180910390f35b61020260048036038101906101fd9190611102565b610535565b60405161020f9190611332565b60405180910390f35b610232600480360381019061022d919061104e565b6105e1565b60405161023f919061148f565b60405180910390f35b610250610629565b005b61025a6106b1565b6040516102679190611317565b60405180910390f35b6102786106db565b604051610285919061134d565b60405180910390f35b6102a860048036038101906102a39190611102565b61076d565b6040516102b59190611332565b60405180910390f35b6102d860048036038101906102d39190611102565b610858565b6040516102e59190611332565b60405180910390f35b6103086004803603810190610303919061113e565b610876565b005b610324600480360381019061031f9190611077565b610933565b604051610331919061148f565b60405180910390f35b6103426109ba565b60405161034f919061148f565b60405180910390f35b610372600480360381019061036d919061104e565b6109c0565b005b60085481565b606060038054610389906115bf565b80601f01602080910402602001604051908101604052809291908181526020018280546103b5906115bf565b80156104025780601f106103d757610100808354040283529160200191610402565b820191906000526020600020905b8154815290600101906020018083116103e557829003601f168201915b5050505050905090565b6000610420610419610ab8565b8484610ac0565b6001905092915050565b6000600254905090565b6000610441848484610c8b565b6000600160008673ffffffffffffffffffffffffffffffffffffffff1673ffffffffffffffffffffffffffffffffffffffff168152602001908152602001600020600061048c610ab8565b73ffffffffffffffffffffffffffffffffffffffff1673ffffffffffffffffffffffffffffffffffffffff1681526020019081526020016000205490508281101561050c576040517f08c379a0000000000000000000000000000000000000000000000000000000008152600401610503906113ef565b60405180910390fd5b61052085610518610ab8565b858403610ac0565b60019150509392505050565b60006012905090565b60006105d7610542610ab8565b848460016000610550610ab8565b73ffffffffffffffffffffffffffffffffffffffff1673ffffffffffffffffffffffffffffffffffffffff16815260200190815260200160002060008873ffffffffffffffffffffffffffffffffffffffff1673ffffffffffffffffffffffffffffffffffffffff168152602001908152602001600020546105d291906114e1565b610ac0565b6001905092915050565b60008060008373ffffffffffffffffffffffffffffffffffffffff1673ffffffffffffffffffffffffffffffffffffffff168152602001908152602001600020549050919050565b610631610ab8565b73ffffffffffffffffffffffffffffffffffffffff1661064f6106b1565b73ffffffffffffffffffffffffffffffffffffffff16146106a5576040517f08c379a000000000000000000000000000000000000000000000000000000000815260040161069c9061140f565b60405180910390fd5b6106af6000610f54565b565b6000600560009054906101000a900473ffffffffffffffffffffffffffffffffffffffff16905090565b6060600480546106ea906115bf565b80601f0160208091040260200160405190810160405280929190818152602001828054610716906115bf565b80156107635780601f1061073857610100808354040283529160200191610763565b820191906000526020600020905b81548152906001019060200180831161074657829003601f168201915b5050505050905090565b6000806001600061077c610ab8565b73ffffffffffffffffffffffffffffffffffffffff1673ffffffffffffffffffffffffffffffffffffffff16815260200190815260200160002060008573ffffffffffffffffffffffffffffffffffffffff1673ffffffffffffffffffffffffffffffffffffffff16815260200190815260200160002054905082811015610839576040517f08c379a00000000000000000000000000000000000000000000000000000000081526004016108309061146f565b60405180910390fd5b61084d610844610ab8565b85858403610ac0565b600191505092915050565b600061086c610865610ab8565b8484610c8b565b6001905092915050565b61087e610ab8565b73ffffffffffffffffffffffffffffffffffffffff1661089c6106b1565b73ffffffffffffffffffffffffffffffffffffffff16146108f2576040517f08c379a00000000000000000000000000000000000000000000000000000000081526004016108e99061140f565b60405180910390fd5b806006819055507f48d27f9cdb4018a47f7ef136f7a1470dfc52b98041efb988d7658f77821cf59281604051610928919061148f565b60405180910390a150565b6000600160008473ffffffffffffffffffffffffffffffffffffffff1673ffffffffffffffffffffffffffffffffffffffff16815260200190815260200160002060008373ffffffffffffffffffffffffffffffffffffffff1673ffffffffffffffffffffffffffffffffffffffff16815260200190815260200160002054905092915050565b60065481565b6109c8610ab8565b73ffffffffffffffffffffffffffffffffffffffff166109e66106b1565b73ffffffffffffffffffffffffffffffffffffffff1614610a3c576040517f08c379a0000000000000000000000000000000000000000000000000000000008152600401610a339061140f565b60405180910390fd5b600073ffffffffffffffffffffffffffffffffffffffff168173ffffffffffffffffffffffffffffffffffffffff161415610aac576040517f08c379a0000000000000000000000000000000000000000000000000000000008152600401610aa39061136f565b60405180910390fd5b610ab581610f54565b50565b600033905090565b600073ffffffffffffffffffffffffffffffffffffffff168373ffffffffffffffffffffffffffffffffffffffff161415610b30576040517f08c379a0000000000000000000000000000000000000000000000000000000008152600401610b279061142f565b60405180910390fd5b600073ffffffffffffffffffffffffffffffffffffffff168273ffffffffffffffffffffffffffffffffffffffff161415610ba0576040517f08c379a0000000000000000000000000000000000000000000000000000000008152600401610b979061138f565b60405180910390fd5b80600160008573ffffffffffffffffffffffffffffffffffffffff1673ffffffffffffffffffffffffffffffffffffffff16815260200190815260200160002060008473ffffffffffffffffffffffffffffffffffffffff1673ffffffffffffffffffffffffffffffffffffffff168152602001908152602001600020819055508173ffffffffffffffffffffffffffffffffffffffff168373ffffffffffffffffffffffffffffffffffffffff167f8c5be1e5ebec7d5bd14f71427d1e84f3dd0314c0f7b2291e5b200ac8c7c3b92583604051610c7e919061148f565b60405180910390a3505050565b600073ffffffffffffffffffffffffffffffffffffffff168373ffffffffffffffffffffffffffffffffffffffff161415610cfb576040517f08c379a0000000000000000000000000000000000000000000000000000000008152600401610cf2906113cf565b60405180910390fd5b600073ffffffffffffffffffffffffffffffffffffffff168273ffffffffffffffffffffffffffffffffffffffff161415610d6b576040517f08c379a0000000000000000000000000000000000000000000000000000000008152600401610d62906113cf565b60405180910390fd5b600654811015610db0576040517f08c379a0000000000000000000000000000000000000000000000000000000008152600401610da7906113af565b60405180910390fd5b610dbb83838361101a565b6000600760008573ffffffffffffffffffffffffffffffffffffffff1673ffffffffffffffffffffffffffffffffffffffff16815260200190815260200160002054905081811015610e42576040517f08c379a0000000000000000000000000000000000000000000000000000000008152600401610e399061144f565b60405180910390fd5b818103600760008673ffffffffffffffffffffffffffffffffffffffff1673ffffffffffffffffffffffffffffffffffffffff1681526020019081526020016000208190555081600760008573ffffffffffffffffffffffffffffffffffffffff1673ffffffffffffffffffffffffffffffffffffffff1681526020019081526020016000206000828254610ed791906114e1565b925050819055508273ffffffffffffffffffffffffffffffffffffffff168473ffffffffffffffffffffffffffffffffffffffff167fddf252ad1be2c89b69c2b068fc378daa952ba7f163c4a11628f55a4df523b3ef84604051610f3b919061148f565b60405180910390a3610f4e84848461101f565b50505050565b6000600560009054906101000a900473ffffffffffffffffffffffffffffffffffffffff16905081600560006101000a81548173ffffffffffffffffffffffffffffffffffffffff021916908373ffffffffffffffffffffffffffffffffffffffff1602179055508173ffffffffffffffffffffffffffffffffffffffff168173ffffffffffffffffffffffffffffffffffffffff167f8be0079c531659141344cd1fd0a4f28419497f9722a3daafe3b4186f6b6457e060405160405180910390a35050565b505050565b505050565b6000813590506110338161188f565b92915050565b600081359050611048816118a6565b92915050565b60006020828403121561106057600080fd5b600061106e84828501611024565b91505092915050565b6000806040838503121561108a57600080fd5b600061109885828601611024565b92505060206110a985828601611024565b9150509250929050565b6000806000606084860312156110c857600080fd5b60006110d686828701611024565b93505060206110e786828701611024565b92505060406110f886828701611039565b9150509250925092565b6000806040838503121561111557600080fd5b600061112385828601611024565b925050602061113485828601611039565b9150509250929050565b60006020828403121561115057600080fd5b600061115e84828501611039565b91505092915050565b61117081611537565b82525050565b61117f81611549565b82525050565b6000611190826114c5565b61119a81856114d0565b93506111aa81856020860161158c565b6111b38161164f565b840191505092915050565b60006111cb6026836114d0565b91506111d682611660565b604082019050919050565b60006111ee6022836114d0565b91506111f9826116af565b604082019050919050565b60006112116014836114d0565b915061121c826116fe565b602082019050919050565b60006112346017836114d0565b915061123f82611727565b602082019050919050565b60006112576028836114d0565b915061126282611750565b604082019050919050565b600061127a6020836114d0565b91506112858261179f565b602082019050919050565b600061129d6024836114d0565b91506112a8826117c8565b604082019050919050565b60006112c06017836114d0565b91506112cb82611817565b602082019050919050565b60006112e36025836114d0565b91506112ee82611840565b604082019050919050565b61130281611575565b82525050565b6113118161157f565b82525050565b600060208201905061132c6000830184611167565b92915050565b60006020820190506113476000830184611176565b92915050565b600060208201905081810360008301526113678184611185565b905092915050565b60006020820190508181036000830152611388816111be565b9050919050565b600060208201905081810360008301526113a8816111e1565b9050919050565b600060208201905081810360008301526113c881611204565b9050919050565b600060208201905081810360008301526113e881611227565b9050919050565b600060208201905081810360008301526114088161124a565b9050919050565b600060208201905081810360008301526114288161126d565b9050919050565b6000602082019050818103600083015261144881611290565b9050919050565b60006020820190508181036000830152611468816112b3565b9050919050565b60006020820190508181036000830152611488816112d6565b9050919050565b60006020820190506114a460008301846112f9565b92915050565b60006020820190506114bf6000830184611308565b92915050565b600081519050919050565b600082825260208201905092915050565b60006114ec82611575565b91506114f783611575565b9250827fffffffffffffffffffffffffffffffffffffffffffffffffffffffffffffffff0382111561152c5761152b6115f1565b5b828201905092915050565b600061154282611555565b9050919050565b60008115159050919050565b600073ffffffffffffffffffffffffffffffffffffffff82169050919050565b6000819050919050565b600060ff82169050919050565b60005b838110156115aa57808201518184015260208101905061158f565b838111156115b9576000848401525b50505050565b600060028204905060018216806115d757607f821691505b602082108114156115eb576115ea611620565b5b50919050565b7f4e487b7100000000000000000000000000000000000000000000000000000000600052601160045260246000fd5b7f4e487b7100000000000000000000000000000000000000000000000000000000600052602260045260246000fd5b6000601f19601f8301169050919050565b7f4f776e61626c653a206e6577206f776e657220697320746865207a65726f206160008201527f6464726573730000000000000000000000000000000000000000000000000000602082015250565b7f45524332303a20617070726f766520746f20746865207a65726f20616464726560008201527f7373000000000000000000000000000000000000000000000000000000000000602082015250565b7f45524332303a20616d6f756e7420697320626967000000000000000000000000600082015250565b7f45524332303a207472616e7366657220746f207a65726f000000000000000000600082015250565b7f45524332303a207472616e7366657220616d6f756e742065786365656473206160008201527f6c6c6f77616e6365000000000000000000000000000000000000000000000000602082015250565b7f4f776e61626c653a2063616c6c6572206973206e6f7420746865206f776e6572600082015250565b7f45524332303a20617070726f76652066726f6d20746865207a65726f2061646460008201527f7265737300000000000000000000000000000000000000000000000000000000602082015250565b7f45524332303a20616d6f756e747320697320736d616c6c000000000000000000600082015250565b7f45524332303a2064656372656173656420616c6c6f77616e63652062656c6f7760008201527f207a65726f000000000000000000000000000000000000000000000000000000602082015250565b61189881611537565b81146118a357600080fd5b50565b6118af81611575565b81146118ba57600080fd5b5056fea2646970667358221220778be40809c5de1c79677b87c3cf3577e9478905034b427d291ae11eaf2543e564736f6c63430008040033",
  "linkReferences": {},
  "deployedLinkReferences": {}
}